{"contracts/BaseBid3.sol":{"BaseBid3":{"abi":[{"inputs":[{"internalType":"address","name":"_baseBidRegistry","type":"address"},{"internalType":"address","name":"_admin","type":"address"},{"internalType":"address","name":"_baseAsset","type":"address"},{"internalType":"address","name":"_baseAssetOracle","type":"address"},{"internalType":"address","name":"_LANContract","type":"address"},{"internalType":"address","name":"_Wrapper","type":"address"},{"internalType":"bool","name":"_liquidationOnly","type":"bool"},{"internalType":"uint16","name":"_kink","type":"uint16"},{"internalType":"uint256","name":"_minApr","type":"uint256"},{"internalType":"uint256","name":"_longestTerm","type":"uint256"},{"internalType":"uint256","name":"_adminFee","type":"uint256"}],"stateMutability":"nonpayable","type":"constructor"},{"inputs":[{"internalType":"uint256","name":"_poolId","type":"uint256"}],"name":"bid","outputs":[],"stateMutability":"nonpayable","type":"function"},{"inputs":[{"internalType":"uint256","name":"_poolId","type":"uint256"},{"internalType":"uint256","name":"_borrowAmount","type":"uint256"},{"internalType":"uint256","name":"_apr","type":"uint256"}],"name":"bidWithParams","outputs":[],"stateMutability":"nonpayable","type":"function"},{"inputs":[],"name":"cash","outputs":[{"internalType":"uint256","name":"","type":"uint256"}],"stateMutability":"view","type":"function"},{"inputs":[{"internalType":"uint256","name":"_tokenAmount","type":"uint256"}],"name":"deposit","outputs":[],"stateMutability":"nonpayable","type":"function"},{"inputs":[],"name":"getDetails","outputs":[{"internalType":"address","name":"","type":"address"},{"internalType":"address","name":"","type":"address"},{"internalType":"uint256","name":"","type":"uint256"},{"internalType":"uint256","name":"","type":"uint256"},{"internalType":"uint256","name":"","type":"uint256"},{"internalType":"bool","name":"","type":"bool"}],"stateMutability":"view","type":"function"},{"inputs":[{"internalType":"address","name":"","type":"address"}],"name":"whitelists","outputs":[{"internalType":"uint256","name":"poolId","type":"uint256"},{"internalType":"uint256","name":"LTV","type":"uint256"},{"internalType":"address","name":"oracle","type":"address"}],"stateMutability":"view","type":"function"},{"inputs":[{"internalType":"uint256","name":"_tokenAmount","type":"uint256"}],"name":"withdraw","outputs":[],"stateMutability":"nonpayable","type":"function"}],"evm":{"bytecode":{"linkReferences":{},"object":"60806040523480156200001157600080fd5b5060405162000ffb38038062000ffb83398181016040528101906200003791906200046f565b89600260006101000a81548173ffffffffffffffffffffffffffffffffffffffff021916908373ffffffffffffffffffffffffffffffffffffffff16021790555088600360006101000a81548173ffffffffffffffffffffffffffffffffffffffff021916908373ffffffffffffffffffffffffffffffffffffffff16021790555087600460006101000a81548173ffffffffffffffffffffffffffffffffffffffff021916908373ffffffffffffffffffffffffffffffffffffffff16021790555086600560006101000a81548173ffffffffffffffffffffffffffffffffffffffff021916908373ffffffffffffffffffffffffffffffffffffffff16021790555083600560156101000a81548161ffff021916908361ffff1602179055508260068190555084600560146101000a81548160ff0219169083151502179055508160078190555080600881905550600360009054906101000a900473ffffffffffffffffffffffffffffffffffffffff1673ffffffffffffffffffffffffffffffffffffffff1663095ea7b3887fffffffffffffffffffffffffffffffffffffffffffffffffffffffffffffffff6040518363ffffffff1660e01b8152600401620002069291906200059e565b6020604051808303816000875af115801562000226573d6000803e3d6000fd5b505050506040513d601f19601f820116820180604052508101906200024c9190620005cb565b5085600160006101000a81548173ffffffffffffffffffffffffffffffffffffffff021916908373ffffffffffffffffffffffffffffffffffffffff160217905550866000806101000a81548173ffffffffffffffffffffffffffffffffffffffff021916908373ffffffffffffffffffffffffffffffffffffffff1602179055508a73ffffffffffffffffffffffffffffffffffffffff16639538bc1f306040518263ffffffff1660e01b8152600401620003099190620005fd565b600060405180830381600087803b1580156200032457600080fd5b505af115801562000339573d6000803e3d6000fd5b5050505050505050505050505050506200061a565b600080fd5b600073ffffffffffffffffffffffffffffffffffffffff82169050919050565b6000620003808262000353565b9050919050565b620003928162000373565b81146200039e57600080fd5b50565b600081519050620003b28162000387565b92915050565b60008115159050919050565b620003cf81620003b8565b8114620003db57600080fd5b50565b600081519050620003ef81620003c4565b92915050565b600061ffff82169050919050565b6200040e81620003f5565b81146200041a57600080fd5b50565b6000815190506200042e8162000403565b92915050565b6000819050919050565b620004498162000434565b81146200045557600080fd5b50565b60008151905062000469816200043e565b92915050565b60008060008060008060008060008060006101608c8e0312156200049857620004976200034e565b5b6000620004a88e828f01620003a1565b9b50506020620004bb8e828f01620003a1565b9a50506040620004ce8e828f01620003a1565b9950506060620004e18e828f01620003a1565b9850506080620004f48e828f01620003a1565b97505060a0620005078e828f01620003a1565b96505060c06200051a8e828f01620003de565b95505060e06200052d8e828f016200041d565b945050610100620005418e828f0162000458565b935050610120620005558e828f0162000458565b925050610140620005698e828f0162000458565b9150509295989b509295989b9093969950565b620005878162000373565b82525050565b620005988162000434565b82525050565b6000604082019050620005b560008301856200057c565b620005c460208301846200058d565b9392505050565b600060208284031215620005e457620005e36200034e565b5b6000620005f484828501620003de565b91505092915050565b60006020820190506200061460008301846200057c565b92915050565b6109d1806200062a6000396000f3fe608060405234801561001057600080fd5b506004361061007d5760003560e01c8063961be3911161005b578063961be391146100ec578063b6b55f251461010a578063eaee911514610126578063fbbf93a0146101425761007d565b80631e7be210146100825780632e1a7d4d146100b4578063454a2ab3146100d0575b600080fd5b61009c60048036038101906100979190610517565b610165565b6040516100ab9392919061056c565b60405180910390f35b6100ce60048036038101906100c991906105cf565b6101af565b005b6100ea60048036038101906100e591906105cf565b610242565b005b6100f46102dc565b60405161010191906105fc565b60405180910390f35b610124600480360381019061011f91906105cf565b6102e2565b005b610140600480360381019061013b9190610617565b6103a1565b005b61014a610438565b60405161015c96959493929190610685565b60405180910390f35b600b6020528060005260406000206000915090508060000154908060010154908060020160009054906101000a900473ffffffffffffffffffffffffffffffffffffffff16905083565b600260009054906101000a900473ffffffffffffffffffffffffffffffffffffffff1673ffffffffffffffffffffffffffffffffffffffff163373ffffffffffffffffffffffffffffffffffffffff161461023f576040517f08c379a000000000000000000000000000000000000000000000000000000000815260040161023690610743565b60405180910390fd5b50565b600560009054906101000a900473ffffffffffffffffffffffffffffffffffffffff1673ffffffffffffffffffffffffffffffffffffffff166334e40b2e826161a8601460006040518563ffffffff1660e01b81526004016102a7949392919061081e565b600060405180830381600087803b1580156102c157600080fd5b505af11580156102d5573d6000803e3d6000fd5b5050505050565b600a5481565b80600a60008282546102f49190610892565b92505081905550600360009054906101000a900473ffffffffffffffffffffffffffffffffffffffff1673ffffffffffffffffffffffffffffffffffffffff166323b872dd3330846040518463ffffffff1660e01b815260040161035a939291906108c6565b6020604051808303816000875af1158015610379573d6000803e3d6000fd5b505050506040513d601f19601f8201168201806040525081019061039d9190610929565b5050565b60008054906101000a900473ffffffffffffffffffffffffffffffffffffffff1673ffffffffffffffffffffffffffffffffffffffff166334e40b2e84848460006040518563ffffffff1660e01b81526004016104019493929190610956565b600060405180830381600087803b15801561041b57600080fd5b505af115801561042f573d6000803e3d6000fd5b50505050505050565b600080600080600080600260009054906101000a900473ffffffffffffffffffffffffffffffffffffffff16600360009054906101000a900473ffffffffffffffffffffffffffffffffffffffff16600654600754600854600560149054906101000a900460ff16955095509550955095509550909192939495565b600080fd5b600073ffffffffffffffffffffffffffffffffffffffff82169050919050565b60006104e4826104b9565b9050919050565b6104f4816104d9565b81146104ff57600080fd5b50565b600081359050610511816104eb565b92915050565b60006020828403121561052d5761052c6104b4565b5b600061053b84828501610502565b91505092915050565b6000819050919050565b61055781610544565b82525050565b610566816104d9565b82525050565b6000606082019050610581600083018661054e565b61058e602083018561054e565b61059b604083018461055d565b949350505050565b6105ac81610544565b81146105b757600080fd5b50565b6000813590506105c9816105a3565b92915050565b6000602082840312156105e5576105e46104b4565b5b60006105f3848285016105ba565b91505092915050565b6000602082019050610611600083018461054e565b92915050565b6000806000606084860312156106305761062f6104b4565b5b600061063e868287016105ba565b935050602061064f868287016105ba565b9250506040610660868287016105ba565b9150509250925092565b60008115159050919050565b61067f8161066a565b82525050565b600060c08201905061069a600083018961055d565b6106a7602083018861055d565b6106b4604083018761054e565b6106c1606083018661054e565b6106ce608083018561054e565b6106db60a0830184610676565b979650505050505050565b600082825260208201905092915050565b7f426173654269643a206e6f74206f776e65720000000000000000000000000000600082015250565b600061072d6012836106e6565b9150610738826106f7565b602082019050919050565b6000602082019050818103600083015261075c81610720565b9050919050565b6000819050919050565b6000819050919050565b600061079261078d61078884610763565b61076d565b610544565b9050919050565b6107a281610777565b82525050565b6000819050919050565b60006107cd6107c86107c3846107a8565b61076d565b610544565b9050919050565b6107dd816107b2565b82525050565b6000819050919050565b60006108086108036107fe846107e3565b61076d565b610544565b9050919050565b610818816107ed565b82525050565b6000608082019050610833600083018761054e565b6108406020830186610799565b61084d60408301856107d4565b61085a606083018461080f565b95945050505050565b7f4e487b7100000000000000000000000000000000000000000000000000000000600052601160045260246000fd5b600061089d82610544565b91506108a883610544565b92508282019050808211156108c0576108bf610863565b5b92915050565b60006060820190506108db600083018661055d565b6108e8602083018561055d565b6108f5604083018461054e565b949350505050565b6109068161066a565b811461091157600080fd5b50565b600081519050610923816108fd565b92915050565b60006020828403121561093f5761093e6104b4565b5b600061094d84828501610914565b91505092915050565b600060808201905061096b600083018761054e565b610978602083018661054e565b610985604083018561054e565b610992606083018461080f565b9594505050505056fea264697066735822122061b3854a73a1ba014c174ec3172454b561027cce1bdc96ca6787312da84ff0d764736f6c63430008100033","opcodes":"PUSH1 0x80 PUSH1 0x40 MSTORE CALLVALUE DUP1 ISZERO PUSH3 0x11 JUMPI PUSH1 0x0 DUP1 REVERT JUMPDEST POP PUSH1 0x40 MLOAD PUSH3 0xFFB CODESIZE SUB DUP1 PUSH3 0xFFB DUP4 CODECOPY DUP2 DUP2 ADD PUSH1 0x40 MSTORE DUP2 ADD SWAP1 PUSH3 0x37 SWAP2 SWAP1 PUSH3 0x46F JUMP JUMPDEST DUP10 PUSH1 0x2 PUSH1 0x0 PUSH2 0x100 EXP DUP2 SLOAD DUP2 PUSH20 0xFFFFFFFFFFFFFFFFFFFFFFFFFFFFFFFFFFFFFFFF MUL NOT AND SWAP1 DUP4 PUSH20 0xFFFFFFFFFFFFFFFFFFFFFFFFFFFFFFFFFFFFFFFF AND MUL OR SWAP1 SSTORE POP DUP9 PUSH1 0x3 PUSH1 0x0 PUSH2 0x100 EXP DUP2 SLOAD DUP2 PUSH20 0xFFFFFFFFFFFFFFFFFFFFFFFFFFFFFFFFFFFFFFFF MUL NOT AND SWAP1 DUP4 PUSH20 0xFFFFFFFFFFFFFFFFFFFFFFFFFFFFFFFFFFFFFFFF AND MUL OR SWAP1 SSTORE POP DUP8 PUSH1 0x4 PUSH1 0x0 PUSH2 0x100 EXP DUP2 SLOAD DUP2 PUSH20 0xFFFFFFFFFFFFFFFFFFFFFFFFFFFFFFFFFFFFFFFF MUL NOT AND SWAP1 DUP4 PUSH20 0xFFFFFFFFFFFFFFFFFFFFFFFFFFFFFFFFFFFFFFFF AND MUL OR SWAP1 SSTORE POP DUP7 PUSH1 0x5 PUSH1 0x0 PUSH2 0x100 EXP DUP2 SLOAD DUP2 PUSH20 0xFFFFFFFFFFFFFFFFFFFFFFFFFFFFFFFFFFFFFFFF MUL NOT AND SWAP1 DUP4 PUSH20 0xFFFFFFFFFFFFFFFFFFFFFFFFFFFFFFFFFFFFFFFF AND MUL OR SWAP1 SSTORE POP DUP4 PUSH1 0x5 PUSH1 0x15 PUSH2 0x100 EXP DUP2 SLOAD DUP2 PUSH2 0xFFFF MUL NOT AND SWAP1 DUP4 PUSH2 0xFFFF AND MUL OR SWAP1 SSTORE POP DUP3 PUSH1 0x6 DUP2 SWAP1 SSTORE POP DUP5 PUSH1 0x5 PUSH1 0x14 PUSH2 0x100 EXP DUP2 SLOAD DUP2 PUSH1 0xFF MUL NOT AND SWAP1 DUP4 ISZERO ISZERO MUL OR SWAP1 SSTORE POP DUP2 PUSH1 0x7 DUP2 SWAP1 SSTORE POP DUP1 PUSH1 0x8 DUP2 SWAP1 SSTORE POP PUSH1 0x3 PUSH1 0x0 SWAP1 SLOAD SWAP1 PUSH2 0x100 EXP SWAP1 DIV PUSH20 0xFFFFFFFFFFFFFFFFFFFFFFFFFFFFFFFFFFFFFFFF AND PUSH20 0xFFFFFFFFFFFFFFFFFFFFFFFFFFFFFFFFFFFFFFFF AND PUSH4 0x95EA7B3 DUP9 PUSH32 0xFFFFFFFFFFFFFFFFFFFFFFFFFFFFFFFFFFFFFFFFFFFFFFFFFFFFFFFFFFFFFFFF PUSH1 0x40 MLOAD DUP4 PUSH4 0xFFFFFFFF AND PUSH1 0xE0 SHL DUP2 MSTORE PUSH1 0x4 ADD PUSH3 0x206 SWAP3 SWAP2 SWAP1 PUSH3 0x59E JUMP JUMPDEST PUSH1 0x20 PUSH1 0x40 MLOAD DUP1 DUP4 SUB DUP2 PUSH1 0x0 DUP8 GAS CALL ISZERO DUP1 ISZERO PUSH3 0x226 JUMPI RETURNDATASIZE PUSH1 0x0 DUP1 RETURNDATACOPY RETURNDATASIZE PUSH1 0x0 REVERT JUMPDEST POP POP POP POP PUSH1 0x40 MLOAD RETURNDATASIZE PUSH1 0x1F NOT PUSH1 0x1F DUP3 ADD AND DUP3 ADD DUP1 PUSH1 0x40 MSTORE POP DUP2 ADD SWAP1 PUSH3 0x24C SWAP2 SWAP1 PUSH3 0x5CB JUMP JUMPDEST POP DUP6 PUSH1 0x1 PUSH1 0x0 PUSH2 0x100 EXP DUP2 SLOAD DUP2 PUSH20 0xFFFFFFFFFFFFFFFFFFFFFFFFFFFFFFFFFFFFFFFF MUL NOT AND SWAP1 DUP4 PUSH20 0xFFFFFFFFFFFFFFFFFFFFFFFFFFFFFFFFFFFFFFFF AND MUL OR SWAP1 SSTORE POP DUP7 PUSH1 0x0 DUP1 PUSH2 0x100 EXP DUP2 SLOAD DUP2 PUSH20 0xFFFFFFFFFFFFFFFFFFFFFFFFFFFFFFFFFFFFFFFF MUL NOT AND SWAP1 DUP4 PUSH20 0xFFFFFFFFFFFFFFFFFFFFFFFFFFFFFFFFFFFFFFFF AND MUL OR SWAP1 SSTORE POP DUP11 PUSH20 0xFFFFFFFFFFFFFFFFFFFFFFFFFFFFFFFFFFFFFFFF AND PUSH4 0x9538BC1F ADDRESS PUSH1 0x40 MLOAD DUP3 PUSH4 0xFFFFFFFF AND PUSH1 0xE0 SHL DUP2 MSTORE PUSH1 0x4 ADD PUSH3 0x309 SWAP2 SWAP1 PUSH3 0x5FD JUMP JUMPDEST PUSH1 0x0 PUSH1 0x40 MLOAD DUP1 DUP4 SUB DUP2 PUSH1 0x0 DUP8 DUP1 EXTCODESIZE ISZERO DUP1 ISZERO PUSH3 0x324 JUMPI PUSH1 0x0 DUP1 REVERT JUMPDEST POP GAS CALL ISZERO DUP1 ISZERO PUSH3 0x339 JUMPI RETURNDATASIZE PUSH1 0x0 DUP1 RETURNDATACOPY RETURNDATASIZE PUSH1 0x0 REVERT JUMPDEST POP POP POP POP POP POP POP POP POP POP POP POP POP POP POP PUSH3 0x61A JUMP JUMPDEST PUSH1 0x0 DUP1 REVERT JUMPDEST PUSH1 0x0 PUSH20 0xFFFFFFFFFFFFFFFFFFFFFFFFFFFFFFFFFFFFFFFF DUP3 AND SWAP1 POP SWAP2 SWAP1 POP JUMP JUMPDEST PUSH1 0x0 PUSH3 0x380 DUP3 PUSH3 0x353 JUMP JUMPDEST SWAP1 POP SWAP2 SWAP1 POP JUMP JUMPDEST PUSH3 0x392 DUP2 PUSH3 0x373 JUMP JUMPDEST DUP2 EQ PUSH3 0x39E JUMPI PUSH1 0x0 DUP1 REVERT JUMPDEST POP JUMP JUMPDEST PUSH1 0x0 DUP2 MLOAD SWAP1 POP PUSH3 0x3B2 DUP2 PUSH3 0x387 JUMP JUMPDEST SWAP3 SWAP2 POP POP JUMP JUMPDEST PUSH1 0x0 DUP2 ISZERO ISZERO SWAP1 POP SWAP2 SWAP1 POP JUMP JUMPDEST PUSH3 0x3CF DUP2 PUSH3 0x3B8 JUMP JUMPDEST DUP2 EQ PUSH3 0x3DB JUMPI PUSH1 0x0 DUP1 REVERT JUMPDEST POP JUMP JUMPDEST PUSH1 0x0 DUP2 MLOAD SWAP1 POP PUSH3 0x3EF DUP2 PUSH3 0x3C4 JUMP JUMPDEST SWAP3 SWAP2 POP POP JUMP JUMPDEST PUSH1 0x0 PUSH2 0xFFFF DUP3 AND SWAP1 POP SWAP2 SWAP1 POP JUMP JUMPDEST PUSH3 0x40E DUP2 PUSH3 0x3F5 JUMP JUMPDEST DUP2 EQ PUSH3 0x41A JUMPI PUSH1 0x0 DUP1 REVERT JUMPDEST POP JUMP JUMPDEST PUSH1 0x0 DUP2 MLOAD SWAP1 POP PUSH3 0x42E DUP2 PUSH3 0x403 JUMP JUMPDEST SWAP3 SWAP2 POP POP JUMP JUMPDEST PUSH1 0x0 DUP2 SWAP1 POP SWAP2 SWAP1 POP JUMP JUMPDEST PUSH3 0x449 DUP2 PUSH3 0x434 JUMP JUMPDEST DUP2 EQ PUSH3 0x455 JUMPI PUSH1 0x0 DUP1 REVERT JUMPDEST POP JUMP JUMPDEST PUSH1 0x0 DUP2 MLOAD SWAP1 POP PUSH3 0x469 DUP2 PUSH3 0x43E JUMP JUMPDEST SWAP3 SWAP2 POP POP JUMP JUMPDEST PUSH1 0x0 DUP1 PUSH1 0x0 DUP1 PUSH1 0x0 DUP1 PUSH1 0x0 DUP1 PUSH1 0x0 DUP1 PUSH1 0x0 PUSH2 0x160 DUP13 DUP15 SUB SLT ISZERO PUSH3 0x498 JUMPI PUSH3 0x497 PUSH3 0x34E JUMP JUMPDEST JUMPDEST PUSH1 0x0 PUSH3 0x4A8 DUP15 DUP3 DUP16 ADD PUSH3 0x3A1 JUMP JUMPDEST SWAP12 POP POP PUSH1 0x20 PUSH3 0x4BB DUP15 DUP3 DUP16 ADD PUSH3 0x3A1 JUMP JUMPDEST SWAP11 POP POP PUSH1 0x40 PUSH3 0x4CE DUP15 DUP3 DUP16 ADD PUSH3 0x3A1 JUMP JUMPDEST SWAP10 POP POP PUSH1 0x60 PUSH3 0x4E1 DUP15 DUP3 DUP16 ADD PUSH3 0x3A1 JUMP JUMPDEST SWAP9 POP POP PUSH1 0x80 PUSH3 0x4F4 DUP15 DUP3 DUP16 ADD PUSH3 0x3A1 JUMP JUMPDEST SWAP8 POP POP PUSH1 0xA0 PUSH3 0x507 DUP15 DUP3 DUP16 ADD PUSH3 0x3A1 JUMP JUMPDEST SWAP7 POP POP PUSH1 0xC0 PUSH3 0x51A DUP15 DUP3 DUP16 ADD PUSH3 0x3DE JUMP JUMPDEST SWAP6 POP POP PUSH1 0xE0 PUSH3 0x52D DUP15 DUP3 DUP16 ADD PUSH3 0x41D JUMP JUMPDEST SWAP5 POP POP PUSH2 0x100 PUSH3 0x541 DUP15 DUP3 DUP16 ADD PUSH3 0x458 JUMP JUMPDEST SWAP4 POP POP PUSH2 0x120 PUSH3 0x555 DUP15 DUP3 DUP16 ADD PUSH3 0x458 JUMP JUMPDEST SWAP3 POP POP PUSH2 0x140 PUSH3 0x569 DUP15 DUP3 DUP16 ADD PUSH3 0x458 JUMP JUMPDEST SWAP2 POP POP SWAP3 SWAP6 SWAP9 SWAP12 POP SWAP3 SWAP6 SWAP9 SWAP12 SWAP1 SWAP4 SWAP7 SWAP10 POP JUMP JUMPDEST PUSH3 0x587 DUP2 PUSH3 0x373 JUMP JUMPDEST DUP3 MSTORE POP POP JUMP JUMPDEST PUSH3 0x598 DUP2 PUSH3 0x434 JUMP JUMPDEST DUP3 MSTORE POP POP JUMP JUMPDEST PUSH1 0x0 PUSH1 0x40 DUP3 ADD SWAP1 POP PUSH3 0x5B5 PUSH1 0x0 DUP4 ADD DUP6 PUSH3 0x57C JUMP JUMPDEST PUSH3 0x5C4 PUSH1 0x20 DUP4 ADD DUP5 PUSH3 0x58D JUMP JUMPDEST SWAP4 SWAP3 POP POP POP JUMP JUMPDEST PUSH1 0x0 PUSH1 0x20 DUP3 DUP5 SUB SLT ISZERO PUSH3 0x5E4 JUMPI PUSH3 0x5E3 PUSH3 0x34E JUMP JUMPDEST JUMPDEST PUSH1 0x0 PUSH3 0x5F4 DUP5 DUP3 DUP6 ADD PUSH3 0x3DE JUMP JUMPDEST SWAP2 POP POP SWAP3 SWAP2 POP POP JUMP JUMPDEST PUSH1 0x0 PUSH1 0x20 DUP3 ADD SWAP1 POP PUSH3 0x614 PUSH1 0x0 DUP4 ADD DUP5 PUSH3 0x57C JUMP JUMPDEST SWAP3 SWAP2 POP POP JUMP JUMPDEST PUSH2 0x9D1 DUP1 PUSH3 0x62A PUSH1 0x0 CODECOPY PUSH1 0x0 RETURN INVALID PUSH1 0x80 PUSH1 0x40 MSTORE CALLVALUE DUP1 ISZERO PUSH2 0x10 JUMPI PUSH1 0x0 DUP1 REVERT JUMPDEST POP PUSH1 0x4 CALLDATASIZE LT PUSH2 0x7D JUMPI PUSH1 0x0 CALLDATALOAD PUSH1 0xE0 SHR DUP1 PUSH4 0x961BE391 GT PUSH2 0x5B JUMPI DUP1 PUSH4 0x961BE391 EQ PUSH2 0xEC JUMPI DUP1 PUSH4 0xB6B55F25 EQ PUSH2 0x10A JUMPI DUP1 PUSH4 0xEAEE9115 EQ PUSH2 0x126 JUMPI DUP1 PUSH4 0xFBBF93A0 EQ PUSH2 0x142 JUMPI PUSH2 0x7D JUMP JUMPDEST DUP1 PUSH4 0x1E7BE210 EQ PUSH2 0x82 JUMPI DUP1 PUSH4 0x2E1A7D4D EQ PUSH2 0xB4 JUMPI DUP1 PUSH4 0x454A2AB3 EQ PUSH2 0xD0 JUMPI JUMPDEST PUSH1 0x0 DUP1 REVERT JUMPDEST PUSH2 0x9C PUSH1 0x4 DUP1 CALLDATASIZE SUB DUP2 ADD SWAP1 PUSH2 0x97 SWAP2 SWAP1 PUSH2 0x517 JUMP JUMPDEST PUSH2 0x165 JUMP JUMPDEST PUSH1 0x40 MLOAD PUSH2 0xAB SWAP4 SWAP3 SWAP2 SWAP1 PUSH2 0x56C JUMP JUMPDEST PUSH1 0x40 MLOAD DUP1 SWAP2 SUB SWAP1 RETURN JUMPDEST PUSH2 0xCE PUSH1 0x4 DUP1 CALLDATASIZE SUB DUP2 ADD SWAP1 PUSH2 0xC9 SWAP2 SWAP1 PUSH2 0x5CF JUMP JUMPDEST PUSH2 0x1AF JUMP JUMPDEST STOP JUMPDEST PUSH2 0xEA PUSH1 0x4 DUP1 CALLDATASIZE SUB DUP2 ADD SWAP1 PUSH2 0xE5 SWAP2 SWAP1 PUSH2 0x5CF JUMP JUMPDEST PUSH2 0x242 JUMP JUMPDEST STOP JUMPDEST PUSH2 0xF4 PUSH2 0x2DC JUMP JUMPDEST PUSH1 0x40 MLOAD PUSH2 0x101 SWAP2 SWAP1 PUSH2 0x5FC JUMP JUMPDEST PUSH1 0x40 MLOAD DUP1 SWAP2 SUB SWAP1 RETURN JUMPDEST PUSH2 0x124 PUSH1 0x4 DUP1 CALLDATASIZE SUB DUP2 ADD SWAP1 PUSH2 0x11F SWAP2 SWAP1 PUSH2 0x5CF JUMP JUMPDEST PUSH2 0x2E2 JUMP JUMPDEST STOP JUMPDEST PUSH2 0x140 PUSH1 0x4 DUP1 CALLDATASIZE SUB DUP2 ADD SWAP1 PUSH2 0x13B SWAP2 SWAP1 PUSH2 0x617 JUMP JUMPDEST PUSH2 0x3A1 JUMP JUMPDEST STOP JUMPDEST PUSH2 0x14A PUSH2 0x438 JUMP JUMPDEST PUSH1 0x40 MLOAD PUSH2 0x15C SWAP7 SWAP6 SWAP5 SWAP4 SWAP3 SWAP2 SWAP1 PUSH2 0x685 JUMP JUMPDEST PUSH1 0x40 MLOAD DUP1 SWAP2 SUB SWAP1 RETURN JUMPDEST PUSH1 0xB PUSH1 0x20 MSTORE DUP1 PUSH1 0x0 MSTORE PUSH1 0x40 PUSH1 0x0 KECCAK256 PUSH1 0x0 SWAP2 POP SWAP1 POP DUP1 PUSH1 0x0 ADD SLOAD SWAP1 DUP1 PUSH1 0x1 ADD SLOAD SWAP1 DUP1 PUSH1 0x2 ADD PUSH1 0x0 SWAP1 SLOAD SWAP1 PUSH2 0x100 EXP SWAP1 DIV PUSH20 0xFFFFFFFFFFFFFFFFFFFFFFFFFFFFFFFFFFFFFFFF AND SWAP1 POP DUP4 JUMP JUMPDEST PUSH1 0x2 PUSH1 0x0 SWAP1 SLOAD SWAP1 PUSH2 0x100 EXP SWAP1 DIV PUSH20 0xFFFFFFFFFFFFFFFFFFFFFFFFFFFFFFFFFFFFFFFF AND PUSH20 0xFFFFFFFFFFFFFFFFFFFFFFFFFFFFFFFFFFFFFFFF AND CALLER PUSH20 0xFFFFFFFFFFFFFFFFFFFFFFFFFFFFFFFFFFFFFFFF AND EQ PUSH2 0x23F JUMPI PUSH1 0x40 MLOAD PUSH32 0x8C379A000000000000000000000000000000000000000000000000000000000 DUP2 MSTORE PUSH1 0x4 ADD PUSH2 0x236 SWAP1 PUSH2 0x743 JUMP JUMPDEST PUSH1 0x40 MLOAD DUP1 SWAP2 SUB SWAP1 REVERT JUMPDEST POP JUMP JUMPDEST PUSH1 0x5 PUSH1 0x0 SWAP1 SLOAD SWAP1 PUSH2 0x100 EXP SWAP1 DIV PUSH20 0xFFFFFFFFFFFFFFFFFFFFFFFFFFFFFFFFFFFFFFFF AND PUSH20 0xFFFFFFFFFFFFFFFFFFFFFFFFFFFFFFFFFFFFFFFF AND PUSH4 0x34E40B2E DUP3 PUSH2 0x61A8 PUSH1 0x14 PUSH1 0x0 PUSH1 0x40 MLOAD DUP6 PUSH4 0xFFFFFFFF AND PUSH1 0xE0 SHL DUP2 MSTORE PUSH1 0x4 ADD PUSH2 0x2A7 SWAP5 SWAP4 SWAP3 SWAP2 SWAP1 PUSH2 0x81E JUMP JUMPDEST PUSH1 0x0 PUSH1 0x40 MLOAD DUP1 DUP4 SUB DUP2 PUSH1 0x0 DUP8 DUP1 EXTCODESIZE ISZERO DUP1 ISZERO PUSH2 0x2C1 JUMPI PUSH1 0x0 DUP1 REVERT JUMPDEST POP GAS CALL ISZERO DUP1 ISZERO PUSH2 0x2D5 JUMPI RETURNDATASIZE PUSH1 0x0 DUP1 RETURNDATACOPY RETURNDATASIZE PUSH1 0x0 REVERT JUMPDEST POP POP POP POP POP JUMP JUMPDEST PUSH1 0xA SLOAD DUP2 JUMP JUMPDEST DUP1 PUSH1 0xA PUSH1 0x0 DUP3 DUP3 SLOAD PUSH2 0x2F4 SWAP2 SWAP1 PUSH2 0x892 JUMP JUMPDEST SWAP3 POP POP DUP2 SWAP1 SSTORE POP PUSH1 0x3 PUSH1 0x0 SWAP1 SLOAD SWAP1 PUSH2 0x100 EXP SWAP1 DIV PUSH20 0xFFFFFFFFFFFFFFFFFFFFFFFFFFFFFFFFFFFFFFFF AND PUSH20 0xFFFFFFFFFFFFFFFFFFFFFFFFFFFFFFFFFFFFFFFF AND PUSH4 0x23B872DD CALLER ADDRESS DUP5 PUSH1 0x40 MLOAD DUP5 PUSH4 0xFFFFFFFF AND PUSH1 0xE0 SHL DUP2 MSTORE PUSH1 0x4 ADD PUSH2 0x35A SWAP4 SWAP3 SWAP2 SWAP1 PUSH2 0x8C6 JUMP JUMPDEST PUSH1 0x20 PUSH1 0x40 MLOAD DUP1 DUP4 SUB DUP2 PUSH1 0x0 DUP8 GAS CALL ISZERO DUP1 ISZERO PUSH2 0x379 JUMPI RETURNDATASIZE PUSH1 0x0 DUP1 RETURNDATACOPY RETURNDATASIZE PUSH1 0x0 REVERT JUMPDEST POP POP POP POP PUSH1 0x40 MLOAD RETURNDATASIZE PUSH1 0x1F NOT PUSH1 0x1F DUP3 ADD AND DUP3 ADD DUP1 PUSH1 0x40 MSTORE POP DUP2 ADD SWAP1 PUSH2 0x39D SWAP2 SWAP1 PUSH2 0x929 JUMP JUMPDEST POP POP JUMP JUMPDEST PUSH1 0x0 DUP1 SLOAD SWAP1 PUSH2 0x100 EXP SWAP1 DIV PUSH20 0xFFFFFFFFFFFFFFFFFFFFFFFFFFFFFFFFFFFFFFFF AND PUSH20 0xFFFFFFFFFFFFFFFFFFFFFFFFFFFFFFFFFFFFFFFF AND PUSH4 0x34E40B2E DUP5 DUP5 DUP5 PUSH1 0x0 PUSH1 0x40 MLOAD DUP6 PUSH4 0xFFFFFFFF AND PUSH1 0xE0 SHL DUP2 MSTORE PUSH1 0x4 ADD PUSH2 0x401 SWAP5 SWAP4 SWAP3 SWAP2 SWAP1 PUSH2 0x956 JUMP JUMPDEST PUSH1 0x0 PUSH1 0x40 MLOAD DUP1 DUP4 SUB DUP2 PUSH1 0x0 DUP8 DUP1 EXTCODESIZE ISZERO DUP1 ISZERO PUSH2 0x41B JUMPI PUSH1 0x0 DUP1 REVERT JUMPDEST POP GAS CALL ISZERO DUP1 ISZERO PUSH2 0x42F JUMPI RETURNDATASIZE PUSH1 0x0 DUP1 RETURNDATACOPY RETURNDATASIZE PUSH1 0x0 REVERT JUMPDEST POP POP POP POP POP POP POP JUMP JUMPDEST PUSH1 0x0 DUP1 PUSH1 0x0 DUP1 PUSH1 0x0 DUP1 PUSH1 0x2 PUSH1 0x0 SWAP1 SLOAD SWAP1 PUSH2 0x100 EXP SWAP1 DIV PUSH20 0xFFFFFFFFFFFFFFFFFFFFFFFFFFFFFFFFFFFFFFFF AND PUSH1 0x3 PUSH1 0x0 SWAP1 SLOAD SWAP1 PUSH2 0x100 EXP SWAP1 DIV PUSH20 0xFFFFFFFFFFFFFFFFFFFFFFFFFFFFFFFFFFFFFFFF AND PUSH1 0x6 SLOAD PUSH1 0x7 SLOAD PUSH1 0x8 SLOAD PUSH1 0x5 PUSH1 0x14 SWAP1 SLOAD SWAP1 PUSH2 0x100 EXP SWAP1 DIV PUSH1 0xFF AND SWAP6 POP SWAP6 POP SWAP6 POP SWAP6 POP SWAP6 POP SWAP6 POP SWAP1 SWAP2 SWAP3 SWAP4 SWAP5 SWAP6 JUMP JUMPDEST PUSH1 0x0 DUP1 REVERT JUMPDEST PUSH1 0x0 PUSH20 0xFFFFFFFFFFFFFFFFFFFFFFFFFFFFFFFFFFFFFFFF DUP3 AND SWAP1 POP SWAP2 SWAP1 POP JUMP JUMPDEST PUSH1 0x0 PUSH2 0x4E4 DUP3 PUSH2 0x4B9 JUMP JUMPDEST SWAP1 POP SWAP2 SWAP1 POP JUMP JUMPDEST PUSH2 0x4F4 DUP2 PUSH2 0x4D9 JUMP JUMPDEST DUP2 EQ PUSH2 0x4FF JUMPI PUSH1 0x0 DUP1 REVERT JUMPDEST POP JUMP JUMPDEST PUSH1 0x0 DUP2 CALLDATALOAD SWAP1 POP PUSH2 0x511 DUP2 PUSH2 0x4EB JUMP JUMPDEST SWAP3 SWAP2 POP POP JUMP JUMPDEST PUSH1 0x0 PUSH1 0x20 DUP3 DUP5 SUB SLT ISZERO PUSH2 0x52D JUMPI PUSH2 0x52C PUSH2 0x4B4 JUMP JUMPDEST JUMPDEST PUSH1 0x0 PUSH2 0x53B DUP5 DUP3 DUP6 ADD PUSH2 0x502 JUMP JUMPDEST SWAP2 POP POP SWAP3 SWAP2 POP POP JUMP JUMPDEST PUSH1 0x0 DUP2 SWAP1 POP SWAP2 SWAP1 POP JUMP JUMPDEST PUSH2 0x557 DUP2 PUSH2 0x544 JUMP JUMPDEST DUP3 MSTORE POP POP JUMP JUMPDEST PUSH2 0x566 DUP2 PUSH2 0x4D9 JUMP JUMPDEST DUP3 MSTORE POP POP JUMP JUMPDEST PUSH1 0x0 PUSH1 0x60 DUP3 ADD SWAP1 POP PUSH2 0x581 PUSH1 0x0 DUP4 ADD DUP7 PUSH2 0x54E JUMP JUMPDEST PUSH2 0x58E PUSH1 0x20 DUP4 ADD DUP6 PUSH2 0x54E JUMP JUMPDEST PUSH2 0x59B PUSH1 0x40 DUP4 ADD DUP5 PUSH2 0x55D JUMP JUMPDEST SWAP5 SWAP4 POP POP POP POP JUMP JUMPDEST PUSH2 0x5AC DUP2 PUSH2 0x544 JUMP JUMPDEST DUP2 EQ PUSH2 0x5B7 JUMPI PUSH1 0x0 DUP1 REVERT JUMPDEST POP JUMP JUMPDEST PUSH1 0x0 DUP2 CALLDATALOAD SWAP1 POP PUSH2 0x5C9 DUP2 PUSH2 0x5A3 JUMP JUMPDEST SWAP3 SWAP2 POP POP JUMP JUMPDEST PUSH1 0x0 PUSH1 0x20 DUP3 DUP5 SUB SLT ISZERO PUSH2 0x5E5 JUMPI PUSH2 0x5E4 PUSH2 0x4B4 JUMP JUMPDEST JUMPDEST PUSH1 0x0 PUSH2 0x5F3 DUP5 DUP3 DUP6 ADD PUSH2 0x5BA JUMP JUMPDEST SWAP2 POP POP SWAP3 SWAP2 POP POP JUMP JUMPDEST PUSH1 0x0 PUSH1 0x20 DUP3 ADD SWAP1 POP PUSH2 0x611 PUSH1 0x0 DUP4 ADD DUP5 PUSH2 0x54E JUMP JUMPDEST SWAP3 SWAP2 POP POP JUMP JUMPDEST PUSH1 0x0 DUP1 PUSH1 0x0 PUSH1 0x60 DUP5 DUP7 SUB SLT ISZERO PUSH2 0x630 JUMPI PUSH2 0x62F PUSH2 0x4B4 JUMP JUMPDEST JUMPDEST PUSH1 0x0 PUSH2 0x63E DUP7 DUP3 DUP8 ADD PUSH2 0x5BA JUMP JUMPDEST SWAP4 POP POP PUSH1 0x20 PUSH2 0x64F DUP7 DUP3 DUP8 ADD PUSH2 0x5BA JUMP JUMPDEST SWAP3 POP POP PUSH1 0x40 PUSH2 0x660 DUP7 DUP3 DUP8 ADD PUSH2 0x5BA JUMP JUMPDEST SWAP2 POP POP SWAP3 POP SWAP3 POP SWAP3 JUMP JUMPDEST PUSH1 0x0 DUP2 ISZERO ISZERO SWAP1 POP SWAP2 SWAP1 POP JUMP JUMPDEST PUSH2 0x67F DUP2 PUSH2 0x66A JUMP JUMPDEST DUP3 MSTORE POP POP JUMP JUMPDEST PUSH1 0x0 PUSH1 0xC0 DUP3 ADD SWAP1 POP PUSH2 0x69A PUSH1 0x0 DUP4 ADD DUP10 PUSH2 0x55D JUMP JUMPDEST PUSH2 0x6A7 PUSH1 0x20 DUP4 ADD DUP9 PUSH2 0x55D JUMP JUMPDEST PUSH2 0x6B4 PUSH1 0x40 DUP4 ADD DUP8 PUSH2 0x54E JUMP JUMPDEST PUSH2 0x6C1 PUSH1 0x60 DUP4 ADD DUP7 PUSH2 0x54E JUMP JUMPDEST PUSH2 0x6CE PUSH1 0x80 DUP4 ADD DUP6 PUSH2 0x54E JUMP JUMPDEST PUSH2 0x6DB PUSH1 0xA0 DUP4 ADD DUP5 PUSH2 0x676 JUMP JUMPDEST SWAP8 SWAP7 POP POP POP POP POP POP POP JUMP JUMPDEST PUSH1 0x0 DUP3 DUP3 MSTORE PUSH1 0x20 DUP3 ADD SWAP1 POP SWAP3 SWAP2 POP POP JUMP JUMPDEST PUSH32 0x426173654269643A206E6F74206F776E65720000000000000000000000000000 PUSH1 0x0 DUP3 ADD MSTORE POP JUMP JUMPDEST PUSH1 0x0 PUSH2 0x72D PUSH1 0x12 DUP4 PUSH2 0x6E6 JUMP JUMPDEST SWAP2 POP PUSH2 0x738 DUP3 PUSH2 0x6F7 JUMP JUMPDEST PUSH1 0x20 DUP3 ADD SWAP1 POP SWAP2 SWAP1 POP JUMP JUMPDEST PUSH1 0x0 PUSH1 0x20 DUP3 ADD SWAP1 POP DUP2 DUP2 SUB PUSH1 0x0 DUP4 ADD MSTORE PUSH2 0x75C DUP2 PUSH2 0x720 JUMP JUMPDEST SWAP1 POP SWAP2 SWAP1 POP JUMP JUMPDEST PUSH1 0x0 DUP2 SWAP1 POP SWAP2 SWAP1 POP JUMP JUMPDEST PUSH1 0x0 DUP2 SWAP1 POP SWAP2 SWAP1 POP JUMP JUMPDEST PUSH1 0x0 PUSH2 0x792 PUSH2 0x78D PUSH2 0x788 DUP5 PUSH2 0x763 JUMP JUMPDEST PUSH2 0x76D JUMP JUMPDEST PUSH2 0x544 JUMP JUMPDEST SWAP1 POP SWAP2 SWAP1 POP JUMP JUMPDEST PUSH2 0x7A2 DUP2 PUSH2 0x777 JUMP JUMPDEST DUP3 MSTORE POP POP JUMP JUMPDEST PUSH1 0x0 DUP2 SWAP1 POP SWAP2 SWAP1 POP JUMP JUMPDEST PUSH1 0x0 PUSH2 0x7CD PUSH2 0x7C8 PUSH2 0x7C3 DUP5 PUSH2 0x7A8 JUMP JUMPDEST PUSH2 0x76D JUMP JUMPDEST PUSH2 0x544 JUMP JUMPDEST SWAP1 POP SWAP2 SWAP1 POP JUMP JUMPDEST PUSH2 0x7DD DUP2 PUSH2 0x7B2 JUMP JUMPDEST DUP3 MSTORE POP POP JUMP JUMPDEST PUSH1 0x0 DUP2 SWAP1 POP SWAP2 SWAP1 POP JUMP JUMPDEST PUSH1 0x0 PUSH2 0x808 PUSH2 0x803 PUSH2 0x7FE DUP5 PUSH2 0x7E3 JUMP JUMPDEST PUSH2 0x76D JUMP JUMPDEST PUSH2 0x544 JUMP JUMPDEST SWAP1 POP SWAP2 SWAP1 POP JUMP JUMPDEST PUSH2 0x818 DUP2 PUSH2 0x7ED JUMP JUMPDEST DUP3 MSTORE POP POP JUMP JUMPDEST PUSH1 0x0 PUSH1 0x80 DUP3 ADD SWAP1 POP PUSH2 0x833 PUSH1 0x0 DUP4 ADD DUP8 PUSH2 0x54E JUMP JUMPDEST PUSH2 0x840 PUSH1 0x20 DUP4 ADD DUP7 PUSH2 0x799 JUMP JUMPDEST PUSH2 0x84D PUSH1 0x40 DUP4 ADD DUP6 PUSH2 0x7D4 JUMP JUMPDEST PUSH2 0x85A PUSH1 0x60 DUP4 ADD DUP5 PUSH2 0x80F JUMP JUMPDEST SWAP6 SWAP5 POP POP POP POP POP JUMP JUMPDEST PUSH32 0x4E487B7100000000000000000000000000000000000000000000000000000000 PUSH1 0x0 MSTORE PUSH1 0x11 PUSH1 0x4 MSTORE PUSH1 0x24 PUSH1 0x0 REVERT JUMPDEST PUSH1 0x0 PUSH2 0x89D DUP3 PUSH2 0x544 JUMP JUMPDEST SWAP2 POP PUSH2 0x8A8 DUP4 PUSH2 0x544 JUMP JUMPDEST SWAP3 POP DUP3 DUP3 ADD SWAP1 POP DUP1 DUP3 GT ISZERO PUSH2 0x8C0 JUMPI PUSH2 0x8BF PUSH2 0x863 JUMP JUMPDEST JUMPDEST SWAP3 SWAP2 POP POP JUMP JUMPDEST PUSH1 0x0 PUSH1 0x60 DUP3 ADD SWAP1 POP PUSH2 0x8DB PUSH1 0x0 DUP4 ADD DUP7 PUSH2 0x55D JUMP JUMPDEST PUSH2 0x8E8 PUSH1 0x20 DUP4 ADD DUP6 PUSH2 0x55D JUMP JUMPDEST PUSH2 0x8F5 PUSH1 0x40 DUP4 ADD DUP5 PUSH2 0x54E JUMP JUMPDEST SWAP5 SWAP4 POP POP POP POP JUMP JUMPDEST PUSH2 0x906 DUP2 PUSH2 0x66A JUMP JUMPDEST DUP2 EQ PUSH2 0x911 JUMPI PUSH1 0x0 DUP1 REVERT JUMPDEST POP JUMP JUMPDEST PUSH1 0x0 DUP2 MLOAD SWAP1 POP PUSH2 0x923 DUP2 PUSH2 0x8FD JUMP JUMPDEST SWAP3 SWAP2 POP POP JUMP JUMPDEST PUSH1 0x0 PUSH1 0x20 DUP3 DUP5 SUB SLT ISZERO PUSH2 0x93F JUMPI PUSH2 0x93E PUSH2 0x4B4 JUMP JUMPDEST JUMPDEST PUSH1 0x0 PUSH2 0x94D DUP5 DUP3 DUP6 ADD PUSH2 0x914 JUMP JUMPDEST SWAP2 POP POP SWAP3 SWAP2 POP POP JUMP JUMPDEST PUSH1 0x0 PUSH1 0x80 DUP3 ADD SWAP1 POP PUSH2 0x96B PUSH1 0x0 DUP4 ADD DUP8 PUSH2 0x54E JUMP JUMPDEST PUSH2 0x978 PUSH1 0x20 DUP4 ADD DUP7 PUSH2 0x54E JUMP JUMPDEST PUSH2 0x985 PUSH1 0x40 DUP4 ADD DUP6 PUSH2 0x54E JUMP JUMPDEST PUSH2 0x992 PUSH1 0x60 DUP4 ADD DUP5 PUSH2 0x80F JUMP JUMPDEST SWAP6 SWAP5 POP POP POP POP POP JUMP INVALID LOG2 PUSH5 0x6970667358 0x22 SLT KECCAK256 PUSH2 0xB385 0x4A PUSH20 0xA1BA014C174EC3172454B561027CCE1BDC96CA67 DUP8 BALANCE 0x2D 0xA8 0x4F CREATE 0xD7 PUSH5 0x736F6C6343 STOP ADDMOD LT STOP CALLER "},"methodIdentifiers":{"bid(uint256)":"454a2ab3","bidWithParams(uint256,uint256,uint256)":"eaee9115","cash()":"961be391","deposit(uint256)":"b6b55f25","getDetails()":"fbbf93a0","whitelists(address)":"1e7be210","withdraw(uint256)":"2e1a7d4d"}}}}}