{
  "_format": "hh-sol-artifact-1",
  "contractName": "USDC",
  "sourceName": "contracts/USDC.sol",
  "abi": [
    {
      "inputs": [
        {
          "internalType": "uint256",
          "name": "initialSupply",
          "type": "uint256"
        }
      ],
      "stateMutability": "nonpayable",
      "type": "constructor"
    },
    {
      "anonymous": false,
      "inputs": [
        {
          "indexed": true,
          "internalType": "address",
          "name": "owner",
          "type": "address"
        },
        {
          "indexed": true,
          "internalType": "address",
          "name": "spender",
          "type": "address"
        },
        {
          "indexed": false,
          "internalType": "uint256",
          "name": "value",
          "type": "uint256"
        }
      ],
      "name": "Approval",
      "type": "event"
    },
    {
      "anonymous": false,
      "inputs": [
        {
          "indexed": true,
          "internalType": "address",
          "name": "from",
          "type": "address"
        },
        {
          "indexed": true,
          "internalType": "address",
          "name": "to",
          "type": "address"
        },
        {
          "indexed": false,
          "internalType": "uint256",
          "name": "value",
          "type": "uint256"
        }
      ],
      "name": "Transfer",
      "type": "event"
    },
    {
      "inputs": [
        {
          "internalType": "address",
          "name": "owner",
          "type": "address"
        },
        {
          "internalType": "address",
          "name": "spender",
          "type": "address"
        }
      ],
      "name": "allowance",
      "outputs": [
        {
          "internalType": "uint256",
          "name": "",
          "type": "uint256"
        }
      ],
      "stateMutability": "view",
      "type": "function"
    },
    {
      "inputs": [
        {
          "internalType": "address",
          "name": "spender",
          "type": "address"
        },
        {
          "internalType": "uint256",
          "name": "amount",
          "type": "uint256"
        }
      ],
      "name": "approve",
      "outputs": [
        {
          "internalType": "bool",
          "name": "",
          "type": "bool"
        }
      ],
      "stateMutability": "nonpayable",
      "type": "function"
    },
    {
      "inputs": [
        {
          "internalType": "address",
          "name": "account",
          "type": "address"
        }
      ],
      "name": "balanceOf",
      "outputs": [
        {
          "internalType": "uint256",
          "name": "",
          "type": "uint256"
        }
      ],
      "stateMutability": "view",
      "type": "function"
    },
    {
      "inputs": [],
      "name": "decimals",
      "outputs": [
        {
          "internalType": "uint8",
          "name": "",
          "type": "uint8"
        }
      ],
      "stateMutability": "view",
      "type": "function"
    },
    {
      "inputs": [
        {
          "internalType": "address",
          "name": "spender",
          "type": "address"
        },
        {
          "internalType": "uint256",
          "name": "subtractedValue",
          "type": "uint256"
        }
      ],
      "name": "decreaseAllowance",
      "outputs": [
        {
          "internalType": "bool",
          "name": "",
          "type": "bool"
        }
      ],
      "stateMutability": "nonpayable",
      "type": "function"
    },
    {
      "inputs": [
        {
          "internalType": "address",
          "name": "spender",
          "type": "address"
        },
        {
          "internalType": "uint256",
          "name": "addedValue",
          "type": "uint256"
        }
      ],
      "name": "increaseAllowance",
      "outputs": [
        {
          "internalType": "bool",
          "name": "",
          "type": "bool"
        }
      ],
      "stateMutability": "nonpayable",
      "type": "function"
    },
    {
      "inputs": [],
      "name": "mint",
      "outputs": [],
      "stateMutability": "nonpayable",
      "type": "function"
    },
    {
      "inputs": [],
      "name": "name",
      "outputs": [
        {
          "internalType": "string",
          "name": "",
          "type": "string"
        }
      ],
      "stateMutability": "view",
      "type": "function"
    },
    {
      "inputs": [],
      "name": "symbol",
      "outputs": [
        {
          "internalType": "string",
          "name": "",
          "type": "string"
        }
      ],
      "stateMutability": "view",
      "type": "function"
    },
    {
      "inputs": [],
      "name": "totalSupply",
      "outputs": [
        {
          "internalType": "uint256",
          "name": "",
          "type": "uint256"
        }
      ],
      "stateMutability": "view",
      "type": "function"
    },
    {
      "inputs": [
        {
          "internalType": "address",
          "name": "to",
          "type": "address"
        },
        {
          "internalType": "uint256",
          "name": "amount",
          "type": "uint256"
        }
      ],
      "name": "transfer",
      "outputs": [
        {
          "internalType": "bool",
          "name": "",
          "type": "bool"
        }
      ],
      "stateMutability": "nonpayable",
      "type": "function"
    },
    {
      "inputs": [
        {
          "internalType": "address",
          "name": "from",
          "type": "address"
        },
        {
          "internalType": "address",
          "name": "to",
          "type": "address"
        },
        {
          "internalType": "uint256",
          "name": "amount",
          "type": "uint256"
        }
      ],
      "name": "transferFrom",
      "outputs": [
        {
          "internalType": "bool",
          "name": "",
          "type": "bool"
        }
      ],
      "stateMutability": "nonpayable",
      "type": "function"
    }
  ],
  "bytecode": "0x60806040523480156200001157600080fd5b5060405162001b7e38038062001b7e8339818101604052810190620000379190620002a4565b6040518060400160405280600481526020017f55534443000000000000000000000000000000000000000000000000000000008152506040518060400160405280600481526020017f55534443000000000000000000000000000000000000000000000000000000008152508160039081620000b4919062000546565b508060049081620000c6919062000546565b505050620000db3382620000e260201b60201c565b5062000748565b600073ffffffffffffffffffffffffffffffffffffffff168273ffffffffffffffffffffffffffffffffffffffff160362000154576040517f08c379a00000000000000000000000000000000000000000000000000000000081526004016200014b906200068e565b60405180910390fd5b62000168600083836200025a60201b60201c565b80600260008282546200017c9190620006df565b92505081905550806000808473ffffffffffffffffffffffffffffffffffffffff1673ffffffffffffffffffffffffffffffffffffffff1681526020019081526020016000206000828254620001d39190620006df565b925050819055508173ffffffffffffffffffffffffffffffffffffffff16600073ffffffffffffffffffffffffffffffffffffffff167fddf252ad1be2c89b69c2b068fc378daa952ba7f163c4a11628f55a4df523b3ef836040516200023a91906200072b565b60405180910390a362000256600083836200025f60201b60201c565b5050565b505050565b505050565b600080fd5b6000819050919050565b6200027e8162000269565b81146200028a57600080fd5b50565b6000815190506200029e8162000273565b92915050565b600060208284031215620002bd57620002bc62000264565b5b6000620002cd848285016200028d565b91505092915050565b600081519050919050565b7f4e487b7100000000000000000000000000000000000000000000000000000000600052604160045260246000fd5b7f4e487b7100000000000000000000000000000000000000000000000000000000600052602260045260246000fd5b600060028204905060018216806200035857607f821691505b6020821081036200036e576200036d62000310565b5b50919050565b60008190508160005260206000209050919050565b60006020601f8301049050919050565b600082821b905092915050565b600060088302620003d87fffffffffffffffffffffffffffffffffffffffffffffffffffffffffffffffff8262000399565b620003e4868362000399565b95508019841693508086168417925050509392505050565b6000819050919050565b600062000427620004216200041b8462000269565b620003fc565b62000269565b9050919050565b6000819050919050565b620004438362000406565b6200045b62000452826200042e565b848454620003a6565b825550505050565b600090565b6200047262000463565b6200047f81848462000438565b505050565b5b81811015620004a7576200049b60008262000468565b60018101905062000485565b5050565b601f821115620004f657620004c08162000374565b620004cb8462000389565b81016020851015620004db578190505b620004f3620004ea8562000389565b83018262000484565b50505b505050565b600082821c905092915050565b60006200051b60001984600802620004fb565b1980831691505092915050565b600062000536838362000508565b9150826002028217905092915050565b6200055182620002d6565b67ffffffffffffffff8111156200056d576200056c620002e1565b5b6200057982546200033f565b62000586828285620004ab565b600060209050601f831160018114620005be5760008415620005a9578287015190505b620005b5858262000528565b86555062000625565b601f198416620005ce8662000374565b60005b82811015620005f857848901518255600182019150602085019450602081019050620005d1565b8683101562000618578489015162000614601f89168262000508565b8355505b6001600288020188555050505b505050505050565b600082825260208201905092915050565b7f45524332303a206d696e7420746f20746865207a65726f206164647265737300600082015250565b600062000676601f836200062d565b915062000683826200063e565b602082019050919050565b60006020820190508181036000830152620006a98162000667565b9050919050565b7f4e487b7100000000000000000000000000000000000000000000000000000000600052601160045260246000fd5b6000620006ec8262000269565b9150620006f98362000269565b9250828201905080821115620007145762000713620006b0565b5b92915050565b620007258162000269565b82525050565b60006020820190506200074260008301846200071a565b92915050565b61142680620007586000396000f3fe608060405234801561001057600080fd5b50600436106100b45760003560e01c80633950935111610071578063395093511461017d57806370a08231146101ad57806395d89b41146101dd578063a457c2d7146101fb578063a9059cbb1461022b578063dd62ed3e1461025b576100b4565b806306fdde03146100b9578063095ea7b3146100d75780631249c58b1461010757806318160ddd1461011157806323b872dd1461012f578063313ce5671461015f575b600080fd5b6100c161028b565b6040516100ce9190610c97565b60405180910390f35b6100f160048036038101906100ec9190610d52565b61031d565b6040516100fe9190610dad565b60405180910390f35b61010f610340565b005b61011961034e565b6040516101269190610dd7565b60405180910390f35b61014960048036038101906101449190610df2565b610358565b6040516101569190610dad565b60405180910390f35b610167610387565b6040516101749190610e61565b60405180910390f35b61019760048036038101906101929190610d52565b610390565b6040516101a49190610dad565b60405180910390f35b6101c760048036038101906101c29190610e7c565b6103c7565b6040516101d49190610dd7565b60405180910390f35b6101e561040f565b6040516101f29190610c97565b60405180910390f35b61021560048036038101906102109190610d52565b6104a1565b6040516102229190610dad565b60405180910390f35b61024560048036038101906102409190610d52565b610518565b6040516102529190610dad565b60405180910390f35b61027560048036038101906102709190610ea9565b61053b565b6040516102829190610dd7565b60405180910390f35b60606003805461029a90610f18565b80601f01602080910402602001604051908101604052809291908181526020018280546102c690610f18565b80156103135780601f106102e857610100808354040283529160200191610313565b820191906000526020600020905b8154815290600101906020018083116102f657829003601f168201915b5050505050905090565b6000806103286105c2565b90506103358185856105ca565b600191505092915050565b61034c33612710610793565b565b6000600254905090565b6000806103636105c2565b90506103708582856108f2565b61037b85858561097e565b60019150509392505050565b60006012905090565b60008061039b6105c2565b90506103bc8185856103ad858961053b565b6103b79190610f78565b6105ca565b600191505092915050565b60008060008373ffffffffffffffffffffffffffffffffffffffff1673ffffffffffffffffffffffffffffffffffffffff168152602001908152602001600020549050919050565b60606004805461041e90610f18565b80601f016020809104026020016040519081016040528092919081815260200182805461044a90610f18565b80156104975780601f1061046c57610100808354040283529160200191610497565b820191906000526020600020905b81548152906001019060200180831161047a57829003601f168201915b5050505050905090565b6000806104ac6105c2565b905060006104ba828661053b565b9050838110156104ff576040517f08c379a00000000000000000000000000000000000000000000000000000000081526004016104f69061101e565b60405180910390fd5b61050c82868684036105ca565b60019250505092915050565b6000806105236105c2565b905061053081858561097e565b600191505092915050565b6000600160008473ffffffffffffffffffffffffffffffffffffffff1673ffffffffffffffffffffffffffffffffffffffff16815260200190815260200160002060008373ffffffffffffffffffffffffffffffffffffffff1673ffffffffffffffffffffffffffffffffffffffff16815260200190815260200160002054905092915050565b600033905090565b600073ffffffffffffffffffffffffffffffffffffffff168373ffffffffffffffffffffffffffffffffffffffff1603610639576040517f08c379a0000000000000000000000000000000000000000000000000000000008152600401610630906110b0565b60405180910390fd5b600073ffffffffffffffffffffffffffffffffffffffff168273ffffffffffffffffffffffffffffffffffffffff16036106a8576040517f08c379a000000000000000000000000000000000000000000000000000000000815260040161069f90611142565b60405180910390fd5b80600160008573ffffffffffffffffffffffffffffffffffffffff1673ffffffffffffffffffffffffffffffffffffffff16815260200190815260200160002060008473ffffffffffffffffffffffffffffffffffffffff1673ffffffffffffffffffffffffffffffffffffffff168152602001908152602001600020819055508173ffffffffffffffffffffffffffffffffffffffff168373ffffffffffffffffffffffffffffffffffffffff167f8c5be1e5ebec7d5bd14f71427d1e84f3dd0314c0f7b2291e5b200ac8c7c3b925836040516107869190610dd7565b60405180910390a3505050565b600073ffffffffffffffffffffffffffffffffffffffff168273ffffffffffffffffffffffffffffffffffffffff1603610802576040517f08c379a00000000000000000000000000000000000000000000000000000000081526004016107f9906111ae565b60405180910390fd5b61080e60008383610bfd565b80600260008282546108209190610f78565b92505081905550806000808473ffffffffffffffffffffffffffffffffffffffff1673ffffffffffffffffffffffffffffffffffffffff16815260200190815260200160002060008282546108759190610f78565b925050819055508173ffffffffffffffffffffffffffffffffffffffff16600073ffffffffffffffffffffffffffffffffffffffff167fddf252ad1be2c89b69c2b068fc378daa952ba7f163c4a11628f55a4df523b3ef836040516108da9190610dd7565b60405180910390a36108ee60008383610c02565b5050565b60006108fe848461053b565b90507fffffffffffffffffffffffffffffffffffffffffffffffffffffffffffffffff8114610978578181101561096a576040517f08c379a00000000000000000000000000000000000000000000000000000000081526004016109619061121a565b60405180910390fd5b61097784848484036105ca565b5b50505050565b600073ffffffffffffffffffffffffffffffffffffffff168373ffffffffffffffffffffffffffffffffffffffff16036109ed576040517f08c379a00000000000000000000000000000000000000000000000000000000081526004016109e4906112ac565b60405180910390fd5b600073ffffffffffffffffffffffffffffffffffffffff168273ffffffffffffffffffffffffffffffffffffffff1603610a5c576040517f08c379a0000000000000000000000000000000000000000000000000000000008152600401610a539061133e565b60405180910390fd5b610a67838383610bfd565b60008060008573ffffffffffffffffffffffffffffffffffffffff1673ffffffffffffffffffffffffffffffffffffffff16815260200190815260200160002054905081811015610aed576040517f08c379a0000000000000000000000000000000000000000000000000000000008152600401610ae4906113d0565b60405180910390fd5b8181036000808673ffffffffffffffffffffffffffffffffffffffff1673ffffffffffffffffffffffffffffffffffffffff16815260200190815260200160002081905550816000808573ffffffffffffffffffffffffffffffffffffffff1673ffffffffffffffffffffffffffffffffffffffff1681526020019081526020016000206000828254610b809190610f78565b925050819055508273ffffffffffffffffffffffffffffffffffffffff168473ffffffffffffffffffffffffffffffffffffffff167fddf252ad1be2c89b69c2b068fc378daa952ba7f163c4a11628f55a4df523b3ef84604051610be49190610dd7565b60405180910390a3610bf7848484610c02565b50505050565b505050565b505050565b600081519050919050565b600082825260208201905092915050565b60005b83811015610c41578082015181840152602081019050610c26565b60008484015250505050565b6000601f19601f8301169050919050565b6000610c6982610c07565b610c738185610c12565b9350610c83818560208601610c23565b610c8c81610c4d565b840191505092915050565b60006020820190508181036000830152610cb18184610c5e565b905092915050565b600080fd5b600073ffffffffffffffffffffffffffffffffffffffff82169050919050565b6000610ce982610cbe565b9050919050565b610cf981610cde565b8114610d0457600080fd5b50565b600081359050610d1681610cf0565b92915050565b6000819050919050565b610d2f81610d1c565b8114610d3a57600080fd5b50565b600081359050610d4c81610d26565b92915050565b60008060408385031215610d6957610d68610cb9565b5b6000610d7785828601610d07565b9250506020610d8885828601610d3d565b9150509250929050565b60008115159050919050565b610da781610d92565b82525050565b6000602082019050610dc26000830184610d9e565b92915050565b610dd181610d1c565b82525050565b6000602082019050610dec6000830184610dc8565b92915050565b600080600060608486031215610e0b57610e0a610cb9565b5b6000610e1986828701610d07565b9350506020610e2a86828701610d07565b9250506040610e3b86828701610d3d565b9150509250925092565b600060ff82169050919050565b610e5b81610e45565b82525050565b6000602082019050610e766000830184610e52565b92915050565b600060208284031215610e9257610e91610cb9565b5b6000610ea084828501610d07565b91505092915050565b60008060408385031215610ec057610ebf610cb9565b5b6000610ece85828601610d07565b9250506020610edf85828601610d07565b9150509250929050565b7f4e487b7100000000000000000000000000000000000000000000000000000000600052602260045260246000fd5b60006002820490506001821680610f3057607f821691505b602082108103610f4357610f42610ee9565b5b50919050565b7f4e487b7100000000000000000000000000000000000000000000000000000000600052601160045260246000fd5b6000610f8382610d1c565b9150610f8e83610d1c565b9250828201905080821115610fa657610fa5610f49565b5b92915050565b7f45524332303a2064656372656173656420616c6c6f77616e63652062656c6f7760008201527f207a65726f000000000000000000000000000000000000000000000000000000602082015250565b6000611008602583610c12565b915061101382610fac565b604082019050919050565b6000602082019050818103600083015261103781610ffb565b9050919050565b7f45524332303a20617070726f76652066726f6d20746865207a65726f2061646460008201527f7265737300000000000000000000000000000000000000000000000000000000602082015250565b600061109a602483610c12565b91506110a58261103e565b604082019050919050565b600060208201905081810360008301526110c98161108d565b9050919050565b7f45524332303a20617070726f766520746f20746865207a65726f20616464726560008201527f7373000000000000000000000000000000000000000000000000000000000000602082015250565b600061112c602283610c12565b9150611137826110d0565b604082019050919050565b6000602082019050818103600083015261115b8161111f565b9050919050565b7f45524332303a206d696e7420746f20746865207a65726f206164647265737300600082015250565b6000611198601f83610c12565b91506111a382611162565b602082019050919050565b600060208201905081810360008301526111c78161118b565b9050919050565b7f45524332303a20696e73756666696369656e7420616c6c6f77616e6365000000600082015250565b6000611204601d83610c12565b915061120f826111ce565b602082019050919050565b60006020820190508181036000830152611233816111f7565b9050919050565b7f45524332303a207472616e736665722066726f6d20746865207a65726f20616460008201527f6472657373000000000000000000000000000000000000000000000000000000602082015250565b6000611296602583610c12565b91506112a18261123a565b604082019050919050565b600060208201905081810360008301526112c581611289565b9050919050565b7f45524332303a207472616e7366657220746f20746865207a65726f206164647260008201527f6573730000000000000000000000000000000000000000000000000000000000602082015250565b6000611328602383610c12565b9150611333826112cc565b604082019050919050565b600060208201905081810360008301526113578161131b565b9050919050565b7f45524332303a207472616e7366657220616d6f756e742065786365656473206260008201527f616c616e63650000000000000000000000000000000000000000000000000000602082015250565b60006113ba602683610c12565b91506113c58261135e565b604082019050919050565b600060208201905081810360008301526113e9816113ad565b905091905056fea2646970667358221220c5fe754f0bd41a931d17352c344d9a369bc46522922b98c0034d6a06800ad9b364736f6c63430008100033",
  "linkReferences": {},
  "deployedLinkReferences": {}
}