{
  "_format": "hh-sol-artifact-1",
  "contractName": "Wrapper",
  "sourceName": "contracts/Wrapper.sol",
  "abi": [
    {
      "inputs": [],
      "stateMutability": "nonpayable",
      "type": "constructor"
    },
    {
      "anonymous": false,
      "inputs": [
        {
          "indexed": true,
          "internalType": "address",
          "name": "owner",
          "type": "address"
        },
        {
          "indexed": true,
          "internalType": "address",
          "name": "approved",
          "type": "address"
        },
        {
          "indexed": true,
          "internalType": "uint256",
          "name": "tokenId",
          "type": "uint256"
        }
      ],
      "name": "Approval",
      "type": "event"
    },
    {
      "anonymous": false,
      "inputs": [
        {
          "indexed": true,
          "internalType": "address",
          "name": "owner",
          "type": "address"
        },
        {
          "indexed": true,
          "internalType": "address",
          "name": "operator",
          "type": "address"
        },
        {
          "indexed": false,
          "internalType": "bool",
          "name": "approved",
          "type": "bool"
        }
      ],
      "name": "ApprovalForAll",
      "type": "event"
    },
    {
      "anonymous": false,
      "inputs": [
        {
          "indexed": true,
          "internalType": "address",
          "name": "from",
          "type": "address"
        },
        {
          "indexed": true,
          "internalType": "address",
          "name": "to",
          "type": "address"
        },
        {
          "indexed": true,
          "internalType": "uint256",
          "name": "tokenId",
          "type": "uint256"
        }
      ],
      "name": "Transfer",
      "type": "event"
    },
    {
      "inputs": [
        {
          "internalType": "address",
          "name": "to",
          "type": "address"
        },
        {
          "internalType": "uint256",
          "name": "tokenId",
          "type": "uint256"
        }
      ],
      "name": "approve",
      "outputs": [],
      "stateMutability": "nonpayable",
      "type": "function"
    },
    {
      "inputs": [
        {
          "internalType": "address",
          "name": "owner",
          "type": "address"
        }
      ],
      "name": "balanceOf",
      "outputs": [
        {
          "internalType": "uint256",
          "name": "",
          "type": "uint256"
        }
      ],
      "stateMutability": "view",
      "type": "function"
    },
    {
      "inputs": [],
      "name": "count",
      "outputs": [
        {
          "internalType": "uint256",
          "name": "",
          "type": "uint256"
        }
      ],
      "stateMutability": "view",
      "type": "function"
    },
    {
      "inputs": [
        {
          "internalType": "uint256",
          "name": "_nftId",
          "type": "uint256"
        }
      ],
      "name": "getAmounts",
      "outputs": [
        {
          "internalType": "uint256[]",
          "name": "",
          "type": "uint256[]"
        }
      ],
      "stateMutability": "view",
      "type": "function"
    },
    {
      "inputs": [
        {
          "internalType": "uint256",
          "name": "tokenId",
          "type": "uint256"
        }
      ],
      "name": "getApproved",
      "outputs": [
        {
          "internalType": "address",
          "name": "",
          "type": "address"
        }
      ],
      "stateMutability": "view",
      "type": "function"
    },
    {
      "inputs": [
        {
          "internalType": "uint256",
          "name": "_nftId",
          "type": "uint256"
        }
      ],
      "name": "getTokens",
      "outputs": [
        {
          "internalType": "address[]",
          "name": "",
          "type": "address[]"
        }
      ],
      "stateMutability": "view",
      "type": "function"
    },
    {
      "inputs": [
        {
          "internalType": "address",
          "name": "owner",
          "type": "address"
        },
        {
          "internalType": "address",
          "name": "operator",
          "type": "address"
        }
      ],
      "name": "isApprovedForAll",
      "outputs": [
        {
          "internalType": "bool",
          "name": "",
          "type": "bool"
        }
      ],
      "stateMutability": "view",
      "type": "function"
    },
    {
      "inputs": [],
      "name": "name",
      "outputs": [
        {
          "internalType": "string",
          "name": "",
          "type": "string"
        }
      ],
      "stateMutability": "view",
      "type": "function"
    },
    {
      "inputs": [
        {
          "internalType": "uint256",
          "name": "tokenId",
          "type": "uint256"
        }
      ],
      "name": "ownerOf",
      "outputs": [
        {
          "internalType": "address",
          "name": "",
          "type": "address"
        }
      ],
      "stateMutability": "view",
      "type": "function"
    },
    {
      "inputs": [
        {
          "internalType": "address",
          "name": "from",
          "type": "address"
        },
        {
          "internalType": "address",
          "name": "to",
          "type": "address"
        },
        {
          "internalType": "uint256",
          "name": "tokenId",
          "type": "uint256"
        }
      ],
      "name": "safeTransferFrom",
      "outputs": [],
      "stateMutability": "nonpayable",
      "type": "function"
    },
    {
      "inputs": [
        {
          "internalType": "address",
          "name": "from",
          "type": "address"
        },
        {
          "internalType": "address",
          "name": "to",
          "type": "address"
        },
        {
          "internalType": "uint256",
          "name": "tokenId",
          "type": "uint256"
        },
        {
          "internalType": "bytes",
          "name": "data",
          "type": "bytes"
        }
      ],
      "name": "safeTransferFrom",
      "outputs": [],
      "stateMutability": "nonpayable",
      "type": "function"
    },
    {
      "inputs": [
        {
          "internalType": "address",
          "name": "operator",
          "type": "address"
        },
        {
          "internalType": "bool",
          "name": "approved",
          "type": "bool"
        }
      ],
      "name": "setApprovalForAll",
      "outputs": [],
      "stateMutability": "nonpayable",
      "type": "function"
    },
    {
      "inputs": [
        {
          "internalType": "bytes4",
          "name": "interfaceId",
          "type": "bytes4"
        }
      ],
      "name": "supportsInterface",
      "outputs": [
        {
          "internalType": "bool",
          "name": "",
          "type": "bool"
        }
      ],
      "stateMutability": "view",
      "type": "function"
    },
    {
      "inputs": [],
      "name": "symbol",
      "outputs": [
        {
          "internalType": "string",
          "name": "",
          "type": "string"
        }
      ],
      "stateMutability": "view",
      "type": "function"
    },
    {
      "inputs": [
        {
          "internalType": "uint256",
          "name": "tokenId",
          "type": "uint256"
        }
      ],
      "name": "tokenURI",
      "outputs": [
        {
          "internalType": "string",
          "name": "",
          "type": "string"
        }
      ],
      "stateMutability": "view",
      "type": "function"
    },
    {
      "inputs": [
        {
          "internalType": "address",
          "name": "from",
          "type": "address"
        },
        {
          "internalType": "address",
          "name": "to",
          "type": "address"
        },
        {
          "internalType": "uint256",
          "name": "tokenId",
          "type": "uint256"
        }
      ],
      "name": "transferFrom",
      "outputs": [],
      "stateMutability": "nonpayable",
      "type": "function"
    },
    {
      "inputs": [
        {
          "internalType": "address[]",
          "name": "_tokens",
          "type": "address[]"
        },
        {
          "internalType": "uint256[]",
          "name": "_amounts",
          "type": "uint256[]"
        }
      ],
      "name": "wrap",
      "outputs": [],
      "stateMutability": "nonpayable",
      "type": "function"
    }
  ],
  "bytecode": "0x60806040523480156200001157600080fd5b506040518060400160405280600981526020017f4c616e42756e646c6500000000000000000000000000000000000000000000008152506040518060400160405280600381526020017f4c414e000000000000000000000000000000000000000000000000000000000081525081600090816200008f919062000324565b508060019081620000a1919062000324565b5050506200040b565b600081519050919050565b7f4e487b7100000000000000000000000000000000000000000000000000000000600052604160045260246000fd5b7f4e487b7100000000000000000000000000000000000000000000000000000000600052602260045260246000fd5b600060028204905060018216806200012c57607f821691505b602082108103620001425762000141620000e4565b5b50919050565b60008190508160005260206000209050919050565b60006020601f8301049050919050565b600082821b905092915050565b600060088302620001ac7fffffffffffffffffffffffffffffffffffffffffffffffffffffffffffffffff826200016d565b620001b886836200016d565b95508019841693508086168417925050509392505050565b6000819050919050565b6000819050919050565b600062000205620001ff620001f984620001d0565b620001da565b620001d0565b9050919050565b6000819050919050565b6200022183620001e4565b6200023962000230826200020c565b8484546200017a565b825550505050565b600090565b6200025062000241565b6200025d81848462000216565b505050565b5b8181101562000285576200027960008262000246565b60018101905062000263565b5050565b601f821115620002d4576200029e8162000148565b620002a9846200015d565b81016020851015620002b9578190505b620002d1620002c8856200015d565b83018262000262565b50505b505050565b600082821c905092915050565b6000620002f960001984600802620002d9565b1980831691505092915050565b6000620003148383620002e6565b9150826002028217905092915050565b6200032f82620000aa565b67ffffffffffffffff8111156200034b576200034a620000b5565b5b62000357825462000113565b6200036482828562000289565b600060209050601f8311600181146200039c576000841562000387578287015190505b62000393858262000306565b86555062000403565b601f198416620003ac8662000148565b60005b82811015620003d657848901518255600182019150602085019450602081019050620003af565b86831015620003f65784890151620003f2601f891682620002e6565b8355505b6001600288020188555050505b505050505050565b61280b806200041b6000396000f3fe608060405234801561001057600080fd5b506004361061010b5760003560e01c80635cb3a828116100a2578063a22cb46511610071578063a22cb465146102ca578063b88d4fde146102e6578063c87b56dd14610302578063d3c9cc2614610332578063e985e9c5146103625761010b565b80635cb3a828146102305780636352211e1461024c57806370a082311461027c57806395d89b41146102ac5761010b565b8063095ea7b3116100de578063095ea7b3146101ac57806323b872dd146101c857806342842e0e146101e457806359f7cf50146102005761010b565b806301ffc9a71461011057806306661abd1461014057806306fdde031461015e578063081812fc1461017c575b600080fd5b61012a600480360381019061012591906116a0565b610392565b60405161013791906116e8565b60405180910390f35b610148610474565b604051610155919061171c565b60405180910390f35b61016661047a565b60405161017391906117c7565b60405180910390f35b61019660048036038101906101919190611815565b61050c565b6040516101a39190611883565b60405180910390f35b6101c660048036038101906101c191906118ca565b610552565b005b6101e260048036038101906101dd919061190a565b610669565b005b6101fe60048036038101906101f9919061190a565b6106c9565b005b61021a60048036038101906102159190611815565b6106e9565b6040516102279190611a1b565b60405180910390f35b61024a60048036038101906102459190611af8565b6106f0565b005b61026660048036038101906102619190611815565b610716565b6040516102739190611883565b60405180910390f35b61029660048036038101906102919190611b79565b6107c7565b6040516102a3919061171c565b60405180910390f35b6102b461087e565b6040516102c191906117c7565b60405180910390f35b6102e460048036038101906102df9190611bd2565b610910565b005b61030060048036038101906102fb9190611d42565b610926565b005b61031c60048036038101906103179190611815565b610988565b60405161032991906117c7565b60405180910390f35b61034c60048036038101906103479190611815565b6109f0565b6040516103599190611e83565b60405180910390f35b61037c60048036038101906103779190611ea5565b6109f7565b60405161038991906116e8565b60405180910390f35b60007f80ac58cd000000000000000000000000000000000000000000000000000000007bffffffffffffffffffffffffffffffffffffffffffffffffffffffff1916827bffffffffffffffffffffffffffffffffffffffffffffffffffffffff1916148061045d57507f5b5e139f000000000000000000000000000000000000000000000000000000007bffffffffffffffffffffffffffffffffffffffffffffffffffffffff1916827bffffffffffffffffffffffffffffffffffffffffffffffffffffffff1916145b8061046d575061046c82610a8b565b5b9050919050565b60065481565b60606000805461048990611f14565b80601f01602080910402602001604051908101604052809291908181526020018280546104b590611f14565b80156105025780601f106104d757610100808354040283529160200191610502565b820191906000526020600020905b8154815290600101906020018083116104e557829003601f168201915b5050505050905090565b600061051782610af5565b6004600083815260200190815260200160002060009054906101000a900473ffffffffffffffffffffffffffffffffffffffff169050919050565b600061055d82610716565b90508073ffffffffffffffffffffffffffffffffffffffff168373ffffffffffffffffffffffffffffffffffffffff16036105cd576040517f08c379a00000000000000000000000000000000000000000000000000000000081526004016105c490611fb7565b60405180910390fd5b8073ffffffffffffffffffffffffffffffffffffffff166105ec610b40565b73ffffffffffffffffffffffffffffffffffffffff16148061061b575061061a81610615610b40565b6109f7565b5b61065a576040517f08c379a000000000000000000000000000000000000000000000000000000000815260040161065190612049565b60405180910390fd5b6106648383610b48565b505050565b61067a610674610b40565b82610c01565b6106b9576040517f08c379a00000000000000000000000000000000000000000000000000000000081526004016106b0906120db565b60405180910390fd5b6106c4838383610c96565b505050565b6106e483838360405180602001604052806000815250610926565b505050565b6060919050565b61071033600660008154809291906107079061212a565b91905055610efc565b50505050565b6000806002600084815260200190815260200160002060009054906101000a900473ffffffffffffffffffffffffffffffffffffffff169050600073ffffffffffffffffffffffffffffffffffffffff168173ffffffffffffffffffffffffffffffffffffffff16036107be576040517f08c379a00000000000000000000000000000000000000000000000000000000081526004016107b5906121be565b60405180910390fd5b80915050919050565b60008073ffffffffffffffffffffffffffffffffffffffff168273ffffffffffffffffffffffffffffffffffffffff1603610837576040517f08c379a000000000000000000000000000000000000000000000000000000000815260040161082e90612250565b60405180910390fd5b600360008373ffffffffffffffffffffffffffffffffffffffff1673ffffffffffffffffffffffffffffffffffffffff168152602001908152602001600020549050919050565b60606001805461088d90611f14565b80601f01602080910402602001604051908101604052809291908181526020018280546108b990611f14565b80156109065780601f106108db57610100808354040283529160200191610906565b820191906000526020600020905b8154815290600101906020018083116108e957829003601f168201915b5050505050905090565b61092261091b610b40565b83836110d5565b5050565b610937610931610b40565b83610c01565b610976576040517f08c379a000000000000000000000000000000000000000000000000000000000815260040161096d906120db565b60405180910390fd5b61098284848484611241565b50505050565b606061099382610af5565b600061099d61129d565b905060008151116109bd57604051806020016040528060008152506109e8565b806109c7846112b4565b6040516020016109d89291906122ac565b6040516020818303038152906040525b915050919050565b6060919050565b6000600560008473ffffffffffffffffffffffffffffffffffffffff1673ffffffffffffffffffffffffffffffffffffffff16815260200190815260200160002060008373ffffffffffffffffffffffffffffffffffffffff1673ffffffffffffffffffffffffffffffffffffffff16815260200190815260200160002060009054906101000a900460ff16905092915050565b60007f01ffc9a7000000000000000000000000000000000000000000000000000000007bffffffffffffffffffffffffffffffffffffffffffffffffffffffff1916827bffffffffffffffffffffffffffffffffffffffffffffffffffffffff1916149050919050565b610afe81611414565b610b3d576040517f08c379a0000000000000000000000000000000000000000000000000000000008152600401610b34906121be565b60405180910390fd5b50565b600033905090565b816004600083815260200190815260200160002060006101000a81548173ffffffffffffffffffffffffffffffffffffffff021916908373ffffffffffffffffffffffffffffffffffffffff160217905550808273ffffffffffffffffffffffffffffffffffffffff16610bbb83610716565b73ffffffffffffffffffffffffffffffffffffffff167f8c5be1e5ebec7d5bd14f71427d1e84f3dd0314c0f7b2291e5b200ac8c7c3b92560405160405180910390a45050565b600080610c0d83610716565b90508073ffffffffffffffffffffffffffffffffffffffff168473ffffffffffffffffffffffffffffffffffffffff161480610c4f5750610c4e81856109f7565b5b80610c8d57508373ffffffffffffffffffffffffffffffffffffffff16610c758461050c565b73ffffffffffffffffffffffffffffffffffffffff16145b91505092915050565b8273ffffffffffffffffffffffffffffffffffffffff16610cb682610716565b73ffffffffffffffffffffffffffffffffffffffff1614610d0c576040517f08c379a0000000000000000000000000000000000000000000000000000000008152600401610d0390612342565b60405180910390fd5b600073ffffffffffffffffffffffffffffffffffffffff168273ffffffffffffffffffffffffffffffffffffffff1603610d7b576040517f08c379a0000000000000000000000000000000000000000000000000000000008152600401610d72906123d4565b60405180910390fd5b610d86838383611480565b610d91600082610b48565b6001600360008573ffffffffffffffffffffffffffffffffffffffff1673ffffffffffffffffffffffffffffffffffffffff1681526020019081526020016000206000828254610de191906123f4565b925050819055506001600360008473ffffffffffffffffffffffffffffffffffffffff1673ffffffffffffffffffffffffffffffffffffffff1681526020019081526020016000206000828254610e389190612428565b92505081905550816002600083815260200190815260200160002060006101000a81548173ffffffffffffffffffffffffffffffffffffffff021916908373ffffffffffffffffffffffffffffffffffffffff160217905550808273ffffffffffffffffffffffffffffffffffffffff168473ffffffffffffffffffffffffffffffffffffffff167fddf252ad1be2c89b69c2b068fc378daa952ba7f163c4a11628f55a4df523b3ef60405160405180910390a4610ef7838383611485565b505050565b600073ffffffffffffffffffffffffffffffffffffffff168273ffffffffffffffffffffffffffffffffffffffff1603610f6b576040517f08c379a0000000000000000000000000000000000000000000000000000000008152600401610f62906124a8565b60405180910390fd5b610f7481611414565b15610fb4576040517f08c379a0000000000000000000000000000000000000000000000000000000008152600401610fab90612514565b60405180910390fd5b610fc060008383611480565b6001600360008473ffffffffffffffffffffffffffffffffffffffff1673ffffffffffffffffffffffffffffffffffffffff16815260200190815260200160002060008282546110109190612428565b92505081905550816002600083815260200190815260200160002060006101000a81548173ffffffffffffffffffffffffffffffffffffffff021916908373ffffffffffffffffffffffffffffffffffffffff160217905550808273ffffffffffffffffffffffffffffffffffffffff16600073ffffffffffffffffffffffffffffffffffffffff167fddf252ad1be2c89b69c2b068fc378daa952ba7f163c4a11628f55a4df523b3ef60405160405180910390a46110d160008383611485565b5050565b8173ffffffffffffffffffffffffffffffffffffffff168373ffffffffffffffffffffffffffffffffffffffff1603611143576040517f08c379a000000000000000000000000000000000000000000000000000000000815260040161113a90612580565b60405180910390fd5b80600560008573ffffffffffffffffffffffffffffffffffffffff1673ffffffffffffffffffffffffffffffffffffffff16815260200190815260200160002060008473ffffffffffffffffffffffffffffffffffffffff1673ffffffffffffffffffffffffffffffffffffffff16815260200190815260200160002060006101000a81548160ff0219169083151502179055508173ffffffffffffffffffffffffffffffffffffffff168373ffffffffffffffffffffffffffffffffffffffff167f17307eab39ab6107e8899845ad3d59bd9653f200f220920489ca2b5937696c318360405161123491906116e8565b60405180910390a3505050565b61124c848484610c96565b6112588484848461148a565b611297576040517f08c379a000000000000000000000000000000000000000000000000000000000815260040161128e90612612565b60405180910390fd5b50505050565b606060405180602001604052806000815250905090565b6060600082036112fb576040518060400160405280600181526020017f3000000000000000000000000000000000000000000000000000000000000000815250905061140f565b600082905060005b6000821461132d5780806113169061212a565b915050600a826113269190612661565b9150611303565b60008167ffffffffffffffff81111561134957611348611c17565b5b6040519080825280601f01601f19166020018201604052801561137b5781602001600182028036833780820191505090505b5090505b600085146114085760018261139491906123f4565b9150600a856113a39190612692565b60306113af9190612428565b60f81b8183815181106113c5576113c46126c3565b5b60200101907effffffffffffffffffffffffffffffffffffffffffffffffffffffffffffff1916908160001a905350600a856114019190612661565b945061137f565b8093505050505b919050565b60008073ffffffffffffffffffffffffffffffffffffffff166002600084815260200190815260200160002060009054906101000a900473ffffffffffffffffffffffffffffffffffffffff1673ffffffffffffffffffffffffffffffffffffffff1614159050919050565b505050565b505050565b60006114ab8473ffffffffffffffffffffffffffffffffffffffff16611611565b15611604578373ffffffffffffffffffffffffffffffffffffffff1663150b7a026114d4610b40565b8786866040518563ffffffff1660e01b81526004016114f69493929190612747565b6020604051808303816000875af192505050801561153257506040513d601f19601f8201168201806040525081019061152f91906127a8565b60015b6115b4573d8060008114611562576040519150601f19603f3d011682016040523d82523d6000602084013e611567565b606091505b5060008151036115ac576040517f08c379a00000000000000000000000000000000000000000000000000000000081526004016115a390612612565b60405180910390fd5b805181602001fd5b63150b7a0260e01b7bffffffffffffffffffffffffffffffffffffffffffffffffffffffff1916817bffffffffffffffffffffffffffffffffffffffffffffffffffffffff191614915050611609565b600190505b949350505050565b6000808273ffffffffffffffffffffffffffffffffffffffff163b119050919050565b6000604051905090565b600080fd5b600080fd5b60007fffffffff0000000000000000000000000000000000000000000000000000000082169050919050565b61167d81611648565b811461168857600080fd5b50565b60008135905061169a81611674565b92915050565b6000602082840312156116b6576116b561163e565b5b60006116c48482850161168b565b91505092915050565b60008115159050919050565b6116e2816116cd565b82525050565b60006020820190506116fd60008301846116d9565b92915050565b6000819050919050565b61171681611703565b82525050565b6000602082019050611731600083018461170d565b92915050565b600081519050919050565b600082825260208201905092915050565b60005b83811015611771578082015181840152602081019050611756565b60008484015250505050565b6000601f19601f8301169050919050565b600061179982611737565b6117a38185611742565b93506117b3818560208601611753565b6117bc8161177d565b840191505092915050565b600060208201905081810360008301526117e1818461178e565b905092915050565b6117f281611703565b81146117fd57600080fd5b50565b60008135905061180f816117e9565b92915050565b60006020828403121561182b5761182a61163e565b5b600061183984828501611800565b91505092915050565b600073ffffffffffffffffffffffffffffffffffffffff82169050919050565b600061186d82611842565b9050919050565b61187d81611862565b82525050565b60006020820190506118986000830184611874565b92915050565b6118a781611862565b81146118b257600080fd5b50565b6000813590506118c48161189e565b92915050565b600080604083850312156118e1576118e061163e565b5b60006118ef858286016118b5565b925050602061190085828601611800565b9150509250929050565b6000806000606084860312156119235761192261163e565b5b6000611931868287016118b5565b9350506020611942868287016118b5565b925050604061195386828701611800565b9150509250925092565b600081519050919050565b600082825260208201905092915050565b6000819050602082019050919050565b61199281611703565b82525050565b60006119a48383611989565b60208301905092915050565b6000602082019050919050565b60006119c88261195d565b6119d28185611968565b93506119dd83611979565b8060005b83811015611a0e5781516119f58882611998565b9750611a00836119b0565b9250506001810190506119e1565b5085935050505092915050565b60006020820190508181036000830152611a3581846119bd565b905092915050565b600080fd5b600080fd5b600080fd5b60008083601f840112611a6257611a61611a3d565b5b8235905067ffffffffffffffff811115611a7f57611a7e611a42565b5b602083019150836020820283011115611a9b57611a9a611a47565b5b9250929050565b60008083601f840112611ab857611ab7611a3d565b5b8235905067ffffffffffffffff811115611ad557611ad4611a42565b5b602083019150836020820283011115611af157611af0611a47565b5b9250929050565b60008060008060408587031215611b1257611b1161163e565b5b600085013567ffffffffffffffff811115611b3057611b2f611643565b5b611b3c87828801611a4c565b9450945050602085013567ffffffffffffffff811115611b5f57611b5e611643565b5b611b6b87828801611aa2565b925092505092959194509250565b600060208284031215611b8f57611b8e61163e565b5b6000611b9d848285016118b5565b91505092915050565b611baf816116cd565b8114611bba57600080fd5b50565b600081359050611bcc81611ba6565b92915050565b60008060408385031215611be957611be861163e565b5b6000611bf7858286016118b5565b9250506020611c0885828601611bbd565b9150509250929050565b600080fd5b7f4e487b7100000000000000000000000000000000000000000000000000000000600052604160045260246000fd5b611c4f8261177d565b810181811067ffffffffffffffff82111715611c6e57611c6d611c17565b5b80604052505050565b6000611c81611634565b9050611c8d8282611c46565b919050565b600067ffffffffffffffff821115611cad57611cac611c17565b5b611cb68261177d565b9050602081019050919050565b82818337600083830152505050565b6000611ce5611ce084611c92565b611c77565b905082815260208101848484011115611d0157611d00611c12565b5b611d0c848285611cc3565b509392505050565b600082601f830112611d2957611d28611a3d565b5b8135611d39848260208601611cd2565b91505092915050565b60008060008060808587031215611d5c57611d5b61163e565b5b6000611d6a878288016118b5565b9450506020611d7b878288016118b5565b9350506040611d8c87828801611800565b925050606085013567ffffffffffffffff811115611dad57611dac611643565b5b611db987828801611d14565b91505092959194509250565b600081519050919050565b600082825260208201905092915050565b6000819050602082019050919050565b611dfa81611862565b82525050565b6000611e0c8383611df1565b60208301905092915050565b6000602082019050919050565b6000611e3082611dc5565b611e3a8185611dd0565b9350611e4583611de1565b8060005b83811015611e76578151611e5d8882611e00565b9750611e6883611e18565b925050600181019050611e49565b5085935050505092915050565b60006020820190508181036000830152611e9d8184611e25565b905092915050565b60008060408385031215611ebc57611ebb61163e565b5b6000611eca858286016118b5565b9250506020611edb858286016118b5565b9150509250929050565b7f4e487b7100000000000000000000000000000000000000000000000000000000600052602260045260246000fd5b60006002820490506001821680611f2c57607f821691505b602082108103611f3f57611f3e611ee5565b5b50919050565b7f4552433732313a20617070726f76616c20746f2063757272656e74206f776e6560008201527f7200000000000000000000000000000000000000000000000000000000000000602082015250565b6000611fa1602183611742565b9150611fac82611f45565b604082019050919050565b60006020820190508181036000830152611fd081611f94565b9050919050565b7f4552433732313a20617070726f76652063616c6c6572206973206e6f7420746f60008201527f6b656e206f776e6572206e6f7220617070726f76656420666f7220616c6c0000602082015250565b6000612033603e83611742565b915061203e82611fd7565b604082019050919050565b6000602082019050818103600083015261206281612026565b9050919050565b7f4552433732313a2063616c6c6572206973206e6f7420746f6b656e206f776e6560008201527f72206e6f7220617070726f766564000000000000000000000000000000000000602082015250565b60006120c5602e83611742565b91506120d082612069565b604082019050919050565b600060208201905081810360008301526120f4816120b8565b9050919050565b7f4e487b7100000000000000000000000000000000000000000000000000000000600052601160045260246000fd5b600061213582611703565b91507fffffffffffffffffffffffffffffffffffffffffffffffffffffffffffffffff8203612167576121666120fb565b5b600182019050919050565b7f4552433732313a20696e76616c696420746f6b656e2049440000000000000000600082015250565b60006121a8601883611742565b91506121b382612172565b602082019050919050565b600060208201905081810360008301526121d78161219b565b9050919050565b7f4552433732313a2061646472657373207a65726f206973206e6f74206120766160008201527f6c6964206f776e65720000000000000000000000000000000000000000000000602082015250565b600061223a602983611742565b9150612245826121de565b604082019050919050565b600060208201905081810360008301526122698161222d565b9050919050565b600081905092915050565b600061228682611737565b6122908185612270565b93506122a0818560208601611753565b80840191505092915050565b60006122b8828561227b565b91506122c4828461227b565b91508190509392505050565b7f4552433732313a207472616e736665722066726f6d20696e636f72726563742060008201527f6f776e6572000000000000000000000000000000000000000000000000000000602082015250565b600061232c602583611742565b9150612337826122d0565b604082019050919050565b6000602082019050818103600083015261235b8161231f565b9050919050565b7f4552433732313a207472616e7366657220746f20746865207a65726f2061646460008201527f7265737300000000000000000000000000000000000000000000000000000000602082015250565b60006123be602483611742565b91506123c982612362565b604082019050919050565b600060208201905081810360008301526123ed816123b1565b9050919050565b60006123ff82611703565b915061240a83611703565b9250828203905081811115612422576124216120fb565b5b92915050565b600061243382611703565b915061243e83611703565b9250828201905080821115612456576124556120fb565b5b92915050565b7f4552433732313a206d696e7420746f20746865207a65726f2061646472657373600082015250565b6000612492602083611742565b915061249d8261245c565b602082019050919050565b600060208201905081810360008301526124c181612485565b9050919050565b7f4552433732313a20746f6b656e20616c7265616479206d696e74656400000000600082015250565b60006124fe601c83611742565b9150612509826124c8565b602082019050919050565b6000602082019050818103600083015261252d816124f1565b9050919050565b7f4552433732313a20617070726f766520746f2063616c6c657200000000000000600082015250565b600061256a601983611742565b915061257582612534565b602082019050919050565b600060208201905081810360008301526125998161255d565b9050919050565b7f4552433732313a207472616e7366657220746f206e6f6e20455243373231526560008201527f63656976657220696d706c656d656e7465720000000000000000000000000000602082015250565b60006125fc603283611742565b9150612607826125a0565b604082019050919050565b6000602082019050818103600083015261262b816125ef565b9050919050565b7f4e487b7100000000000000000000000000000000000000000000000000000000600052601260045260246000fd5b600061266c82611703565b915061267783611703565b92508261268757612686612632565b5b828204905092915050565b600061269d82611703565b91506126a883611703565b9250826126b8576126b7612632565b5b828206905092915050565b7f4e487b7100000000000000000000000000000000000000000000000000000000600052603260045260246000fd5b600081519050919050565b600082825260208201905092915050565b6000612719826126f2565b61272381856126fd565b9350612733818560208601611753565b61273c8161177d565b840191505092915050565b600060808201905061275c6000830187611874565b6127696020830186611874565b612776604083018561170d565b8181036060830152612788818461270e565b905095945050505050565b6000815190506127a281611674565b92915050565b6000602082840312156127be576127bd61163e565b5b60006127cc84828501612793565b9150509291505056fea2646970667358221220d60b03bbc9521a492e29fad57ced14b08cd6b67ef1711bf18972a1d5ca25f94464736f6c63430008100033",
  "linkReferences": {},
  "deployedLinkReferences": {}
}