{
  "_format": "hh-sol-artifact-1",
  "contractName": "BaseBidRegistry",
  "sourceName": "contracts/BaseBidRegistry.sol",
  "abi": [
    {
      "inputs": [],
      "stateMutability": "nonpayable",
      "type": "constructor"
    },
    {
      "inputs": [
        {
          "internalType": "address",
          "name": "baseBid",
          "type": "address"
        }
      ],
      "name": "addBaseBid",
      "outputs": [],
      "stateMutability": "nonpayable",
      "type": "function"
    },
    {
      "inputs": [],
      "name": "count",
      "outputs": [
        {
          "internalType": "uint256",
          "name": "",
          "type": "uint256"
        }
      ],
      "stateMutability": "view",
      "type": "function"
    },
    {
      "inputs": [
        {
          "internalType": "uint256",
          "name": "_count",
          "type": "uint256"
        }
      ],
      "name": "getBaseBids",
      "outputs": [
        {
          "internalType": "address",
          "name": "",
          "type": "address"
        }
      ],
      "stateMutability": "view",
      "type": "function"
    }
  ],
  "bytecode": "0x608060405234801561001057600080fd5b506000600181905550610354806100286000396000f3fe608060405234801561001057600080fd5b50600436106100415760003560e01c806306661abd146100465780639538bc1f14610064578063d505a3ca14610080575b600080fd5b61004e6100b0565b60405161005b9190610179565b60405180910390f35b61007e600480360381019061007991906101f7565b6100b6565b005b61009a60048036038101906100959190610250565b610124565b6040516100a7919061028c565b60405180910390f35b60015481565b80600080600154815260200190815260200160002060006101000a81548173ffffffffffffffffffffffffffffffffffffffff021916908373ffffffffffffffffffffffffffffffffffffffff1602179055506001600081548092919061011c906102d6565b919050555050565b600080600083815260200190815260200160002060009054906101000a900473ffffffffffffffffffffffffffffffffffffffff169050919050565b6000819050919050565b61017381610160565b82525050565b600060208201905061018e600083018461016a565b92915050565b600080fd5b600073ffffffffffffffffffffffffffffffffffffffff82169050919050565b60006101c482610199565b9050919050565b6101d4816101b9565b81146101df57600080fd5b50565b6000813590506101f1816101cb565b92915050565b60006020828403121561020d5761020c610194565b5b600061021b848285016101e2565b91505092915050565b61022d81610160565b811461023857600080fd5b50565b60008135905061024a81610224565b92915050565b60006020828403121561026657610265610194565b5b60006102748482850161023b565b91505092915050565b610286816101b9565b82525050565b60006020820190506102a1600083018461027d565b92915050565b7f4e487b7100000000000000000000000000000000000000000000000000000000600052601160045260246000fd5b60006102e182610160565b91507fffffffffffffffffffffffffffffffffffffffffffffffffffffffffffffffff8203610313576103126102a7565b5b60018201905091905056fea2646970667358221220ee822c0571763c5ce25a71d15494804b4d01e50c5cf6106c4424e03c7f8ec4da64736f6c63430008100033",
  "linkReferences": {},
  "deployedLinkReferences": {}
}