{
  "_format": "hh-sol-artifact-1",
  "contractName": "BaseBid3",
  "sourceName": "contracts/BaseBid3.sol",
  "abi": [
    {
      "inputs": [
        {
          "internalType": "address",
          "name": "_baseBidRegistry",
          "type": "address"
        },
        {
          "internalType": "address",
          "name": "_admin",
          "type": "address"
        },
        {
          "internalType": "address",
          "name": "_baseAsset",
          "type": "address"
        },
        {
          "internalType": "address",
          "name": "_baseAssetOracle",
          "type": "address"
        },
        {
          "internalType": "address",
          "name": "_LANContract",
          "type": "address"
        },
        {
          "internalType": "address",
          "name": "_Wrapper",
          "type": "address"
        },
        {
          "internalType": "bool",
          "name": "_liquidationOnly",
          "type": "bool"
        },
        {
          "internalType": "uint16",
          "name": "_kink",
          "type": "uint16"
        },
        {
          "internalType": "uint256",
          "name": "_minApr",
          "type": "uint256"
        },
        {
          "internalType": "uint256",
          "name": "_longestTerm",
          "type": "uint256"
        },
        {
          "internalType": "uint256",
          "name": "_adminFee",
          "type": "uint256"
        }
      ],
      "stateMutability": "nonpayable",
      "type": "constructor"
    },
    {
      "inputs": [
        {
          "internalType": "uint256",
          "name": "_poolId",
          "type": "uint256"
        }
      ],
      "name": "bid",
      "outputs": [],
      "stateMutability": "nonpayable",
      "type": "function"
    },
    {
      "inputs": [
        {
          "internalType": "uint256",
          "name": "_poolId",
          "type": "uint256"
        },
        {
          "internalType": "uint256",
          "name": "_borrowAmount",
          "type": "uint256"
        },
        {
          "internalType": "uint256",
          "name": "_apr",
          "type": "uint256"
        }
      ],
      "name": "bidWithParams",
      "outputs": [],
      "stateMutability": "nonpayable",
      "type": "function"
    },
    {
      "inputs": [],
      "name": "cash",
      "outputs": [
        {
          "internalType": "uint256",
          "name": "",
          "type": "uint256"
        }
      ],
      "stateMutability": "view",
      "type": "function"
    },
    {
      "inputs": [
        {
          "internalType": "uint256",
          "name": "_tokenAmount",
          "type": "uint256"
        }
      ],
      "name": "deposit",
      "outputs": [],
      "stateMutability": "nonpayable",
      "type": "function"
    },
    {
      "inputs": [],
      "name": "getDetails",
      "outputs": [
        {
          "internalType": "address",
          "name": "",
          "type": "address"
        },
        {
          "internalType": "address",
          "name": "",
          "type": "address"
        },
        {
          "internalType": "uint256",
          "name": "",
          "type": "uint256"
        },
        {
          "internalType": "uint256",
          "name": "",
          "type": "uint256"
        },
        {
          "internalType": "uint256",
          "name": "",
          "type": "uint256"
        },
        {
          "internalType": "bool",
          "name": "",
          "type": "bool"
        }
      ],
      "stateMutability": "view",
      "type": "function"
    },
    {
      "inputs": [
        {
          "internalType": "address",
          "name": "",
          "type": "address"
        }
      ],
      "name": "whitelists",
      "outputs": [
        {
          "internalType": "uint256",
          "name": "poolId",
          "type": "uint256"
        },
        {
          "internalType": "uint256",
          "name": "LTV",
          "type": "uint256"
        },
        {
          "internalType": "address",
          "name": "oracle",
          "type": "address"
        }
      ],
      "stateMutability": "view",
      "type": "function"
    },
    {
      "inputs": [
        {
          "internalType": "uint256",
          "name": "_tokenAmount",
          "type": "uint256"
        }
      ],
      "name": "withdraw",
      "outputs": [],
      "stateMutability": "nonpayable",
      "type": "function"
    }
  ],
  "bytecode": "0x60806040523480156200001157600080fd5b5060405162000ffb38038062000ffb83398181016040528101906200003791906200046f565b89600260006101000a81548173ffffffffffffffffffffffffffffffffffffffff021916908373ffffffffffffffffffffffffffffffffffffffff16021790555088600360006101000a81548173ffffffffffffffffffffffffffffffffffffffff021916908373ffffffffffffffffffffffffffffffffffffffff16021790555087600460006101000a81548173ffffffffffffffffffffffffffffffffffffffff021916908373ffffffffffffffffffffffffffffffffffffffff16021790555086600560006101000a81548173ffffffffffffffffffffffffffffffffffffffff021916908373ffffffffffffffffffffffffffffffffffffffff16021790555083600560156101000a81548161ffff021916908361ffff1602179055508260068190555084600560146101000a81548160ff0219169083151502179055508160078190555080600881905550600360009054906101000a900473ffffffffffffffffffffffffffffffffffffffff1673ffffffffffffffffffffffffffffffffffffffff1663095ea7b3887fffffffffffffffffffffffffffffffffffffffffffffffffffffffffffffffff6040518363ffffffff1660e01b8152600401620002069291906200059e565b6020604051808303816000875af115801562000226573d6000803e3d6000fd5b505050506040513d601f19601f820116820180604052508101906200024c9190620005cb565b5085600160006101000a81548173ffffffffffffffffffffffffffffffffffffffff021916908373ffffffffffffffffffffffffffffffffffffffff160217905550866000806101000a81548173ffffffffffffffffffffffffffffffffffffffff021916908373ffffffffffffffffffffffffffffffffffffffff1602179055508a73ffffffffffffffffffffffffffffffffffffffff16639538bc1f306040518263ffffffff1660e01b8152600401620003099190620005fd565b600060405180830381600087803b1580156200032457600080fd5b505af115801562000339573d6000803e3d6000fd5b5050505050505050505050505050506200061a565b600080fd5b600073ffffffffffffffffffffffffffffffffffffffff82169050919050565b6000620003808262000353565b9050919050565b620003928162000373565b81146200039e57600080fd5b50565b600081519050620003b28162000387565b92915050565b60008115159050919050565b620003cf81620003b8565b8114620003db57600080fd5b50565b600081519050620003ef81620003c4565b92915050565b600061ffff82169050919050565b6200040e81620003f5565b81146200041a57600080fd5b50565b6000815190506200042e8162000403565b92915050565b6000819050919050565b620004498162000434565b81146200045557600080fd5b50565b60008151905062000469816200043e565b92915050565b60008060008060008060008060008060006101608c8e0312156200049857620004976200034e565b5b6000620004a88e828f01620003a1565b9b50506020620004bb8e828f01620003a1565b9a50506040620004ce8e828f01620003a1565b9950506060620004e18e828f01620003a1565b9850506080620004f48e828f01620003a1565b97505060a0620005078e828f01620003a1565b96505060c06200051a8e828f01620003de565b95505060e06200052d8e828f016200041d565b945050610100620005418e828f0162000458565b935050610120620005558e828f0162000458565b925050610140620005698e828f0162000458565b9150509295989b509295989b9093969950565b620005878162000373565b82525050565b620005988162000434565b82525050565b6000604082019050620005b560008301856200057c565b620005c460208301846200058d565b9392505050565b600060208284031215620005e457620005e36200034e565b5b6000620005f484828501620003de565b91505092915050565b60006020820190506200061460008301846200057c565b92915050565b6109d1806200062a6000396000f3fe608060405234801561001057600080fd5b506004361061007d5760003560e01c8063961be3911161005b578063961be391146100ec578063b6b55f251461010a578063eaee911514610126578063fbbf93a0146101425761007d565b80631e7be210146100825780632e1a7d4d146100b4578063454a2ab3146100d0575b600080fd5b61009c60048036038101906100979190610517565b610165565b6040516100ab9392919061056c565b60405180910390f35b6100ce60048036038101906100c991906105cf565b6101af565b005b6100ea60048036038101906100e591906105cf565b610242565b005b6100f46102dc565b60405161010191906105fc565b60405180910390f35b610124600480360381019061011f91906105cf565b6102e2565b005b610140600480360381019061013b9190610617565b6103a1565b005b61014a610438565b60405161015c96959493929190610685565b60405180910390f35b600b6020528060005260406000206000915090508060000154908060010154908060020160009054906101000a900473ffffffffffffffffffffffffffffffffffffffff16905083565b600260009054906101000a900473ffffffffffffffffffffffffffffffffffffffff1673ffffffffffffffffffffffffffffffffffffffff163373ffffffffffffffffffffffffffffffffffffffff161461023f576040517f08c379a000000000000000000000000000000000000000000000000000000000815260040161023690610743565b60405180910390fd5b50565b600560009054906101000a900473ffffffffffffffffffffffffffffffffffffffff1673ffffffffffffffffffffffffffffffffffffffff166334e40b2e826161a8601460006040518563ffffffff1660e01b81526004016102a7949392919061081e565b600060405180830381600087803b1580156102c157600080fd5b505af11580156102d5573d6000803e3d6000fd5b5050505050565b600a5481565b80600a60008282546102f49190610892565b92505081905550600360009054906101000a900473ffffffffffffffffffffffffffffffffffffffff1673ffffffffffffffffffffffffffffffffffffffff166323b872dd3330846040518463ffffffff1660e01b815260040161035a939291906108c6565b6020604051808303816000875af1158015610379573d6000803e3d6000fd5b505050506040513d601f19601f8201168201806040525081019061039d9190610929565b5050565b60008054906101000a900473ffffffffffffffffffffffffffffffffffffffff1673ffffffffffffffffffffffffffffffffffffffff166334e40b2e84848460006040518563ffffffff1660e01b81526004016104019493929190610956565b600060405180830381600087803b15801561041b57600080fd5b505af115801561042f573d6000803e3d6000fd5b50505050505050565b600080600080600080600260009054906101000a900473ffffffffffffffffffffffffffffffffffffffff16600360009054906101000a900473ffffffffffffffffffffffffffffffffffffffff16600654600754600854600560149054906101000a900460ff16955095509550955095509550909192939495565b600080fd5b600073ffffffffffffffffffffffffffffffffffffffff82169050919050565b60006104e4826104b9565b9050919050565b6104f4816104d9565b81146104ff57600080fd5b50565b600081359050610511816104eb565b92915050565b60006020828403121561052d5761052c6104b4565b5b600061053b84828501610502565b91505092915050565b6000819050919050565b61055781610544565b82525050565b610566816104d9565b82525050565b6000606082019050610581600083018661054e565b61058e602083018561054e565b61059b604083018461055d565b949350505050565b6105ac81610544565b81146105b757600080fd5b50565b6000813590506105c9816105a3565b92915050565b6000602082840312156105e5576105e46104b4565b5b60006105f3848285016105ba565b91505092915050565b6000602082019050610611600083018461054e565b92915050565b6000806000606084860312156106305761062f6104b4565b5b600061063e868287016105ba565b935050602061064f868287016105ba565b9250506040610660868287016105ba565b9150509250925092565b60008115159050919050565b61067f8161066a565b82525050565b600060c08201905061069a600083018961055d565b6106a7602083018861055d565b6106b4604083018761054e565b6106c1606083018661054e565b6106ce608083018561054e565b6106db60a0830184610676565b979650505050505050565b600082825260208201905092915050565b7f426173654269643a206e6f74206f776e65720000000000000000000000000000600082015250565b600061072d6012836106e6565b9150610738826106f7565b602082019050919050565b6000602082019050818103600083015261075c81610720565b9050919050565b6000819050919050565b6000819050919050565b600061079261078d61078884610763565b61076d565b610544565b9050919050565b6107a281610777565b82525050565b6000819050919050565b60006107cd6107c86107c3846107a8565b61076d565b610544565b9050919050565b6107dd816107b2565b82525050565b6000819050919050565b60006108086108036107fe846107e3565b61076d565b610544565b9050919050565b610818816107ed565b82525050565b6000608082019050610833600083018761054e565b6108406020830186610799565b61084d60408301856107d4565b61085a606083018461080f565b95945050505050565b7f4e487b7100000000000000000000000000000000000000000000000000000000600052601160045260246000fd5b600061089d82610544565b91506108a883610544565b92508282019050808211156108c0576108bf610863565b5b92915050565b60006060820190506108db600083018661055d565b6108e8602083018561055d565b6108f5604083018461054e565b949350505050565b6109068161066a565b811461091157600080fd5b50565b600081519050610923816108fd565b92915050565b60006020828403121561093f5761093e6104b4565b5b600061094d84828501610914565b91505092915050565b600060808201905061096b600083018761054e565b610978602083018661054e565b610985604083018561054e565b610992606083018461080f565b9594505050505056fea264697066735822122061b3854a73a1ba014c174ec3172454b561027cce1bdc96ca6787312da84ff0d764736f6c63430008100033",
  "linkReferences": {},
  "deployedLinkReferences": {}
}