{
  "_format": "hh-sol-artifact-1",
  "contractName": "LAN",
  "sourceName": "contracts/mainliquidations.sol",
  "abi": [
    {
      "anonymous": false,
      "inputs": [
        {
          "indexed": false,
          "internalType": "uint256",
          "name": "Id",
          "type": "uint256"
        }
      ],
      "name": "loanCancelled",
      "type": "event"
    },
    {
      "anonymous": false,
      "inputs": [
        {
          "indexed": false,
          "internalType": "uint256",
          "name": "poolId",
          "type": "uint256"
        }
      ],
      "name": "loanEnded",
      "type": "event"
    },
    {
      "anonymous": false,
      "inputs": [
        {
          "indexed": true,
          "internalType": "uint256",
          "name": "poolId",
          "type": "uint256"
        },
        {
          "indexed": false,
          "internalType": "address",
          "name": "collectionAddress",
          "type": "address"
        },
        {
          "indexed": false,
          "internalType": "uint256",
          "name": "nftId",
          "type": "uint256"
        }
      ],
      "name": "newPool",
      "type": "event"
    },
    {
      "inputs": [
        {
          "internalType": "uint256",
          "name": "_poolId",
          "type": "uint256"
        },
        {
          "internalType": "uint256",
          "name": "_amount",
          "type": "uint256"
        },
        {
          "internalType": "uint16",
          "name": "_apr",
          "type": "uint16"
        },
        {
          "internalType": "uint16",
          "name": "_ltv",
          "type": "uint16"
        }
      ],
      "name": "bid",
      "outputs": [],
      "stateMutability": "nonpayable",
      "type": "function"
    },
    {
      "inputs": [
        {
          "internalType": "uint256",
          "name": "",
          "type": "uint256"
        },
        {
          "internalType": "uint256",
          "name": "",
          "type": "uint256"
        }
      ],
      "name": "bids",
      "outputs": [
        {
          "internalType": "uint256",
          "name": "bidTime",
          "type": "uint256"
        },
        {
          "internalType": "uint256",
          "name": "bidAmount",
          "type": "uint256"
        },
        {
          "internalType": "address",
          "name": "user",
          "type": "address"
        },
        {
          "internalType": "uint16",
          "name": "apr",
          "type": "uint16"
        },
        {
          "internalType": "uint16",
          "name": "ltv",
          "type": "uint16"
        }
      ],
      "stateMutability": "view",
      "type": "function"
    },
    {
      "inputs": [
        {
          "internalType": "uint256",
          "name": "_poolId",
          "type": "uint256"
        }
      ],
      "name": "cancel",
      "outputs": [],
      "stateMutability": "nonpayable",
      "type": "function"
    },
    {
      "inputs": [
        {
          "internalType": "uint256",
          "name": "_poolId",
          "type": "uint256"
        },
        {
          "internalType": "address",
          "name": "_newAddress",
          "type": "address"
        },
        {
          "internalType": "bool",
          "name": "_status",
          "type": "bool"
        }
      ],
      "name": "changeWhitelist",
      "outputs": [],
      "stateMutability": "nonpayable",
      "type": "function"
    },
    {
      "inputs": [],
      "name": "count",
      "outputs": [
        {
          "internalType": "uint256",
          "name": "",
          "type": "uint256"
        }
      ],
      "stateMutability": "view",
      "type": "function"
    },
    {
      "inputs": [
        {
          "internalType": "address",
          "name": "_operator",
          "type": "address"
        },
        {
          "internalType": "address",
          "name": "_token",
          "type": "address"
        },
        {
          "internalType": "address",
          "name": "_collectionAddress",
          "type": "address"
        },
        {
          "internalType": "address",
          "name": "_oracleAddress",
          "type": "address"
        },
        {
          "internalType": "uint256",
          "name": "_nftId",
          "type": "uint256"
        },
        {
          "internalType": "uint256",
          "name": "_startTime",
          "type": "uint256"
        },
        {
          "internalType": "uint256",
          "name": "_endTime",
          "type": "uint256"
        },
        {
          "internalType": "bool",
          "name": "_liquidatable",
          "type": "bool"
        },
        {
          "internalType": "bool",
          "name": "_whitelisted",
          "type": "bool"
        }
      ],
      "name": "launch",
      "outputs": [],
      "stateMutability": "nonpayable",
      "type": "function"
    },
    {
      "inputs": [
        {
          "internalType": "uint256",
          "name": "_poolId",
          "type": "uint256"
        }
      ],
      "name": "liquidateEarly",
      "outputs": [],
      "stateMutability": "nonpayable",
      "type": "function"
    },
    {
      "inputs": [
        {
          "internalType": "uint256",
          "name": "",
          "type": "uint256"
        }
      ],
      "name": "loans",
      "outputs": [
        {
          "internalType": "address",
          "name": "owner",
          "type": "address"
        },
        {
          "internalType": "address",
          "name": "token",
          "type": "address"
        },
        {
          "internalType": "address",
          "name": "operator",
          "type": "address"
        },
        {
          "internalType": "address",
          "name": "oracleAddress",
          "type": "address"
        },
        {
          "internalType": "uint16",
          "name": "apr",
          "type": "uint16"
        },
        {
          "internalType": "address",
          "name": "collectionAddress",
          "type": "address"
        },
        {
          "internalType": "uint256",
          "name": "nftId",
          "type": "uint256"
        },
        {
          "internalType": "uint256",
          "name": "startTime",
          "type": "uint256"
        },
        {
          "internalType": "uint256",
          "name": "endTime",
          "type": "uint256"
        },
        {
          "internalType": "uint256",
          "name": "numBids",
          "type": "uint256"
        },
        {
          "internalType": "bool",
          "name": "liquidatable",
          "type": "bool"
        },
        {
          "internalType": "bool",
          "name": "whitelisted",
          "type": "bool"
        }
      ],
      "stateMutability": "view",
      "type": "function"
    },
    {
      "inputs": [
        {
          "internalType": "uint256",
          "name": "_poolId",
          "type": "uint256"
        },
        {
          "internalType": "uint256",
          "name": "_amount",
          "type": "uint256"
        }
      ],
      "name": "repay",
      "outputs": [],
      "stateMutability": "nonpayable",
      "type": "function"
    },
    {
      "inputs": [
        {
          "internalType": "uint256",
          "name": "_poolId",
          "type": "uint256"
        },
        {
          "internalType": "address",
          "name": "_newAddress",
          "type": "address"
        }
      ],
      "name": "setNewBidOwner",
      "outputs": [],
      "stateMutability": "nonpayable",
      "type": "function"
    },
    {
      "inputs": [
        {
          "internalType": "uint256",
          "name": "",
          "type": "uint256"
        }
      ],
      "name": "userPoolReserve",
      "outputs": [
        {
          "internalType": "uint256",
          "name": "",
          "type": "uint256"
        }
      ],
      "stateMutability": "view",
      "type": "function"
    },
    {
      "inputs": [
        {
          "internalType": "uint256",
          "name": "_poolId",
          "type": "uint256"
        },
        {
          "internalType": "bool",
          "name": "_whitelist",
          "type": "bool"
        }
      ],
      "name": "whitelistStatusUpdate",
      "outputs": [],
      "stateMutability": "nonpayable",
      "type": "function"
    },
    {
      "inputs": [
        {
          "internalType": "uint256",
          "name": "",
          "type": "uint256"
        },
        {
          "internalType": "address",
          "name": "",
          "type": "address"
        }
      ],
      "name": "whitelistedAddresses",
      "outputs": [
        {
          "internalType": "bool",
          "name": "",
          "type": "bool"
        }
      ],
      "stateMutability": "view",
      "type": "function"
    }
  ],
  "bytecode": "0x608060405234801561001057600080fd5b506132f6806100206000396000f3fe608060405234801561001057600080fd5b50600436106100cf5760003560e01c80637b3c4baa1161008c578063a23b02bd11610066578063a23b02bd146101fe578063d8aed1451461022e578063e1ec3c681461024a578063f724e48e14610285576100cf565b80637b3c4baa1461019257806389e257a3146101c65780638f769f3a146101e2576100cf565b806306661abd146100d457806318de4f9d146100f2578063222fdf211461010e57806340e58ee51461012a5780636b3517ba146101465780637a4656d614610162575b600080fd5b6100dc6102a1565b6040516100e99190612784565b60405180910390f35b61010c600480360381019061010791906127d0565b6102a7565b005b61012860048036038101906101239190612835565b6107b1565b005b610144600480360381019061013f91906127d0565b6108fb565b005b610160600480360381019061015b91906128af565b610ce7565b005b61017c600480360381019061017791906127d0565b6111f9565b6040516101899190612784565b60405180910390f35b6101ac60048036038101906101a79190612916565b611211565b6040516101bd9594939291906129a6565b60405180910390f35b6101e060048036038101906101db9190612a25565b611290565b005b6101fc60048036038101906101f79190612aef565b6116ec565b005b61021860048036038101906102139190612aef565b611ad4565b6040516102259190612b3e565b60405180910390f35b61024860048036038101906102439190612916565b611b03565b005b610264600480360381019061025f91906127d0565b6120eb565b60405161027c9c9b9a99989796959493929190612b59565b60405180910390f35b61029f600480360381019061029a9190612c13565b612213565b005b60005481565b803373ffffffffffffffffffffffffffffffffffffffff166001600083815260200190815260200160002060000160009054906101000a900473ffffffffffffffffffffffffffffffffffffffff1673ffffffffffffffffffffffffffffffffffffffff16148061037957503373ffffffffffffffffffffffffffffffffffffffff166001600083815260200190815260200160002060020160009054906101000a900473ffffffffffffffffffffffffffffffffffffffff1673ffffffffffffffffffffffffffffffffffffffff16145b6103b8576040517f08c379a00000000000000000000000000000000000000000000000000000000081526004016103af90612cc3565b60405180910390fd5b600060016000848152602001908152602001600020604051806101800160405290816000820160009054906101000a900473ffffffffffffffffffffffffffffffffffffffff1673ffffffffffffffffffffffffffffffffffffffff1673ffffffffffffffffffffffffffffffffffffffff1681526020016001820160009054906101000a900473ffffffffffffffffffffffffffffffffffffffff1673ffffffffffffffffffffffffffffffffffffffff1673ffffffffffffffffffffffffffffffffffffffff1681526020016002820160009054906101000a900473ffffffffffffffffffffffffffffffffffffffff1673ffffffffffffffffffffffffffffffffffffffff1673ffffffffffffffffffffffffffffffffffffffff1681526020016003820160009054906101000a900473ffffffffffffffffffffffffffffffffffffffff1673ffffffffffffffffffffffffffffffffffffffff1673ffffffffffffffffffffffffffffffffffffffff1681526020016003820160149054906101000a900461ffff1661ffff1661ffff1681526020016004820160009054906101000a900473ffffffffffffffffffffffffffffffffffffffff1673ffffffffffffffffffffffffffffffffffffffff1673ffffffffffffffffffffffffffffffffffffffff168152602001600582015481526020016006820154815260200160078201548152602001600882015481526020016009820160009054906101000a900460ff161515151581526020016009820160019054906101000a900460ff1615151515815250509050600060026000858152602001908152602001600020600083610120015181526020019081526020016000206040518060a001604052908160008201548152602001600182015481526020016002820160009054906101000a900473ffffffffffffffffffffffffffffffffffffffff1673ffffffffffffffffffffffffffffffffffffffff1673ffffffffffffffffffffffffffffffffffffffff1681526020016002820160149054906101000a900461ffff1661ffff1661ffff1681526020016002820160169054906101000a900461ffff1661ffff1661ffff1681525050905060008260a0015190508073ffffffffffffffffffffffffffffffffffffffff166342842e0e3084604001518660c001516040518463ffffffff1660e01b815260040161073793929190612ce3565b600060405180830381600087803b15801561075157600080fd5b505af1158015610765573d6000803e3d6000fd5b505050507fcf3eafc70e544bbb0b7b916314be01382e9819ef1dea730bd182222030ffe4a9856040516107989190612784565b60405180910390a16107a8612694565b92505050505050565b813373ffffffffffffffffffffffffffffffffffffffff166001600083815260200190815260200160002060000160009054906101000a900473ffffffffffffffffffffffffffffffffffffffff1673ffffffffffffffffffffffffffffffffffffffff16148061088357503373ffffffffffffffffffffffffffffffffffffffff166001600083815260200190815260200160002060020160009054906101000a900473ffffffffffffffffffffffffffffffffffffffff1673ffffffffffffffffffffffffffffffffffffffff16145b6108c2576040517f08c379a00000000000000000000000000000000000000000000000000000000081526004016108b990612cc3565b60405180910390fd5b6000600160008581526020019081526020016000209050828160090160016101000a81548160ff02191690831515021790555050505050565b803373ffffffffffffffffffffffffffffffffffffffff166001600083815260200190815260200160002060000160009054906101000a900473ffffffffffffffffffffffffffffffffffffffff1673ffffffffffffffffffffffffffffffffffffffff1614806109cd57503373ffffffffffffffffffffffffffffffffffffffff166001600083815260200190815260200160002060020160009054906101000a900473ffffffffffffffffffffffffffffffffffffffff1673ffffffffffffffffffffffffffffffffffffffff16145b610a0c576040517f08c379a0000000000000000000000000000000000000000000000000000000008152600401610a0390612cc3565b60405180910390fd5b600060016000848152602001908152602001600020604051806101800160405290816000820160009054906101000a900473ffffffffffffffffffffffffffffffffffffffff1673ffffffffffffffffffffffffffffffffffffffff1673ffffffffffffffffffffffffffffffffffffffff1681526020016001820160009054906101000a900473ffffffffffffffffffffffffffffffffffffffff1673ffffffffffffffffffffffffffffffffffffffff1673ffffffffffffffffffffffffffffffffffffffff1681526020016002820160009054906101000a900473ffffffffffffffffffffffffffffffffffffffff1673ffffffffffffffffffffffffffffffffffffffff1673ffffffffffffffffffffffffffffffffffffffff1681526020016003820160009054906101000a900473ffffffffffffffffffffffffffffffffffffffff1673ffffffffffffffffffffffffffffffffffffffff1673ffffffffffffffffffffffffffffffffffffffff1681526020016003820160149054906101000a900461ffff1661ffff1661ffff1681526020016004820160009054906101000a900473ffffffffffffffffffffffffffffffffffffffff1673ffffffffffffffffffffffffffffffffffffffff1673ffffffffffffffffffffffffffffffffffffffff168152602001600582015481526020016006820154815260200160078201548152602001600882015481526020016009820160009054906101000a900460ff161515151581526020016009820160019054906101000a900460ff1615151515815250509050428160e0015111610ca1576040517f08c379a0000000000000000000000000000000000000000000000000000000008152600401610c9890612d66565b60405180910390fd5b610ca9612694565b90507ffe785ef891129b084b1c5a30e4d88eb97c97822c024cc25d5f9d806b897512e083604051610cda9190612784565b60405180910390a1505050565b610cf084612280565b610d2f576040517f08c379a0000000000000000000000000000000000000000000000000000000008152600401610d2690612dd2565b60405180910390fd5b610d38846122a2565b15610d78576040517f08c379a0000000000000000000000000000000000000000000000000000000008152600401610d6f90612e3e565b60405180910390fd5b60006001600086815260200190815260200160002090508060090160019054906101000a900460ff168015610e0757506003600086815260200190815260200160002060003373ffffffffffffffffffffffffffffffffffffffff1673ffffffffffffffffffffffffffffffffffffffff16815260200190815260200160002060009054906101000a900460ff165b80610e275750600015158160090160019054906101000a900460ff161515145b610e66576040517f08c379a0000000000000000000000000000000000000000000000000000000008152600401610e5d90612eaa565b60405180910390fd5b600060026000878152602001908152602001600020600083600801548152602001908152602001600020600101549050808511610ed8576040517f08c379a0000000000000000000000000000000000000000000000000000000008152600401610ecf90612f16565b60405180910390fd5b6000610ee3876122c5565b9050848360030160146101000a81548161ffff021916908361ffff160217905550600060018460080154610f179190612f65565b90508360010160009054906101000a900473ffffffffffffffffffffffffffffffffffffffff1673ffffffffffffffffffffffffffffffffffffffff166323b872dd33600260008c8152602001908152602001600020600085815260200190815260200160002060020160009054906101000a900473ffffffffffffffffffffffffffffffffffffffff16856040518463ffffffff1660e01b8152600401610fc193929190612ce3565b6020604051808303816000875af1158015610fe0573d6000803e3d6000fd5b505050506040513d601f19601f820116820180604052508101906110049190612fae565b508360010160009054906101000a900473ffffffffffffffffffffffffffffffffffffffff1673ffffffffffffffffffffffffffffffffffffffff166323b872dd338660000160009054906101000a900473ffffffffffffffffffffffffffffffffffffffff16858b6110779190612fdb565b6040518463ffffffff1660e01b815260040161109593929190612ce3565b6020604051808303816000875af11580156110b4573d6000803e3d6000fd5b505050506040513d601f19601f820116820180604052508101906110d89190612fae565b508084600801819055506040518060a001604052804281526020018881526020013373ffffffffffffffffffffffffffffffffffffffff1681526020018761ffff1681526020018661ffff16815250600260008a81526020019081526020016000206000838152602001908152602001600020600082015181600001556020820151816001015560408201518160020160006101000a81548173ffffffffffffffffffffffffffffffffffffffff021916908373ffffffffffffffffffffffffffffffffffffffff16021790555060608201518160020160146101000a81548161ffff021916908361ffff16021790555060808201518160020160166101000a81548161ffff021916908361ffff1602179055509050505050505050505050565b60046020528060005260406000206000915090505481565b6002602052816000526040600020602052806000526040600020600091509150508060000154908060010154908060020160009054906101000a900473ffffffffffffffffffffffffffffffffffffffff16908060020160149054906101000a900461ffff16908060020160169054906101000a900461ffff16905085565b428410156112d3576040517f08c379a00000000000000000000000000000000000000000000000000000000081526004016112ca9061305b565b60405180910390fd5b838311611315576040517f08c379a000000000000000000000000000000000000000000000000000000000815260040161130c906130c7565b60405180910390fd5b6040518061018001604052808873ffffffffffffffffffffffffffffffffffffffff16636352211e886040518263ffffffff1660e01b815260040161135a9190612784565b602060405180830381865afa158015611377573d6000803e3d6000fd5b505050506040513d601f19601f8201168201806040525081019061139b91906130fc565b73ffffffffffffffffffffffffffffffffffffffff1681526020018973ffffffffffffffffffffffffffffffffffffffff1681526020018a73ffffffffffffffffffffffffffffffffffffffff1681526020018773ffffffffffffffffffffffffffffffffffffffff168152602001600061ffff1681526020018873ffffffffffffffffffffffffffffffffffffffff168152602001868152602001858152602001848152602001600081526020018315158152602001821515815250600160008054815260200190815260200160002060008201518160000160006101000a81548173ffffffffffffffffffffffffffffffffffffffff021916908373ffffffffffffffffffffffffffffffffffffffff16021790555060208201518160010160006101000a81548173ffffffffffffffffffffffffffffffffffffffff021916908373ffffffffffffffffffffffffffffffffffffffff16021790555060408201518160020160006101000a81548173ffffffffffffffffffffffffffffffffffffffff021916908373ffffffffffffffffffffffffffffffffffffffff16021790555060608201518160030160006101000a81548173ffffffffffffffffffffffffffffffffffffffff021916908373ffffffffffffffffffffffffffffffffffffffff16021790555060808201518160030160146101000a81548161ffff021916908361ffff16021790555060a08201518160040160006101000a81548173ffffffffffffffffffffffffffffffffffffffff021916908373ffffffffffffffffffffffffffffffffffffffff16021790555060c0820151816005015560e08201518160060155610100820151816007015561012082015181600801556101408201518160090160006101000a81548160ff0219169083151502179055506101608201518160090160016101000a81548160ff0219169083151502179055509050504260026000805481526020019081526020016000206000808152602001908152602001600020600001819055506000547fef8b2952c43462575e82711d0cc91169720a4589a9fa533d173e022437f5405e88876040516116c2929190613129565b60405180910390a26000808154809291906116dc90613152565b9190505550505050505050505050565b6116f582612280565b611734576040517f08c379a000000000000000000000000000000000000000000000000000000000815260040161172b90612dd2565b60405180910390fd5b61173d826122a2565b1561177d576040517f08c379a000000000000000000000000000000000000000000000000000000000815260040161177490612e3e565b60405180910390fd5b600060016000848152602001908152602001600020604051806101800160405290816000820160009054906101000a900473ffffffffffffffffffffffffffffffffffffffff1673ffffffffffffffffffffffffffffffffffffffff1673ffffffffffffffffffffffffffffffffffffffff1681526020016001820160009054906101000a900473ffffffffffffffffffffffffffffffffffffffff1673ffffffffffffffffffffffffffffffffffffffff1673ffffffffffffffffffffffffffffffffffffffff1681526020016002820160009054906101000a900473ffffffffffffffffffffffffffffffffffffffff1673ffffffffffffffffffffffffffffffffffffffff1673ffffffffffffffffffffffffffffffffffffffff1681526020016003820160009054906101000a900473ffffffffffffffffffffffffffffffffffffffff1673ffffffffffffffffffffffffffffffffffffffff1673ffffffffffffffffffffffffffffffffffffffff1681526020016003820160149054906101000a900461ffff1661ffff1661ffff1681526020016004820160009054906101000a900473ffffffffffffffffffffffffffffffffffffffff1673ffffffffffffffffffffffffffffffffffffffff1673ffffffffffffffffffffffffffffffffffffffff168152602001600582015481526020016006820154815260200160078201548152602001600882015481526020016009820160009054906101000a900460ff161515151581526020016009820160019054906101000a900460ff16151515158152505090506000600260008581526020019081526020016000206000836101200151815260200190815260200160002090503373ffffffffffffffffffffffffffffffffffffffff168160020160009054906101000a900473ffffffffffffffffffffffffffffffffffffffff1673ffffffffffffffffffffffffffffffffffffffff1614611a8b576040517f08c379a0000000000000000000000000000000000000000000000000000000008152600401611a82906131e6565b60405180910390fd5b828160020160006101000a81548173ffffffffffffffffffffffffffffffffffffffff021916908373ffffffffffffffffffffffffffffffffffffffff16021790555050505050565b60036020528160005260406000206020528060005260406000206000915091509054906101000a900460ff1681565b813373ffffffffffffffffffffffffffffffffffffffff166001600083815260200190815260200160002060000160009054906101000a900473ffffffffffffffffffffffffffffffffffffffff1673ffffffffffffffffffffffffffffffffffffffff161480611bd557503373ffffffffffffffffffffffffffffffffffffffff166001600083815260200190815260200160002060020160009054906101000a900473ffffffffffffffffffffffffffffffffffffffff1673ffffffffffffffffffffffffffffffffffffffff16145b611c14576040517f08c379a0000000000000000000000000000000000000000000000000000000008152600401611c0b90612cc3565b60405180910390fd5b600060016000858152602001908152602001600020604051806101800160405290816000820160009054906101000a900473ffffffffffffffffffffffffffffffffffffffff1673ffffffffffffffffffffffffffffffffffffffff1673ffffffffffffffffffffffffffffffffffffffff1681526020016001820160009054906101000a900473ffffffffffffffffffffffffffffffffffffffff1673ffffffffffffffffffffffffffffffffffffffff1673ffffffffffffffffffffffffffffffffffffffff1681526020016002820160009054906101000a900473ffffffffffffffffffffffffffffffffffffffff1673ffffffffffffffffffffffffffffffffffffffff1673ffffffffffffffffffffffffffffffffffffffff1681526020016003820160009054906101000a900473ffffffffffffffffffffffffffffffffffffffff1673ffffffffffffffffffffffffffffffffffffffff1673ffffffffffffffffffffffffffffffffffffffff1681526020016003820160149054906101000a900461ffff1661ffff1661ffff1681526020016004820160009054906101000a900473ffffffffffffffffffffffffffffffffffffffff1673ffffffffffffffffffffffffffffffffffffffff1673ffffffffffffffffffffffffffffffffffffffff168152602001600582015481526020016006820154815260200160078201548152602001600882015481526020016009820160009054906101000a900460ff161515151581526020016009820160019054906101000a900460ff1615151515815250509050600060026000868152602001908152602001600020600083610120015181526020019081526020016000206040518060a001604052908160008201548152602001600182015481526020016002820160009054906101000a900473ffffffffffffffffffffffffffffffffffffffff1673ffffffffffffffffffffffffffffffffffffffff1673ffffffffffffffffffffffffffffffffffffffff1681526020016002820160149054906101000a900461ffff1661ffff1661ffff1681526020016002820160169054906101000a900461ffff1661ffff1661ffff16815250509050816020015173ffffffffffffffffffffffffffffffffffffffff166323b872dd3330876040518463ffffffff1660e01b8152600401611f8693929190612ce3565b6020604051808303816000875af1158015611fa5573d6000803e3d6000fd5b505050506040513d601f19601f82011682018060405250810190611fc99190612fae565b50611fd3856122c5565b600460008781526020019081526020016000205485611ff29190612f65565b106120ba5760008260a0015190508073ffffffffffffffffffffffffffffffffffffffff166342842e0e3084604001518660c001516040518463ffffffff1660e01b815260040161204593929190612ce3565b600060405180830381600087803b15801561205f57600080fd5b505af1158015612073573d6000803e3d6000fd5b505050507fcf3eafc70e544bbb0b7b916314be01382e9819ef1dea730bd182222030ffe4a9866040516120a69190612784565b60405180910390a16120b6612694565b9250505b836004600087815260200190815260200160002060008282546120dd9190612f65565b925050819055505050505050565b60016020528060005260406000206000915090508060000160009054906101000a900473ffffffffffffffffffffffffffffffffffffffff16908060010160009054906101000a900473ffffffffffffffffffffffffffffffffffffffff16908060020160009054906101000a900473ffffffffffffffffffffffffffffffffffffffff16908060030160009054906101000a900473ffffffffffffffffffffffffffffffffffffffff16908060030160149054906101000a900461ffff16908060040160009054906101000a900473ffffffffffffffffffffffffffffffffffffffff16908060050154908060060154908060070154908060080154908060090160009054906101000a900460ff16908060090160019054906101000a900460ff1690508c565b806003600085815260200190815260200160002060008473ffffffffffffffffffffffffffffffffffffffff1673ffffffffffffffffffffffffffffffffffffffff16815260200190815260200160002060006101000a81548160ff021916908315150217905550505050565b6000426001600084815260200190815260200160002060060154109050919050565b600042600160008481526020019081526020016000206007015411159050919050565b60008060016000848152602001908152602001600020604051806101800160405290816000820160009054906101000a900473ffffffffffffffffffffffffffffffffffffffff1673ffffffffffffffffffffffffffffffffffffffff1673ffffffffffffffffffffffffffffffffffffffff1681526020016001820160009054906101000a900473ffffffffffffffffffffffffffffffffffffffff1673ffffffffffffffffffffffffffffffffffffffff1673ffffffffffffffffffffffffffffffffffffffff1681526020016002820160009054906101000a900473ffffffffffffffffffffffffffffffffffffffff1673ffffffffffffffffffffffffffffffffffffffff1673ffffffffffffffffffffffffffffffffffffffff1681526020016003820160009054906101000a900473ffffffffffffffffffffffffffffffffffffffff1673ffffffffffffffffffffffffffffffffffffffff1673ffffffffffffffffffffffffffffffffffffffff1681526020016003820160149054906101000a900461ffff1661ffff1661ffff1681526020016004820160009054906101000a900473ffffffffffffffffffffffffffffffffffffffff1673ffffffffffffffffffffffffffffffffffffffff1673ffffffffffffffffffffffffffffffffffffffff168152602001600582015481526020016006820154815260200160078201548152602001600882015481526020016009820160009054906101000a900460ff161515151581526020016009820160019054906101000a900460ff1615151515815250509050600060026000858152602001908152602001600020600083610120015181526020019081526020016000206040518060a001604052908160008201548152602001600182015481526020016002820160009054906101000a900473ffffffffffffffffffffffffffffffffffffffff1673ffffffffffffffffffffffffffffffffffffffff1673ffffffffffffffffffffffffffffffffffffffff1681526020016002820160149054906101000a900461ffff1661ffff1661ffff1681526020016002820160169054906101000a900461ffff1661ffff1661ffff168152505090506000612602856122a2565b1561262357826101000151826000015161261c9190612fdb565b9050612636565b4282600001516126339190612fdb565b90505b6301e1338081670de0b6b3a7640000856080015161ffff16856020015161265d9190613206565b612667919061328f565b6126719190613206565b61267b919061328f565b826020015161268a9190612f65565b9350505050919050565b604051806101800160405280600073ffffffffffffffffffffffffffffffffffffffff168152602001600073ffffffffffffffffffffffffffffffffffffffff168152602001600073ffffffffffffffffffffffffffffffffffffffff168152602001600073ffffffffffffffffffffffffffffffffffffffff168152602001600061ffff168152602001600073ffffffffffffffffffffffffffffffffffffffff168152602001600081526020016000815260200160008152602001600081526020016000151581526020016000151581525090565b6000819050919050565b61277e8161276b565b82525050565b60006020820190506127996000830184612775565b92915050565b600080fd5b6127ad8161276b565b81146127b857600080fd5b50565b6000813590506127ca816127a4565b92915050565b6000602082840312156127e6576127e561279f565b5b60006127f4848285016127bb565b91505092915050565b60008115159050919050565b612812816127fd565b811461281d57600080fd5b50565b60008135905061282f81612809565b92915050565b6000806040838503121561284c5761284b61279f565b5b600061285a858286016127bb565b925050602061286b85828601612820565b9150509250929050565b600061ffff82169050919050565b61288c81612875565b811461289757600080fd5b50565b6000813590506128a981612883565b92915050565b600080600080608085870312156128c9576128c861279f565b5b60006128d7878288016127bb565b94505060206128e8878288016127bb565b93505060406128f98782880161289a565b925050606061290a8782880161289a565b91505092959194509250565b6000806040838503121561292d5761292c61279f565b5b600061293b858286016127bb565b925050602061294c858286016127bb565b9150509250929050565b600073ffffffffffffffffffffffffffffffffffffffff82169050919050565b600061298182612956565b9050919050565b61299181612976565b82525050565b6129a081612875565b82525050565b600060a0820190506129bb6000830188612775565b6129c86020830187612775565b6129d56040830186612988565b6129e26060830185612997565b6129ef6080830184612997565b9695505050505050565b612a0281612976565b8114612a0d57600080fd5b50565b600081359050612a1f816129f9565b92915050565b60008060008060008060008060006101208a8c031215612a4857612a4761279f565b5b6000612a568c828d01612a10565b9950506020612a678c828d01612a10565b9850506040612a788c828d01612a10565b9750506060612a898c828d01612a10565b9650506080612a9a8c828d016127bb565b95505060a0612aab8c828d016127bb565b94505060c0612abc8c828d016127bb565b93505060e0612acd8c828d01612820565b925050610100612adf8c828d01612820565b9150509295985092959850929598565b60008060408385031215612b0657612b0561279f565b5b6000612b14858286016127bb565b9250506020612b2585828601612a10565b9150509250929050565b612b38816127fd565b82525050565b6000602082019050612b536000830184612b2f565b92915050565b600061018082019050612b6f600083018f612988565b612b7c602083018e612988565b612b89604083018d612988565b612b96606083018c612988565b612ba3608083018b612997565b612bb060a083018a612988565b612bbd60c0830189612775565b612bca60e0830188612775565b612bd8610100830187612775565b612be6610120830186612775565b612bf4610140830185612b2f565b612c02610160830184612b2f565b9d9c50505050505050505050505050565b600080600060608486031215612c2c57612c2b61279f565b5b6000612c3a868287016127bb565b9350506020612c4b86828701612a10565b9250506040612c5c86828701612820565b9150509250925092565b600082825260208201905092915050565b7f4c414e3a206e6f74206f776e6572000000000000000000000000000000000000600082015250565b6000612cad600e83612c66565b9150612cb882612c77565b602082019050919050565b60006020820190508181036000830152612cdc81612ca0565b9050919050565b6000606082019050612cf86000830186612988565b612d056020830185612988565b612d126040830184612775565b949350505050565b7f4c414e3a20616c72656164792073746172746564000000000000000000000000600082015250565b6000612d50601483612c66565b9150612d5b82612d1a565b602082019050919050565b60006020820190508181036000830152612d7f81612d43565b9050919050565b7f4c414e3a206e6f74207374617274656400000000000000000000000000000000600082015250565b6000612dbc601083612c66565b9150612dc782612d86565b602082019050919050565b60006020820190508181036000830152612deb81612daf565b9050919050565b7f4c414e3a20616c726561647920656e6465640000000000000000000000000000600082015250565b6000612e28601283612c66565b9150612e3382612df2565b602082019050919050565b60006020820190508181036000830152612e5781612e1b565b9050919050565b7f4c414e3a204e6f742057686974656c6973746564000000000000000000000000600082015250565b6000612e94601483612c66565b9150612e9f82612e5e565b602082019050919050565b60006020820190508181036000830152612ec381612e87565b9050919050565b7f4c414e3a20626964206e6f742068696768657200000000000000000000000000600082015250565b6000612f00601383612c66565b9150612f0b82612eca565b602082019050919050565b60006020820190508181036000830152612f2f81612ef3565b9050919050565b7f4e487b7100000000000000000000000000000000000000000000000000000000600052601160045260246000fd5b6000612f708261276b565b9150612f7b8361276b565b9250828201905080821115612f9357612f92612f36565b5b92915050565b600081519050612fa881612809565b92915050565b600060208284031215612fc457612fc361279f565b5b6000612fd284828501612f99565b91505092915050565b6000612fe68261276b565b9150612ff18361276b565b925082820390508181111561300957613008612f36565b5b92915050565b7f4c414e3a2073746172742074696d6520696e2070617374000000000000000000600082015250565b6000613045601783612c66565b91506130508261300f565b602082019050919050565b6000602082019050818103600083015261307481613038565b9050919050565b7f4c414e3a20737461727420616674657220656e64000000000000000000000000600082015250565b60006130b1601483612c66565b91506130bc8261307b565b602082019050919050565b600060208201905081810360008301526130e0816130a4565b9050919050565b6000815190506130f6816129f9565b92915050565b6000602082840312156131125761311161279f565b5b6000613120848285016130e7565b91505092915050565b600060408201905061313e6000830185612988565b61314b6020830184612775565b9392505050565b600061315d8261276b565b91507fffffffffffffffffffffffffffffffffffffffffffffffffffffffffffffffff820361318f5761318e612f36565b5b600182019050919050565b7f4c414e3a204e6f7420746865206c617465737420626964646572000000000000600082015250565b60006131d0601a83612c66565b91506131db8261319a565b602082019050919050565b600060208201905081810360008301526131ff816131c3565b9050919050565b60006132118261276b565b915061321c8361276b565b9250817fffffffffffffffffffffffffffffffffffffffffffffffffffffffffffffffff048311821515161561325557613254612f36565b5b828202905092915050565b7f4e487b7100000000000000000000000000000000000000000000000000000000600052601260045260246000fd5b600061329a8261276b565b91506132a58361276b565b9250826132b5576132b4613260565b5b82820490509291505056fea2646970667358221220c25fb159d683edd4bd254adff7943ee3cd82b89fecb80755e07d37ec4334e4d264736f6c63430008100033",
  "linkReferences": {},
  "deployedLinkReferences": {}
}