{
  "_format": "hh-sol-artifact-1",
  "contractName": "SimpleNft",
  "sourceName": "contracts/SimpleNft.sol",
  "abi": [
    {
      "inputs": [],
      "stateMutability": "nonpayable",
      "type": "constructor"
    },
    {
      "anonymous": false,
      "inputs": [
        {
          "indexed": true,
          "internalType": "address",
          "name": "owner",
          "type": "address"
        },
        {
          "indexed": true,
          "internalType": "address",
          "name": "approved",
          "type": "address"
        },
        {
          "indexed": true,
          "internalType": "uint256",
          "name": "tokenId",
          "type": "uint256"
        }
      ],
      "name": "Approval",
      "type": "event"
    },
    {
      "anonymous": false,
      "inputs": [
        {
          "indexed": true,
          "internalType": "address",
          "name": "owner",
          "type": "address"
        },
        {
          "indexed": true,
          "internalType": "address",
          "name": "operator",
          "type": "address"
        },
        {
          "indexed": false,
          "internalType": "bool",
          "name": "approved",
          "type": "bool"
        }
      ],
      "name": "ApprovalForAll",
      "type": "event"
    },
    {
      "anonymous": false,
      "inputs": [
        {
          "indexed": true,
          "internalType": "address",
          "name": "previousOwner",
          "type": "address"
        },
        {
          "indexed": true,
          "internalType": "address",
          "name": "newOwner",
          "type": "address"
        }
      ],
      "name": "OwnershipTransferred",
      "type": "event"
    },
    {
      "anonymous": false,
      "inputs": [
        {
          "indexed": true,
          "internalType": "address",
          "name": "from",
          "type": "address"
        },
        {
          "indexed": true,
          "internalType": "address",
          "name": "to",
          "type": "address"
        },
        {
          "indexed": true,
          "internalType": "uint256",
          "name": "tokenId",
          "type": "uint256"
        }
      ],
      "name": "Transfer",
      "type": "event"
    },
    {
      "inputs": [
        {
          "internalType": "address",
          "name": "to",
          "type": "address"
        },
        {
          "internalType": "uint256",
          "name": "tokenId",
          "type": "uint256"
        }
      ],
      "name": "approve",
      "outputs": [],
      "stateMutability": "nonpayable",
      "type": "function"
    },
    {
      "inputs": [
        {
          "internalType": "address",
          "name": "owner",
          "type": "address"
        }
      ],
      "name": "balanceOf",
      "outputs": [
        {
          "internalType": "uint256",
          "name": "",
          "type": "uint256"
        }
      ],
      "stateMutability": "view",
      "type": "function"
    },
    {
      "inputs": [],
      "name": "cost",
      "outputs": [
        {
          "internalType": "uint256",
          "name": "",
          "type": "uint256"
        }
      ],
      "stateMutability": "view",
      "type": "function"
    },
    {
      "inputs": [
        {
          "internalType": "uint256",
          "name": "tokenId",
          "type": "uint256"
        }
      ],
      "name": "getApproved",
      "outputs": [
        {
          "internalType": "address",
          "name": "",
          "type": "address"
        }
      ],
      "stateMutability": "view",
      "type": "function"
    },
    {
      "inputs": [],
      "name": "getImageUrls",
      "outputs": [
        {
          "internalType": "string[]",
          "name": "",
          "type": "string[]"
        }
      ],
      "stateMutability": "view",
      "type": "function"
    },
    {
      "inputs": [],
      "name": "hiddenMetadataUri",
      "outputs": [
        {
          "internalType": "string",
          "name": "",
          "type": "string"
        }
      ],
      "stateMutability": "view",
      "type": "function"
    },
    {
      "inputs": [
        {
          "internalType": "address",
          "name": "owner",
          "type": "address"
        },
        {
          "internalType": "address",
          "name": "operator",
          "type": "address"
        }
      ],
      "name": "isApprovedForAll",
      "outputs": [
        {
          "internalType": "bool",
          "name": "",
          "type": "bool"
        }
      ],
      "stateMutability": "view",
      "type": "function"
    },
    {
      "inputs": [],
      "name": "maxMintAmountPerTx",
      "outputs": [
        {
          "internalType": "uint256",
          "name": "",
          "type": "uint256"
        }
      ],
      "stateMutability": "view",
      "type": "function"
    },
    {
      "inputs": [],
      "name": "maxSupply",
      "outputs": [
        {
          "internalType": "uint256",
          "name": "",
          "type": "uint256"
        }
      ],
      "stateMutability": "view",
      "type": "function"
    },
    {
      "inputs": [
        {
          "internalType": "uint256",
          "name": "_tokenID",
          "type": "uint256"
        }
      ],
      "name": "mint",
      "outputs": [],
      "stateMutability": "payable",
      "type": "function"
    },
    {
      "inputs": [
        {
          "internalType": "uint256",
          "name": "_mintAmount",
          "type": "uint256"
        },
        {
          "internalType": "address",
          "name": "_receiver",
          "type": "address"
        },
        {
          "internalType": "uint256",
          "name": "_tokenID",
          "type": "uint256"
        }
      ],
      "name": "mintForAddress",
      "outputs": [],
      "stateMutability": "nonpayable",
      "type": "function"
    },
    {
      "inputs": [],
      "name": "name",
      "outputs": [
        {
          "internalType": "string",
          "name": "",
          "type": "string"
        }
      ],
      "stateMutability": "view",
      "type": "function"
    },
    {
      "inputs": [],
      "name": "owner",
      "outputs": [
        {
          "internalType": "address",
          "name": "",
          "type": "address"
        }
      ],
      "stateMutability": "view",
      "type": "function"
    },
    {
      "inputs": [
        {
          "internalType": "uint256",
          "name": "tokenId",
          "type": "uint256"
        }
      ],
      "name": "ownerOf",
      "outputs": [
        {
          "internalType": "address",
          "name": "",
          "type": "address"
        }
      ],
      "stateMutability": "view",
      "type": "function"
    },
    {
      "inputs": [],
      "name": "renounceOwnership",
      "outputs": [],
      "stateMutability": "nonpayable",
      "type": "function"
    },
    {
      "inputs": [],
      "name": "revealed",
      "outputs": [
        {
          "internalType": "bool",
          "name": "",
          "type": "bool"
        }
      ],
      "stateMutability": "view",
      "type": "function"
    },
    {
      "inputs": [
        {
          "internalType": "address",
          "name": "from",
          "type": "address"
        },
        {
          "internalType": "address",
          "name": "to",
          "type": "address"
        },
        {
          "internalType": "uint256",
          "name": "tokenId",
          "type": "uint256"
        }
      ],
      "name": "safeTransferFrom",
      "outputs": [],
      "stateMutability": "nonpayable",
      "type": "function"
    },
    {
      "inputs": [
        {
          "internalType": "address",
          "name": "from",
          "type": "address"
        },
        {
          "internalType": "address",
          "name": "to",
          "type": "address"
        },
        {
          "internalType": "uint256",
          "name": "tokenId",
          "type": "uint256"
        },
        {
          "internalType": "bytes",
          "name": "data",
          "type": "bytes"
        }
      ],
      "name": "safeTransferFrom",
      "outputs": [],
      "stateMutability": "nonpayable",
      "type": "function"
    },
    {
      "inputs": [
        {
          "internalType": "address",
          "name": "operator",
          "type": "address"
        },
        {
          "internalType": "bool",
          "name": "approved",
          "type": "bool"
        }
      ],
      "name": "setApprovalForAll",
      "outputs": [],
      "stateMutability": "nonpayable",
      "type": "function"
    },
    {
      "inputs": [
        {
          "internalType": "uint256",
          "name": "_cost",
          "type": "uint256"
        }
      ],
      "name": "setCost",
      "outputs": [],
      "stateMutability": "nonpayable",
      "type": "function"
    },
    {
      "inputs": [
        {
          "internalType": "string",
          "name": "_hiddenMetadataUri",
          "type": "string"
        }
      ],
      "name": "setHiddenMetadataUri",
      "outputs": [],
      "stateMutability": "nonpayable",
      "type": "function"
    },
    {
      "inputs": [
        {
          "internalType": "uint256",
          "name": "_maxMintAmountPerTx",
          "type": "uint256"
        }
      ],
      "name": "setMaxMintAmountPerTx",
      "outputs": [],
      "stateMutability": "nonpayable",
      "type": "function"
    },
    {
      "inputs": [
        {
          "internalType": "bool",
          "name": "_state",
          "type": "bool"
        }
      ],
      "name": "setRevealed",
      "outputs": [],
      "stateMutability": "nonpayable",
      "type": "function"
    },
    {
      "inputs": [
        {
          "internalType": "string",
          "name": "_uriPrefix",
          "type": "string"
        }
      ],
      "name": "setUriPrefix",
      "outputs": [],
      "stateMutability": "nonpayable",
      "type": "function"
    },
    {
      "inputs": [
        {
          "internalType": "string",
          "name": "_uriSuffix",
          "type": "string"
        }
      ],
      "name": "setUriSuffix",
      "outputs": [],
      "stateMutability": "nonpayable",
      "type": "function"
    },
    {
      "inputs": [
        {
          "internalType": "bytes4",
          "name": "interfaceId",
          "type": "bytes4"
        }
      ],
      "name": "supportsInterface",
      "outputs": [
        {
          "internalType": "bool",
          "name": "",
          "type": "bool"
        }
      ],
      "stateMutability": "view",
      "type": "function"
    },
    {
      "inputs": [],
      "name": "symbol",
      "outputs": [
        {
          "internalType": "string",
          "name": "",
          "type": "string"
        }
      ],
      "stateMutability": "view",
      "type": "function"
    },
    {
      "inputs": [
        {
          "internalType": "uint256",
          "name": "_tokenId",
          "type": "uint256"
        }
      ],
      "name": "tokenURI",
      "outputs": [
        {
          "internalType": "string",
          "name": "",
          "type": "string"
        }
      ],
      "stateMutability": "view",
      "type": "function"
    },
    {
      "inputs": [],
      "name": "totalSupply",
      "outputs": [
        {
          "internalType": "uint256",
          "name": "",
          "type": "uint256"
        }
      ],
      "stateMutability": "view",
      "type": "function"
    },
    {
      "inputs": [
        {
          "internalType": "address",
          "name": "from",
          "type": "address"
        },
        {
          "internalType": "address",
          "name": "to",
          "type": "address"
        },
        {
          "internalType": "uint256",
          "name": "tokenId",
          "type": "uint256"
        }
      ],
      "name": "transferFrom",
      "outputs": [],
      "stateMutability": "nonpayable",
      "type": "function"
    },
    {
      "inputs": [
        {
          "internalType": "address",
          "name": "newOwner",
          "type": "address"
        }
      ],
      "name": "transferOwnership",
      "outputs": [],
      "stateMutability": "nonpayable",
      "type": "function"
    },
    {
      "inputs": [
        {
          "internalType": "uint256",
          "name": "id",
          "type": "uint256"
        },
        {
          "internalType": "string",
          "name": "url",
          "type": "string"
        }
      ],
      "name": "updateImageUrls",
      "outputs": [],
      "stateMutability": "payable",
      "type": "function"
    },
    {
      "inputs": [],
      "name": "uriPrefix",
      "outputs": [
        {
          "internalType": "string",
          "name": "",
          "type": "string"
        }
      ],
      "stateMutability": "view",
      "type": "function"
    },
    {
      "inputs": [],
      "name": "uriSuffix",
      "outputs": [
        {
          "internalType": "string",
          "name": "",
          "type": "string"
        }
      ],
      "stateMutability": "view",
      "type": "function"
    },
    {
      "inputs": [
        {
          "internalType": "address",
          "name": "_owner",
          "type": "address"
        }
      ],
      "name": "walletOfOwner",
      "outputs": [
        {
          "internalType": "uint256[]",
          "name": "",
          "type": "uint256[]"
        }
      ],
      "stateMutability": "view",
      "type": "function"
    },
    {
      "inputs": [],
      "name": "withdraw",
      "outputs": [],
      "stateMutability": "nonpayable",
      "type": "function"
    }
  ],
  "bytecode": "0x60806040526040518060200160405280600081525060089081620000249190620005af565b506040518060400160405280600581526020017f2e6a736f6e000000000000000000000000000000000000000000000000000000815250600990816200006b9190620005af565b506000600b556115b3600c556001600d556000600e60006101000a81548160ff021916908315150217905550348015620000a457600080fd5b506040518060400160405280600981526020017f426f7265642041706500000000000000000000000000000000000000000000008152506040518060400160405280600481526020017f42415943000000000000000000000000000000000000000000000000000000008152508160009081620001229190620005af565b508060019081620001349190620005af565b505050620001576200014b6200018760201b60201c565b6200018f60201b60201c565b6200018160405180608001604052806050815260200162004e62605091396200025560201b60201c565b62000719565b600033905090565b6000600660009054906101000a900473ffffffffffffffffffffffffffffffffffffffff16905081600660006101000a81548173ffffffffffffffffffffffffffffffffffffffff021916908373ffffffffffffffffffffffffffffffffffffffff1602179055508173ffffffffffffffffffffffffffffffffffffffff168173ffffffffffffffffffffffffffffffffffffffff167f8be0079c531659141344cd1fd0a4f28419497f9722a3daafe3b4186f6b6457e060405160405180910390a35050565b620002656200027a60201b60201c565b80600a9081620002769190620005af565b5050565b6200028a6200018760201b60201c565b73ffffffffffffffffffffffffffffffffffffffff16620002b06200030b60201b60201c565b73ffffffffffffffffffffffffffffffffffffffff161462000309576040517f08c379a00000000000000000000000000000000000000000000000000000000081526004016200030090620006f7565b60405180910390fd5b565b6000600660009054906101000a900473ffffffffffffffffffffffffffffffffffffffff16905090565b600081519050919050565b7f4e487b7100000000000000000000000000000000000000000000000000000000600052604160045260246000fd5b7f4e487b7100000000000000000000000000000000000000000000000000000000600052602260045260246000fd5b60006002820490506001821680620003b757607f821691505b602082108103620003cd57620003cc6200036f565b5b50919050565b60008190508160005260206000209050919050565b60006020601f8301049050919050565b600082821b905092915050565b600060088302620004377fffffffffffffffffffffffffffffffffffffffffffffffffffffffffffffffff82620003f8565b620004438683620003f8565b95508019841693508086168417925050509392505050565b6000819050919050565b6000819050919050565b6000620004906200048a62000484846200045b565b62000465565b6200045b565b9050919050565b6000819050919050565b620004ac836200046f565b620004c4620004bb8262000497565b84845462000405565b825550505050565b600090565b620004db620004cc565b620004e8818484620004a1565b505050565b5b81811015620005105762000504600082620004d1565b600181019050620004ee565b5050565b601f8211156200055f576200052981620003d3565b6200053484620003e8565b8101602085101562000544578190505b6200055c6200055385620003e8565b830182620004ed565b50505b505050565b600082821c905092915050565b6000620005846000198460080262000564565b1980831691505092915050565b60006200059f838362000571565b9150826002028217905092915050565b620005ba8262000335565b67ffffffffffffffff811115620005d657620005d562000340565b5b620005e282546200039e565b620005ef82828562000514565b600060209050601f83116001811462000627576000841562000612578287015190505b6200061e858262000591565b8655506200068e565b601f1984166200063786620003d3565b60005b8281101562000661578489015182556001820191506020850194506020810190506200063a565b868310156200068157848901516200067d601f89168262000571565b8355505b6001600288020188555050505b505050505050565b600082825260208201905092915050565b7f4f776e61626c653a2063616c6c6572206973206e6f7420746865206f776e6572600082015250565b6000620006df60208362000696565b9150620006ec82620006a7565b602082019050919050565b600060208201905081810360008301526200071281620006d0565b9050919050565b61473980620007296000396000f3fe60806040526004361061020f5760003560e01c806362b99ad411610118578063a22cb465116100a0578063c87b56dd1161006f578063c87b56dd14610747578063d5abeb0114610784578063e0a80853146107af578063e985e9c5146107d8578063f2fde38b146108155761020f565b8063a22cb465146106a1578063a45ba8e7146106ca578063b071401b146106f5578063b88d4fde1461071e5761020f565b80637ec4a659116100e75780637ec4a659146105db5780638da5cb5b1461060457806394354fd01461062f57806395d89b411461065a578063a0712d68146106855761020f565b806362b99ad41461051f5780636352211e1461054a57806370a0823114610587578063715018a6146105c45761020f565b806325beba9d1161019b57806344a0d68a1161016a57806344a0d68a1461045b57806345a1b08b146104845780634fdd43cb146104a057806351830227146104c95780635503a0e8146104f45761020f565b806325beba9d146103b55780633ccfd60b146103de57806342842e0e146103f5578063438b63001461041e5761020f565b806313faede6116101e257806313faede6146102e257806316ba10e01461030d57806318160ddd146103365780631868611b1461036157806323b872dd1461038c5761020f565b806301ffc9a71461021457806306fdde0314610251578063081812fc1461027c578063095ea7b3146102b9575b600080fd5b34801561022057600080fd5b5061023b60048036038101906102369190612dcb565b61083e565b6040516102489190612e13565b60405180910390f35b34801561025d57600080fd5b50610266610920565b6040516102739190612ebe565b60405180910390f35b34801561028857600080fd5b506102a3600480360381019061029e9190612f16565b6109b2565b6040516102b09190612f84565b60405180910390f35b3480156102c557600080fd5b506102e060048036038101906102db9190612fcb565b6109f8565b005b3480156102ee57600080fd5b506102f7610b0f565b604051610304919061301a565b60405180910390f35b34801561031957600080fd5b50610334600480360381019061032f919061316a565b610b15565b005b34801561034257600080fd5b5061034b610b30565b604051610358919061301a565b60405180910390f35b34801561036d57600080fd5b50610376610b41565b60405161038391906132bf565b60405180910390f35b34801561039857600080fd5b506103b360048036038101906103ae91906132e1565b611239565b005b3480156103c157600080fd5b506103dc60048036038101906103d79190613334565b611299565b005b3480156103ea57600080fd5b506103f361135d565b005b34801561040157600080fd5b5061041c600480360381019061041791906132e1565b6113e5565b005b34801561042a57600080fd5b5061044560048036038101906104409190613387565b611405565b6040516104529190613472565b60405180910390f35b34801561046757600080fd5b50610482600480360381019061047d9190612f16565b61150f565b005b61049e60048036038101906104999190613494565b611521565b005b3480156104ac57600080fd5b506104c760048036038101906104c2919061316a565b6115e7565b005b3480156104d557600080fd5b506104de611602565b6040516104eb9190612e13565b60405180910390f35b34801561050057600080fd5b50610509611615565b6040516105169190612ebe565b60405180910390f35b34801561052b57600080fd5b506105346116a3565b6040516105419190612ebe565b60405180910390f35b34801561055657600080fd5b50610571600480360381019061056c9190612f16565b611731565b60405161057e9190612f84565b60405180910390f35b34801561059357600080fd5b506105ae60048036038101906105a99190613387565b6117e2565b6040516105bb919061301a565b60405180910390f35b3480156105d057600080fd5b506105d9611899565b005b3480156105e757600080fd5b5061060260048036038101906105fd919061316a565b6118ad565b005b34801561061057600080fd5b506106196118c8565b6040516106269190612f84565b60405180910390f35b34801561063b57600080fd5b506106446118f2565b604051610651919061301a565b60405180910390f35b34801561066657600080fd5b5061066f6118f8565b60405161067c9190612ebe565b60405180910390f35b61069f600480360381019061069a9190612f16565b61198a565b005b3480156106ad57600080fd5b506106c860048036038101906106c3919061351c565b611b70565b005b3480156106d657600080fd5b506106df611b86565b6040516106ec9190612ebe565b60405180910390f35b34801561070157600080fd5b5061071c60048036038101906107179190612f16565b611c14565b005b34801561072a57600080fd5b50610745600480360381019061074091906135fd565b611c26565b005b34801561075357600080fd5b5061076e60048036038101906107699190612f16565b611c88565b60405161077b9190612ebe565b60405180910390f35b34801561079057600080fd5b50610799611de0565b6040516107a6919061301a565b60405180910390f35b3480156107bb57600080fd5b506107d660048036038101906107d19190613680565b611de6565b005b3480156107e457600080fd5b506107ff60048036038101906107fa91906136ad565b611e0b565b60405161080c9190612e13565b60405180910390f35b34801561082157600080fd5b5061083c60048036038101906108379190613387565b611e9f565b005b60007f80ac58cd000000000000000000000000000000000000000000000000000000007bffffffffffffffffffffffffffffffffffffffffffffffffffffffff1916827bffffffffffffffffffffffffffffffffffffffffffffffffffffffff1916148061090957507f5b5e139f000000000000000000000000000000000000000000000000000000007bffffffffffffffffffffffffffffffffffffffffffffffffffffffff1916827bffffffffffffffffffffffffffffffffffffffffffffffffffffffff1916145b80610919575061091882611f22565b5b9050919050565b60606000805461092f9061371c565b80601f016020809104026020016040519081016040528092919081815260200182805461095b9061371c565b80156109a85780601f1061097d576101008083540402835291602001916109a8565b820191906000526020600020905b81548152906001019060200180831161098b57829003601f168201915b5050505050905090565b60006109bd82611f8c565b6004600083815260200190815260200160002060009054906101000a900473ffffffffffffffffffffffffffffffffffffffff169050919050565b6000610a0382611731565b90508073ffffffffffffffffffffffffffffffffffffffff168373ffffffffffffffffffffffffffffffffffffffff1603610a73576040517f08c379a0000000000000000000000000000000000000000000000000000000008152600401610a6a906137bf565b60405180910390fd5b8073ffffffffffffffffffffffffffffffffffffffff16610a92611fd7565b73ffffffffffffffffffffffffffffffffffffffff161480610ac15750610ac081610abb611fd7565b611e0b565b5b610b00576040517f08c379a0000000000000000000000000000000000000000000000000000000008152600401610af790613851565b60405180910390fd5b610b0a8383611fdf565b505050565b600b5481565b610b1d612098565b8060099081610b2c9190613a1d565b5050565b6000610b3c6007612116565b905090565b60606000600967ffffffffffffffff811115610b6057610b5f61303f565b5b604051908082528060200260200182016040528015610b9357816020015b6060815260200190600190039081610b7e5790505b50905060106000600181526020019081526020016000208054610bb59061371c565b80601f0160208091040260200160405190810160405280929190818152602001828054610be19061371c565b8015610c2e5780601f10610c0357610100808354040283529160200191610c2e565b820191906000526020600020905b815481529060010190602001808311610c1157829003601f168201915b505050505081600081518110610c4757610c46613aef565b5b602002602001018190525060106000600281526020019081526020016000208054610c719061371c565b80601f0160208091040260200160405190810160405280929190818152602001828054610c9d9061371c565b8015610cea5780601f10610cbf57610100808354040283529160200191610cea565b820191906000526020600020905b815481529060010190602001808311610ccd57829003601f168201915b505050505081600181518110610d0357610d02613aef565b5b602002602001018190525060106000600381526020019081526020016000208054610d2d9061371c565b80601f0160208091040260200160405190810160405280929190818152602001828054610d599061371c565b8015610da65780601f10610d7b57610100808354040283529160200191610da6565b820191906000526020600020905b815481529060010190602001808311610d8957829003601f168201915b505050505081600281518110610dbf57610dbe613aef565b5b602002602001018190525060106000600481526020019081526020016000208054610de99061371c565b80601f0160208091040260200160405190810160405280929190818152602001828054610e159061371c565b8015610e625780601f10610e3757610100808354040283529160200191610e62565b820191906000526020600020905b815481529060010190602001808311610e4557829003601f168201915b505050505081600381518110610e7b57610e7a613aef565b5b602002602001018190525060106000600581526020019081526020016000208054610ea59061371c565b80601f0160208091040260200160405190810160405280929190818152602001828054610ed19061371c565b8015610f1e5780601f10610ef357610100808354040283529160200191610f1e565b820191906000526020600020905b815481529060010190602001808311610f0157829003601f168201915b505050505081600481518110610f3757610f36613aef565b5b602002602001018190525060106000600681526020019081526020016000208054610f619061371c565b80601f0160208091040260200160405190810160405280929190818152602001828054610f8d9061371c565b8015610fda5780601f10610faf57610100808354040283529160200191610fda565b820191906000526020600020905b815481529060010190602001808311610fbd57829003601f168201915b505050505081600581518110610ff357610ff2613aef565b5b60200260200101819052506010600060078152602001908152602001600020805461101d9061371c565b80601f01602080910402602001604051908101604052809291908181526020018280546110499061371c565b80156110965780601f1061106b57610100808354040283529160200191611096565b820191906000526020600020905b81548152906001019060200180831161107957829003601f168201915b5050505050816006815181106110af576110ae613aef565b5b6020026020010181905250601060006008815260200190815260200160002080546110d99061371c565b80601f01602080910402602001604051908101604052809291908181526020018280546111059061371c565b80156111525780601f1061112757610100808354040283529160200191611152565b820191906000526020600020905b81548152906001019060200180831161113557829003601f168201915b50505050508160078151811061116b5761116a613aef565b5b6020026020010181905250601060006009815260200190815260200160002080546111959061371c565b80601f01602080910402602001604051908101604052809291908181526020018280546111c19061371c565b801561120e5780601f106111e35761010080835404028352916020019161120e565b820191906000526020600020905b8154815290600101906020018083116111f157829003601f168201915b50505050508160088151811061122757611226613aef565b5b60200260200101819052508091505090565b61124a611244611fd7565b82612124565b611289576040517f08c379a000000000000000000000000000000000000000000000000000000000815260040161128090613b90565b60405180910390fd5b6112948383836121b9565b505050565b826000811180156112ac5750600d548111155b6112eb576040517f08c379a00000000000000000000000000000000000000000000000000000000081526004016112e290613bfc565b60405180910390fd5b600c54816112f96007612116565b6113039190613c4b565b1115611344576040517f08c379a000000000000000000000000000000000000000000000000000000000815260040161133b90613ccb565b60405180910390fd5b61134c612098565b61135783858461241f565b50505050565b611365612098565b600061136f6118c8565b73ffffffffffffffffffffffffffffffffffffffff164760405161139290613d1c565b60006040518083038185875af1925050503d80600081146113cf576040519150601f19603f3d011682016040523d82523d6000602084013e6113d4565b606091505b50509050806113e257600080fd5b50565b61140083838360405180602001604052806000815250611c26565b505050565b60606000611412836117e2565b905060008167ffffffffffffffff8111156114305761142f61303f565b5b60405190808252806020026020018201604052801561145e5781602001602082028036833780820191505090505b50905060006001905060005b838110801561147b5750600c548211155b1561150357600061148b83611731565b90508673ffffffffffffffffffffffffffffffffffffffff168173ffffffffffffffffffffffffffffffffffffffff16036114ef57828483815181106114d4576114d3613aef565b5b60200260200101818152505081806114eb90613d31565b9250505b82806114fa90613d31565b9350505061146a565b82945050505050919050565b611517612098565b80600b8190555050565b6011600083815260200190815260200160002060009054906101000a900473ffffffffffffffffffffffffffffffffffffffff1673ffffffffffffffffffffffffffffffffffffffff163373ffffffffffffffffffffffffffffffffffffffff16146115c2576040517f08c379a00000000000000000000000000000000000000000000000000000000081526004016115b990613dc5565b60405180910390fd5b806010600084815260200190815260200160002090816115e29190613a1d565b505050565b6115ef612098565b80600a90816115fe9190613a1d565b5050565b600e60009054906101000a900460ff1681565b600980546116229061371c565b80601f016020809104026020016040519081016040528092919081815260200182805461164e9061371c565b801561169b5780601f106116705761010080835404028352916020019161169b565b820191906000526020600020905b81548152906001019060200180831161167e57829003601f168201915b505050505081565b600880546116b09061371c565b80601f01602080910402602001604051908101604052809291908181526020018280546116dc9061371c565b80156117295780601f106116fe57610100808354040283529160200191611729565b820191906000526020600020905b81548152906001019060200180831161170c57829003601f168201915b505050505081565b6000806002600084815260200190815260200160002060009054906101000a900473ffffffffffffffffffffffffffffffffffffffff169050600073ffffffffffffffffffffffffffffffffffffffff168173ffffffffffffffffffffffffffffffffffffffff16036117d9576040517f08c379a00000000000000000000000000000000000000000000000000000000081526004016117d090613e31565b60405180910390fd5b80915050919050565b60008073ffffffffffffffffffffffffffffffffffffffff168273ffffffffffffffffffffffffffffffffffffffff1603611852576040517f08c379a000000000000000000000000000000000000000000000000000000000815260040161184990613ec3565b60405180910390fd5b600360008373ffffffffffffffffffffffffffffffffffffffff1673ffffffffffffffffffffffffffffffffffffffff168152602001908152602001600020549050919050565b6118a1612098565b6118ab6000612457565b565b6118b5612098565b80600890816118c49190613a1d565b5050565b6000600660009054906101000a900473ffffffffffffffffffffffffffffffffffffffff16905090565b600d5481565b6060600180546119079061371c565b80601f01602080910402602001604051908101604052809291908181526020018280546119339061371c565b80156119805780601f1061195557610100808354040283529160200191611980565b820191906000526020600020905b81548152906001019060200180831161196357829003601f168201915b5050505050905090565b600160008111801561199e5750600d548111155b6119dd576040517f08c379a00000000000000000000000000000000000000000000000000000000081526004016119d490613bfc565b60405180910390fd5b600c54816119eb6007612116565b6119f59190613c4b565b1115611a36576040517f08c379a0000000000000000000000000000000000000000000000000000000008152600401611a2d90613ccb565b60405180910390fd5b600b54341015611a7b576040517f08c379a0000000000000000000000000000000000000000000000000000000008152600401611a7290613f2f565b60405180910390fd5b60001515600f600084815260200190815260200160002060009054906101000a900460ff16151514611ae2576040517f08c379a0000000000000000000000000000000000000000000000000000000008152600401611ad990613fc1565b60405180910390fd5b6001600f600084815260200190815260200160002060006101000a81548160ff021916908315150217905550336011600084815260200190815260200160002060006101000a81548173ffffffffffffffffffffffffffffffffffffffff021916908373ffffffffffffffffffffffffffffffffffffffff160217905550611b6c3360018461241f565b5050565b611b82611b7b611fd7565b838361251d565b5050565b600a8054611b939061371c565b80601f0160208091040260200160405190810160405280929190818152602001828054611bbf9061371c565b8015611c0c5780601f10611be157610100808354040283529160200191611c0c565b820191906000526020600020905b815481529060010190602001808311611bef57829003601f168201915b505050505081565b611c1c612098565b80600d8190555050565b611c37611c31611fd7565b83612124565b611c76576040517f08c379a0000000000000000000000000000000000000000000000000000000008152600401611c6d90613b90565b60405180910390fd5b611c8284848484612689565b50505050565b6060611c93826126e5565b611cd2576040517f08c379a0000000000000000000000000000000000000000000000000000000008152600401611cc990614053565b60405180910390fd5b60001515600e60009054906101000a900460ff16151503611d7f57600a8054611cfa9061371c565b80601f0160208091040260200160405190810160405280929190818152602001828054611d269061371c565b8015611d735780601f10611d4857610100808354040283529160200191611d73565b820191906000526020600020905b815481529060010190602001808311611d5657829003601f168201915b50505050509050611ddb565b6000611d89612751565b90506000815111611da95760405180602001604052806000815250611dd7565b80611db3846127e3565b6009604051602001611dc793929190614132565b6040516020818303038152906040525b9150505b919050565b600c5481565b611dee612098565b80600e60006101000a81548160ff02191690831515021790555050565b6000600560008473ffffffffffffffffffffffffffffffffffffffff1673ffffffffffffffffffffffffffffffffffffffff16815260200190815260200160002060008373ffffffffffffffffffffffffffffffffffffffff1673ffffffffffffffffffffffffffffffffffffffff16815260200190815260200160002060009054906101000a900460ff16905092915050565b611ea7612098565b600073ffffffffffffffffffffffffffffffffffffffff168173ffffffffffffffffffffffffffffffffffffffff1603611f16576040517f08c379a0000000000000000000000000000000000000000000000000000000008152600401611f0d906141d5565b60405180910390fd5b611f1f81612457565b50565b60007f01ffc9a7000000000000000000000000000000000000000000000000000000007bffffffffffffffffffffffffffffffffffffffffffffffffffffffff1916827bffffffffffffffffffffffffffffffffffffffffffffffffffffffff1916149050919050565b611f95816126e5565b611fd4576040517f08c379a0000000000000000000000000000000000000000000000000000000008152600401611fcb90613e31565b60405180910390fd5b50565b600033905090565b816004600083815260200190815260200160002060006101000a81548173ffffffffffffffffffffffffffffffffffffffff021916908373ffffffffffffffffffffffffffffffffffffffff160217905550808273ffffffffffffffffffffffffffffffffffffffff1661205283611731565b73ffffffffffffffffffffffffffffffffffffffff167f8c5be1e5ebec7d5bd14f71427d1e84f3dd0314c0f7b2291e5b200ac8c7c3b92560405160405180910390a45050565b6120a0611fd7565b73ffffffffffffffffffffffffffffffffffffffff166120be6118c8565b73ffffffffffffffffffffffffffffffffffffffff1614612114576040517f08c379a000000000000000000000000000000000000000000000000000000000815260040161210b90614241565b60405180910390fd5b565b600081600001549050919050565b60008061213083611731565b90508073ffffffffffffffffffffffffffffffffffffffff168473ffffffffffffffffffffffffffffffffffffffff16148061217257506121718185611e0b565b5b806121b057508373ffffffffffffffffffffffffffffffffffffffff16612198846109b2565b73ffffffffffffffffffffffffffffffffffffffff16145b91505092915050565b8273ffffffffffffffffffffffffffffffffffffffff166121d982611731565b73ffffffffffffffffffffffffffffffffffffffff161461222f576040517f08c379a0000000000000000000000000000000000000000000000000000000008152600401612226906142d3565b60405180910390fd5b600073ffffffffffffffffffffffffffffffffffffffff168273ffffffffffffffffffffffffffffffffffffffff160361229e576040517f08c379a000000000000000000000000000000000000000000000000000000000815260040161229590614365565b60405180910390fd5b6122a9838383612943565b6122b4600082611fdf565b6001600360008573ffffffffffffffffffffffffffffffffffffffff1673ffffffffffffffffffffffffffffffffffffffff16815260200190815260200160002060008282546123049190614385565b925050819055506001600360008473ffffffffffffffffffffffffffffffffffffffff1673ffffffffffffffffffffffffffffffffffffffff168152602001908152602001600020600082825461235b9190613c4b565b92505081905550816002600083815260200190815260200160002060006101000a81548173ffffffffffffffffffffffffffffffffffffffff021916908373ffffffffffffffffffffffffffffffffffffffff160217905550808273ffffffffffffffffffffffffffffffffffffffff168473ffffffffffffffffffffffffffffffffffffffff167fddf252ad1be2c89b69c2b068fc378daa952ba7f163c4a11628f55a4df523b3ef60405160405180910390a461241a838383612948565b505050565b60005b8281101561245157612434600761294d565b61243e8483612963565b808061244990613d31565b915050612422565b50505050565b6000600660009054906101000a900473ffffffffffffffffffffffffffffffffffffffff16905081600660006101000a81548173ffffffffffffffffffffffffffffffffffffffff021916908373ffffffffffffffffffffffffffffffffffffffff1602179055508173ffffffffffffffffffffffffffffffffffffffff168173ffffffffffffffffffffffffffffffffffffffff167f8be0079c531659141344cd1fd0a4f28419497f9722a3daafe3b4186f6b6457e060405160405180910390a35050565b8173ffffffffffffffffffffffffffffffffffffffff168373ffffffffffffffffffffffffffffffffffffffff160361258b576040517f08c379a000000000000000000000000000000000000000000000000000000000815260040161258290614405565b60405180910390fd5b80600560008573ffffffffffffffffffffffffffffffffffffffff1673ffffffffffffffffffffffffffffffffffffffff16815260200190815260200160002060008473ffffffffffffffffffffffffffffffffffffffff1673ffffffffffffffffffffffffffffffffffffffff16815260200190815260200160002060006101000a81548160ff0219169083151502179055508173ffffffffffffffffffffffffffffffffffffffff168373ffffffffffffffffffffffffffffffffffffffff167f17307eab39ab6107e8899845ad3d59bd9653f200f220920489ca2b5937696c318360405161267c9190612e13565b60405180910390a3505050565b6126948484846121b9565b6126a084848484612981565b6126df576040517f08c379a00000000000000000000000000000000000000000000000000000000081526004016126d690614497565b60405180910390fd5b50505050565b60008073ffffffffffffffffffffffffffffffffffffffff166002600084815260200190815260200160002060009054906101000a900473ffffffffffffffffffffffffffffffffffffffff1673ffffffffffffffffffffffffffffffffffffffff1614159050919050565b6060600880546127609061371c565b80601f016020809104026020016040519081016040528092919081815260200182805461278c9061371c565b80156127d95780601f106127ae576101008083540402835291602001916127d9565b820191906000526020600020905b8154815290600101906020018083116127bc57829003601f168201915b5050505050905090565b60606000820361282a576040518060400160405280600181526020017f3000000000000000000000000000000000000000000000000000000000000000815250905061293e565b600082905060005b6000821461285c57808061284590613d31565b915050600a8261285591906144e6565b9150612832565b60008167ffffffffffffffff8111156128785761287761303f565b5b6040519080825280601f01601f1916602001820160405280156128aa5781602001600182028036833780820191505090505b5090505b60008514612937576001826128c39190614385565b9150600a856128d29190614517565b60306128de9190613c4b565b60f81b8183815181106128f4576128f3613aef565b5b60200101907effffffffffffffffffffffffffffffffffffffffffffffffffffffffffffff1916908160001a905350600a8561293091906144e6565b94506128ae565b8093505050505b919050565b505050565b505050565b6001816000016000828254019250508190555050565b61297d828260405180602001604052806000815250612b08565b5050565b60006129a28473ffffffffffffffffffffffffffffffffffffffff16612b63565b15612afb578373ffffffffffffffffffffffffffffffffffffffff1663150b7a026129cb611fd7565b8786866040518563ffffffff1660e01b81526004016129ed949392919061459d565b6020604051808303816000875af1925050508015612a2957506040513d601f19601f82011682018060405250810190612a2691906145fe565b60015b612aab573d8060008114612a59576040519150601f19603f3d011682016040523d82523d6000602084013e612a5e565b606091505b506000815103612aa3576040517f08c379a0000000000000000000000000000000000000000000000000000000008152600401612a9a90614497565b60405180910390fd5b805181602001fd5b63150b7a0260e01b7bffffffffffffffffffffffffffffffffffffffffffffffffffffffff1916817bffffffffffffffffffffffffffffffffffffffffffffffffffffffff191614915050612b00565b600190505b949350505050565b612b128383612b86565b612b1f6000848484612981565b612b5e576040517f08c379a0000000000000000000000000000000000000000000000000000000008152600401612b5590614497565b60405180910390fd5b505050565b6000808273ffffffffffffffffffffffffffffffffffffffff163b119050919050565b600073ffffffffffffffffffffffffffffffffffffffff168273ffffffffffffffffffffffffffffffffffffffff1603612bf5576040517f08c379a0000000000000000000000000000000000000000000000000000000008152600401612bec90614677565b60405180910390fd5b612bfe816126e5565b15612c3e576040517f08c379a0000000000000000000000000000000000000000000000000000000008152600401612c35906146e3565b60405180910390fd5b612c4a60008383612943565b6001600360008473ffffffffffffffffffffffffffffffffffffffff1673ffffffffffffffffffffffffffffffffffffffff1681526020019081526020016000206000828254612c9a9190613c4b565b92505081905550816002600083815260200190815260200160002060006101000a81548173ffffffffffffffffffffffffffffffffffffffff021916908373ffffffffffffffffffffffffffffffffffffffff160217905550808273ffffffffffffffffffffffffffffffffffffffff16600073ffffffffffffffffffffffffffffffffffffffff167fddf252ad1be2c89b69c2b068fc378daa952ba7f163c4a11628f55a4df523b3ef60405160405180910390a4612d5b60008383612948565b5050565b6000604051905090565b600080fd5b600080fd5b60007fffffffff0000000000000000000000000000000000000000000000000000000082169050919050565b612da881612d73565b8114612db357600080fd5b50565b600081359050612dc581612d9f565b92915050565b600060208284031215612de157612de0612d69565b5b6000612def84828501612db6565b91505092915050565b60008115159050919050565b612e0d81612df8565b82525050565b6000602082019050612e286000830184612e04565b92915050565b600081519050919050565b600082825260208201905092915050565b60005b83811015612e68578082015181840152602081019050612e4d565b60008484015250505050565b6000601f19601f8301169050919050565b6000612e9082612e2e565b612e9a8185612e39565b9350612eaa818560208601612e4a565b612eb381612e74565b840191505092915050565b60006020820190508181036000830152612ed88184612e85565b905092915050565b6000819050919050565b612ef381612ee0565b8114612efe57600080fd5b50565b600081359050612f1081612eea565b92915050565b600060208284031215612f2c57612f2b612d69565b5b6000612f3a84828501612f01565b91505092915050565b600073ffffffffffffffffffffffffffffffffffffffff82169050919050565b6000612f6e82612f43565b9050919050565b612f7e81612f63565b82525050565b6000602082019050612f996000830184612f75565b92915050565b612fa881612f63565b8114612fb357600080fd5b50565b600081359050612fc581612f9f565b92915050565b60008060408385031215612fe257612fe1612d69565b5b6000612ff085828601612fb6565b925050602061300185828601612f01565b9150509250929050565b61301481612ee0565b82525050565b600060208201905061302f600083018461300b565b92915050565b600080fd5b600080fd5b7f4e487b7100000000000000000000000000000000000000000000000000000000600052604160045260246000fd5b61307782612e74565b810181811067ffffffffffffffff821117156130965761309561303f565b5b80604052505050565b60006130a9612d5f565b90506130b5828261306e565b919050565b600067ffffffffffffffff8211156130d5576130d461303f565b5b6130de82612e74565b9050602081019050919050565b82818337600083830152505050565b600061310d613108846130ba565b61309f565b9050828152602081018484840111156131295761312861303a565b5b6131348482856130eb565b509392505050565b600082601f83011261315157613150613035565b5b81356131618482602086016130fa565b91505092915050565b6000602082840312156131805761317f612d69565b5b600082013567ffffffffffffffff81111561319e5761319d612d6e565b5b6131aa8482850161313c565b91505092915050565b600081519050919050565b600082825260208201905092915050565b6000819050602082019050919050565b600082825260208201905092915050565b60006131fb82612e2e565b61320581856131df565b9350613215818560208601612e4a565b61321e81612e74565b840191505092915050565b600061323583836131f0565b905092915050565b6000602082019050919050565b6000613255826131b3565b61325f81856131be565b935083602082028501613271856131cf565b8060005b858110156132ad578484038952815161328e8582613229565b94506132998361323d565b925060208a01995050600181019050613275565b50829750879550505050505092915050565b600060208201905081810360008301526132d9818461324a565b905092915050565b6000806000606084860312156132fa576132f9612d69565b5b600061330886828701612fb6565b935050602061331986828701612fb6565b925050604061332a86828701612f01565b9150509250925092565b60008060006060848603121561334d5761334c612d69565b5b600061335b86828701612f01565b935050602061336c86828701612fb6565b925050604061337d86828701612f01565b9150509250925092565b60006020828403121561339d5761339c612d69565b5b60006133ab84828501612fb6565b91505092915050565b600081519050919050565b600082825260208201905092915050565b6000819050602082019050919050565b6133e981612ee0565b82525050565b60006133fb83836133e0565b60208301905092915050565b6000602082019050919050565b600061341f826133b4565b61342981856133bf565b9350613434836133d0565b8060005b8381101561346557815161344c88826133ef565b975061345783613407565b925050600181019050613438565b5085935050505092915050565b6000602082019050818103600083015261348c8184613414565b905092915050565b600080604083850312156134ab576134aa612d69565b5b60006134b985828601612f01565b925050602083013567ffffffffffffffff8111156134da576134d9612d6e565b5b6134e68582860161313c565b9150509250929050565b6134f981612df8565b811461350457600080fd5b50565b600081359050613516816134f0565b92915050565b6000806040838503121561353357613532612d69565b5b600061354185828601612fb6565b925050602061355285828601613507565b9150509250929050565b600067ffffffffffffffff8211156135775761357661303f565b5b61358082612e74565b9050602081019050919050565b60006135a061359b8461355c565b61309f565b9050828152602081018484840111156135bc576135bb61303a565b5b6135c78482856130eb565b509392505050565b600082601f8301126135e4576135e3613035565b5b81356135f484826020860161358d565b91505092915050565b6000806000806080858703121561361757613616612d69565b5b600061362587828801612fb6565b945050602061363687828801612fb6565b935050604061364787828801612f01565b925050606085013567ffffffffffffffff81111561366857613667612d6e565b5b613674878288016135cf565b91505092959194509250565b60006020828403121561369657613695612d69565b5b60006136a484828501613507565b91505092915050565b600080604083850312156136c4576136c3612d69565b5b60006136d285828601612fb6565b92505060206136e385828601612fb6565b9150509250929050565b7f4e487b7100000000000000000000000000000000000000000000000000000000600052602260045260246000fd5b6000600282049050600182168061373457607f821691505b602082108103613747576137466136ed565b5b50919050565b7f4552433732313a20617070726f76616c20746f2063757272656e74206f776e6560008201527f7200000000000000000000000000000000000000000000000000000000000000602082015250565b60006137a9602183612e39565b91506137b48261374d565b604082019050919050565b600060208201905081810360008301526137d88161379c565b9050919050565b7f4552433732313a20617070726f76652063616c6c6572206973206e6f7420746f60008201527f6b656e206f776e6572206e6f7220617070726f76656420666f7220616c6c0000602082015250565b600061383b603e83612e39565b9150613846826137df565b604082019050919050565b6000602082019050818103600083015261386a8161382e565b9050919050565b60008190508160005260206000209050919050565b60006020601f8301049050919050565b600082821b905092915050565b6000600883026138d37fffffffffffffffffffffffffffffffffffffffffffffffffffffffffffffffff82613896565b6138dd8683613896565b95508019841693508086168417925050509392505050565b6000819050919050565b600061391a61391561391084612ee0565b6138f5565b612ee0565b9050919050565b6000819050919050565b613934836138ff565b61394861394082613921565b8484546138a3565b825550505050565b600090565b61395d613950565b61396881848461392b565b505050565b5b8181101561398c57613981600082613955565b60018101905061396e565b5050565b601f8211156139d1576139a281613871565b6139ab84613886565b810160208510156139ba578190505b6139ce6139c685613886565b83018261396d565b50505b505050565b600082821c905092915050565b60006139f4600019846008026139d6565b1980831691505092915050565b6000613a0d83836139e3565b9150826002028217905092915050565b613a2682612e2e565b67ffffffffffffffff811115613a3f57613a3e61303f565b5b613a49825461371c565b613a54828285613990565b600060209050601f831160018114613a875760008415613a75578287015190505b613a7f8582613a01565b865550613ae7565b601f198416613a9586613871565b60005b82811015613abd57848901518255600182019150602085019450602081019050613a98565b86831015613ada5784890151613ad6601f8916826139e3565b8355505b6001600288020188555050505b505050505050565b7f4e487b7100000000000000000000000000000000000000000000000000000000600052603260045260246000fd5b7f4552433732313a2063616c6c6572206973206e6f7420746f6b656e206f776e6560008201527f72206e6f7220617070726f766564000000000000000000000000000000000000602082015250565b6000613b7a602e83612e39565b9150613b8582613b1e565b604082019050919050565b60006020820190508181036000830152613ba981613b6d565b9050919050565b7f496e76616c6964206d696e7420616d6f756e7421000000000000000000000000600082015250565b6000613be6601483612e39565b9150613bf182613bb0565b602082019050919050565b60006020820190508181036000830152613c1581613bd9565b9050919050565b7f4e487b7100000000000000000000000000000000000000000000000000000000600052601160045260246000fd5b6000613c5682612ee0565b9150613c6183612ee0565b9250828201905080821115613c7957613c78613c1c565b5b92915050565b7f4d617820737570706c7920657863656564656421000000000000000000000000600082015250565b6000613cb5601483612e39565b9150613cc082613c7f565b602082019050919050565b60006020820190508181036000830152613ce481613ca8565b9050919050565b600081905092915050565b50565b6000613d06600083613ceb565b9150613d1182613cf6565b600082019050919050565b6000613d2782613cf9565b9150819050919050565b6000613d3c82612ee0565b91507fffffffffffffffffffffffffffffffffffffffffffffffffffffffffffffffff8203613d6e57613d6d613c1c565b5b600182019050919050565b7f4e4f204e4f204e4f204e4f000000000000000000000000000000000000000000600082015250565b6000613daf600b83612e39565b9150613dba82613d79565b602082019050919050565b60006020820190508181036000830152613dde81613da2565b9050919050565b7f4552433732313a20696e76616c696420746f6b656e2049440000000000000000600082015250565b6000613e1b601883612e39565b9150613e2682613de5565b602082019050919050565b60006020820190508181036000830152613e4a81613e0e565b9050919050565b7f4552433732313a2061646472657373207a65726f206973206e6f74206120766160008201527f6c6964206f776e65720000000000000000000000000000000000000000000000602082015250565b6000613ead602983612e39565b9150613eb882613e51565b604082019050919050565b60006020820190508181036000830152613edc81613ea0565b9050919050565b7f496e73756666696369656e742066756e64732100000000000000000000000000600082015250565b6000613f19601383612e39565b9150613f2482613ee3565b602082019050919050565b60006020820190508181036000830152613f4881613f0c565b9050919050565b7f5468697320746f6b656e2068617320616c7265616479206265656e206d696e7460008201527f6564000000000000000000000000000000000000000000000000000000000000602082015250565b6000613fab602283612e39565b9150613fb682613f4f565b604082019050919050565b60006020820190508181036000830152613fda81613f9e565b9050919050565b7f4552433732314d657461646174613a2055524920717565727920666f72206e6f60008201527f6e6578697374656e7420746f6b656e0000000000000000000000000000000000602082015250565b600061403d602f83612e39565b915061404882613fe1565b604082019050919050565b6000602082019050818103600083015261406c81614030565b9050919050565b600081905092915050565b600061408982612e2e565b6140938185614073565b93506140a3818560208601612e4a565b80840191505092915050565b600081546140bc8161371c565b6140c68186614073565b945060018216600081146140e157600181146140f657614129565b60ff1983168652811515820286019350614129565b6140ff85613871565b60005b8381101561412157815481890152600182019150602081019050614102565b838801955050505b50505092915050565b600061413e828661407e565b915061414a828561407e565b915061415682846140af565b9150819050949350505050565b7f4f776e61626c653a206e6577206f776e657220697320746865207a65726f206160008201527f6464726573730000000000000000000000000000000000000000000000000000602082015250565b60006141bf602683612e39565b91506141ca82614163565b604082019050919050565b600060208201905081810360008301526141ee816141b2565b9050919050565b7f4f776e61626c653a2063616c6c6572206973206e6f7420746865206f776e6572600082015250565b600061422b602083612e39565b9150614236826141f5565b602082019050919050565b6000602082019050818103600083015261425a8161421e565b9050919050565b7f4552433732313a207472616e736665722066726f6d20696e636f72726563742060008201527f6f776e6572000000000000000000000000000000000000000000000000000000602082015250565b60006142bd602583612e39565b91506142c882614261565b604082019050919050565b600060208201905081810360008301526142ec816142b0565b9050919050565b7f4552433732313a207472616e7366657220746f20746865207a65726f2061646460008201527f7265737300000000000000000000000000000000000000000000000000000000602082015250565b600061434f602483612e39565b915061435a826142f3565b604082019050919050565b6000602082019050818103600083015261437e81614342565b9050919050565b600061439082612ee0565b915061439b83612ee0565b92508282039050818111156143b3576143b2613c1c565b5b92915050565b7f4552433732313a20617070726f766520746f2063616c6c657200000000000000600082015250565b60006143ef601983612e39565b91506143fa826143b9565b602082019050919050565b6000602082019050818103600083015261441e816143e2565b9050919050565b7f4552433732313a207472616e7366657220746f206e6f6e20455243373231526560008201527f63656976657220696d706c656d656e7465720000000000000000000000000000602082015250565b6000614481603283612e39565b915061448c82614425565b604082019050919050565b600060208201905081810360008301526144b081614474565b9050919050565b7f4e487b7100000000000000000000000000000000000000000000000000000000600052601260045260246000fd5b60006144f182612ee0565b91506144fc83612ee0565b92508261450c5761450b6144b7565b5b828204905092915050565b600061452282612ee0565b915061452d83612ee0565b92508261453d5761453c6144b7565b5b828206905092915050565b600081519050919050565b600082825260208201905092915050565b600061456f82614548565b6145798185614553565b9350614589818560208601612e4a565b61459281612e74565b840191505092915050565b60006080820190506145b26000830187612f75565b6145bf6020830186612f75565b6145cc604083018561300b565b81810360608301526145de8184614564565b905095945050505050565b6000815190506145f881612d9f565b92915050565b60006020828403121561461457614613612d69565b5b6000614622848285016145e9565b91505092915050565b7f4552433732313a206d696e7420746f20746865207a65726f2061646472657373600082015250565b6000614661602083612e39565b915061466c8261462b565b602082019050919050565b6000602082019050818103600083015261469081614654565b9050919050565b7f4552433732313a20746f6b656e20616c7265616479206d696e74656400000000600082015250565b60006146cd601c83612e39565b91506146d882614697565b602082019050919050565b600060208201905081810360008301526146fc816146c0565b905091905056fea2646970667358221220cec3e73d224b416980e745541c00531f5655b0dc1fce71451c1a88ee1df3b5f164736f6c6343000810003368747470733a2f2f676174657761792e70696e6174612e636c6f75642f697066732f516d64484d32537132337362727a696a6a796f776e514c5448436a70653539697470395241314474706259513469",
  "linkReferences": {},
  "deployedLinkReferences": {}
}