{
  "_format": "hh-sol-artifact-1",
  "contractName": "SimpleNft",
  "sourceName": "contracts/SimpleNft.sol",
  "abi": [
    {
      "inputs": [],
      "stateMutability": "nonpayable",
      "type": "constructor"
    },
    {
      "anonymous": false,
      "inputs": [
        {
          "indexed": true,
          "internalType": "address",
          "name": "owner",
          "type": "address"
        },
        {
          "indexed": true,
          "internalType": "address",
          "name": "approved",
          "type": "address"
        },
        {
          "indexed": true,
          "internalType": "uint256",
          "name": "tokenId",
          "type": "uint256"
        }
      ],
      "name": "Approval",
      "type": "event"
    },
    {
      "anonymous": false,
      "inputs": [
        {
          "indexed": true,
          "internalType": "address",
          "name": "owner",
          "type": "address"
        },
        {
          "indexed": true,
          "internalType": "address",
          "name": "operator",
          "type": "address"
        },
        {
          "indexed": false,
          "internalType": "bool",
          "name": "approved",
          "type": "bool"
        }
      ],
      "name": "ApprovalForAll",
      "type": "event"
    },
    {
      "anonymous": false,
      "inputs": [
        {
          "indexed": true,
          "internalType": "address",
          "name": "previousOwner",
          "type": "address"
        },
        {
          "indexed": true,
          "internalType": "address",
          "name": "newOwner",
          "type": "address"
        }
      ],
      "name": "OwnershipTransferred",
      "type": "event"
    },
    {
      "anonymous": false,
      "inputs": [
        {
          "indexed": true,
          "internalType": "address",
          "name": "from",
          "type": "address"
        },
        {
          "indexed": true,
          "internalType": "address",
          "name": "to",
          "type": "address"
        },
        {
          "indexed": true,
          "internalType": "uint256",
          "name": "tokenId",
          "type": "uint256"
        }
      ],
      "name": "Transfer",
      "type": "event"
    },
    {
      "inputs": [
        {
          "internalType": "address",
          "name": "to",
          "type": "address"
        },
        {
          "internalType": "uint256",
          "name": "tokenId",
          "type": "uint256"
        }
      ],
      "name": "approve",
      "outputs": [],
      "stateMutability": "nonpayable",
      "type": "function"
    },
    {
      "inputs": [
        {
          "internalType": "address",
          "name": "owner",
          "type": "address"
        }
      ],
      "name": "balanceOf",
      "outputs": [
        {
          "internalType": "uint256",
          "name": "",
          "type": "uint256"
        }
      ],
      "stateMutability": "view",
      "type": "function"
    },
    {
      "inputs": [],
      "name": "cost",
      "outputs": [
        {
          "internalType": "uint256",
          "name": "",
          "type": "uint256"
        }
      ],
      "stateMutability": "view",
      "type": "function"
    },
    {
      "inputs": [
        {
          "internalType": "uint256",
          "name": "tokenId",
          "type": "uint256"
        }
      ],
      "name": "getApproved",
      "outputs": [
        {
          "internalType": "address",
          "name": "",
          "type": "address"
        }
      ],
      "stateMutability": "view",
      "type": "function"
    },
    {
      "inputs": [],
      "name": "getImageUrls",
      "outputs": [
        {
          "internalType": "string[]",
          "name": "",
          "type": "string[]"
        }
      ],
      "stateMutability": "view",
      "type": "function"
    },
    {
      "inputs": [],
      "name": "hiddenMetadataUri",
      "outputs": [
        {
          "internalType": "string",
          "name": "",
          "type": "string"
        }
      ],
      "stateMutability": "view",
      "type": "function"
    },
    {
      "inputs": [
        {
          "internalType": "address",
          "name": "owner",
          "type": "address"
        },
        {
          "internalType": "address",
          "name": "operator",
          "type": "address"
        }
      ],
      "name": "isApprovedForAll",
      "outputs": [
        {
          "internalType": "bool",
          "name": "",
          "type": "bool"
        }
      ],
      "stateMutability": "view",
      "type": "function"
    },
    {
      "inputs": [],
      "name": "maxMintAmountPerTx",
      "outputs": [
        {
          "internalType": "uint256",
          "name": "",
          "type": "uint256"
        }
      ],
      "stateMutability": "view",
      "type": "function"
    },
    {
      "inputs": [],
      "name": "maxSupply",
      "outputs": [
        {
          "internalType": "uint256",
          "name": "",
          "type": "uint256"
        }
      ],
      "stateMutability": "view",
      "type": "function"
    },
    {
      "inputs": [
        {
          "internalType": "uint256",
          "name": "_tokenID",
          "type": "uint256"
        }
      ],
      "name": "mint",
      "outputs": [],
      "stateMutability": "payable",
      "type": "function"
    },
    {
      "inputs": [
        {
          "internalType": "uint256",
          "name": "_mintAmount",
          "type": "uint256"
        },
        {
          "internalType": "address",
          "name": "_receiver",
          "type": "address"
        },
        {
          "internalType": "uint256",
          "name": "_tokenID",
          "type": "uint256"
        }
      ],
      "name": "mintForAddress",
      "outputs": [],
      "stateMutability": "nonpayable",
      "type": "function"
    },
    {
      "inputs": [],
      "name": "name",
      "outputs": [
        {
          "internalType": "string",
          "name": "",
          "type": "string"
        }
      ],
      "stateMutability": "view",
      "type": "function"
    },
    {
      "inputs": [],
      "name": "owner",
      "outputs": [
        {
          "internalType": "address",
          "name": "",
          "type": "address"
        }
      ],
      "stateMutability": "view",
      "type": "function"
    },
    {
      "inputs": [
        {
          "internalType": "uint256",
          "name": "tokenId",
          "type": "uint256"
        }
      ],
      "name": "ownerOf",
      "outputs": [
        {
          "internalType": "address",
          "name": "",
          "type": "address"
        }
      ],
      "stateMutability": "view",
      "type": "function"
    },
    {
      "inputs": [],
      "name": "renounceOwnership",
      "outputs": [],
      "stateMutability": "nonpayable",
      "type": "function"
    },
    {
      "inputs": [],
      "name": "revealed",
      "outputs": [
        {
          "internalType": "bool",
          "name": "",
          "type": "bool"
        }
      ],
      "stateMutability": "view",
      "type": "function"
    },
    {
      "inputs": [
        {
          "internalType": "address",
          "name": "from",
          "type": "address"
        },
        {
          "internalType": "address",
          "name": "to",
          "type": "address"
        },
        {
          "internalType": "uint256",
          "name": "tokenId",
          "type": "uint256"
        }
      ],
      "name": "safeTransferFrom",
      "outputs": [],
      "stateMutability": "nonpayable",
      "type": "function"
    },
    {
      "inputs": [
        {
          "internalType": "address",
          "name": "from",
          "type": "address"
        },
        {
          "internalType": "address",
          "name": "to",
          "type": "address"
        },
        {
          "internalType": "uint256",
          "name": "tokenId",
          "type": "uint256"
        },
        {
          "internalType": "bytes",
          "name": "data",
          "type": "bytes"
        }
      ],
      "name": "safeTransferFrom",
      "outputs": [],
      "stateMutability": "nonpayable",
      "type": "function"
    },
    {
      "inputs": [
        {
          "internalType": "address",
          "name": "operator",
          "type": "address"
        },
        {
          "internalType": "bool",
          "name": "approved",
          "type": "bool"
        }
      ],
      "name": "setApprovalForAll",
      "outputs": [],
      "stateMutability": "nonpayable",
      "type": "function"
    },
    {
      "inputs": [
        {
          "internalType": "uint256",
          "name": "_cost",
          "type": "uint256"
        }
      ],
      "name": "setCost",
      "outputs": [],
      "stateMutability": "nonpayable",
      "type": "function"
    },
    {
      "inputs": [
        {
          "internalType": "string",
          "name": "_hiddenMetadataUri",
          "type": "string"
        }
      ],
      "name": "setHiddenMetadataUri",
      "outputs": [],
      "stateMutability": "nonpayable",
      "type": "function"
    },
    {
      "inputs": [
        {
          "internalType": "uint256",
          "name": "_maxMintAmountPerTx",
          "type": "uint256"
        }
      ],
      "name": "setMaxMintAmountPerTx",
      "outputs": [],
      "stateMutability": "nonpayable",
      "type": "function"
    },
    {
      "inputs": [
        {
          "internalType": "bool",
          "name": "_state",
          "type": "bool"
        }
      ],
      "name": "setRevealed",
      "outputs": [],
      "stateMutability": "nonpayable",
      "type": "function"
    },
    {
      "inputs": [
        {
          "internalType": "string",
          "name": "_uriPrefix",
          "type": "string"
        }
      ],
      "name": "setUriPrefix",
      "outputs": [],
      "stateMutability": "nonpayable",
      "type": "function"
    },
    {
      "inputs": [
        {
          "internalType": "string",
          "name": "_uriSuffix",
          "type": "string"
        }
      ],
      "name": "setUriSuffix",
      "outputs": [],
      "stateMutability": "nonpayable",
      "type": "function"
    },
    {
      "inputs": [
        {
          "internalType": "bytes4",
          "name": "interfaceId",
          "type": "bytes4"
        }
      ],
      "name": "supportsInterface",
      "outputs": [
        {
          "internalType": "bool",
          "name": "",
          "type": "bool"
        }
      ],
      "stateMutability": "view",
      "type": "function"
    },
    {
      "inputs": [],
      "name": "symbol",
      "outputs": [
        {
          "internalType": "string",
          "name": "",
          "type": "string"
        }
      ],
      "stateMutability": "view",
      "type": "function"
    },
    {
      "inputs": [
        {
          "internalType": "uint256",
          "name": "_tokenId",
          "type": "uint256"
        }
      ],
      "name": "tokenURI",
      "outputs": [
        {
          "internalType": "string",
          "name": "",
          "type": "string"
        }
      ],
      "stateMutability": "view",
      "type": "function"
    },
    {
      "inputs": [],
      "name": "totalSupply",
      "outputs": [
        {
          "internalType": "uint256",
          "name": "",
          "type": "uint256"
        }
      ],
      "stateMutability": "view",
      "type": "function"
    },
    {
      "inputs": [
        {
          "internalType": "address",
          "name": "from",
          "type": "address"
        },
        {
          "internalType": "address",
          "name": "to",
          "type": "address"
        },
        {
          "internalType": "uint256",
          "name": "tokenId",
          "type": "uint256"
        }
      ],
      "name": "transferFrom",
      "outputs": [],
      "stateMutability": "nonpayable",
      "type": "function"
    },
    {
      "inputs": [
        {
          "internalType": "address",
          "name": "newOwner",
          "type": "address"
        }
      ],
      "name": "transferOwnership",
      "outputs": [],
      "stateMutability": "nonpayable",
      "type": "function"
    },
    {
      "inputs": [
        {
          "internalType": "uint256",
          "name": "id",
          "type": "uint256"
        },
        {
          "internalType": "string",
          "name": "url",
          "type": "string"
        }
      ],
      "name": "updateImageUrls",
      "outputs": [],
      "stateMutability": "payable",
      "type": "function"
    },
    {
      "inputs": [],
      "name": "uriPrefix",
      "outputs": [
        {
          "internalType": "string",
          "name": "",
          "type": "string"
        }
      ],
      "stateMutability": "view",
      "type": "function"
    },
    {
      "inputs": [],
      "name": "uriSuffix",
      "outputs": [
        {
          "internalType": "string",
          "name": "",
          "type": "string"
        }
      ],
      "stateMutability": "view",
      "type": "function"
    },
    {
      "inputs": [
        {
          "internalType": "address",
          "name": "_owner",
          "type": "address"
        }
      ],
      "name": "walletOfOwner",
      "outputs": [
        {
          "internalType": "uint256[]",
          "name": "",
          "type": "uint256[]"
        }
      ],
      "stateMutability": "view",
      "type": "function"
    },
    {
      "inputs": [],
      "name": "withdraw",
      "outputs": [],
      "stateMutability": "nonpayable",
      "type": "function"
    }
  ],
  "bytecode": "0x60806040526040518060200160405280600081525060089081620000249190620006df565b506040518060400160405280600581526020017f2e6a736f6e000000000000000000000000000000000000000000000000000000815250600990816200006b9190620006df565b506000600b556115b3600c556001600d556000600e60006101000a81548160ff021916908315150217905550348015620000a457600080fd5b506040518060400160405280600981526020017f53696d706c654e465400000000000000000000000000000000000000000000008152506040518060400160405280600481526020017f734e4654000000000000000000000000000000000000000000000000000000008152508160009081620001229190620006df565b508060019081620001349190620006df565b505050620001576200014b620002b760201b60201c565b620002bf60201b60201c565b6200018160405180608001604052806050815260200162004d18605091396200038560201b60201c565b60405180608001604052806059815260200162004c6660599139601060008081526020019081526020016000209081620001bc9190620006df565b5060405180608001604052806059815260200162004d686059913960106000600181526020019081526020016000209081620001f99190620006df565b5060405180608001604052806059815260200162004cbf6059913960106000600281526020019081526020016000209081620002369190620006df565b5060405180608001604052806059815260200162004c0d6059913960106000600281526020019081526020016000209081620002739190620006df565b5060405180608001604052806059815260200162004bb46059913960106000600381526020019081526020016000209081620002b09190620006df565b5062000849565b600033905090565b6000600660009054906101000a900473ffffffffffffffffffffffffffffffffffffffff16905081600660006101000a81548173ffffffffffffffffffffffffffffffffffffffff021916908373ffffffffffffffffffffffffffffffffffffffff1602179055508173ffffffffffffffffffffffffffffffffffffffff168173ffffffffffffffffffffffffffffffffffffffff167f8be0079c531659141344cd1fd0a4f28419497f9722a3daafe3b4186f6b6457e060405160405180910390a35050565b62000395620003aa60201b60201c565b80600a9081620003a69190620006df565b5050565b620003ba620002b760201b60201c565b73ffffffffffffffffffffffffffffffffffffffff16620003e06200043b60201b60201c565b73ffffffffffffffffffffffffffffffffffffffff161462000439576040517f08c379a0000000000000000000000000000000000000000000000000000000008152600401620004309062000827565b60405180910390fd5b565b6000600660009054906101000a900473ffffffffffffffffffffffffffffffffffffffff16905090565b600081519050919050565b7f4e487b7100000000000000000000000000000000000000000000000000000000600052604160045260246000fd5b7f4e487b7100000000000000000000000000000000000000000000000000000000600052602260045260246000fd5b60006002820490506001821680620004e757607f821691505b602082108103620004fd57620004fc6200049f565b5b50919050565b60008190508160005260206000209050919050565b60006020601f8301049050919050565b600082821b905092915050565b600060088302620005677fffffffffffffffffffffffffffffffffffffffffffffffffffffffffffffffff8262000528565b62000573868362000528565b95508019841693508086168417925050509392505050565b6000819050919050565b6000819050919050565b6000620005c0620005ba620005b4846200058b565b62000595565b6200058b565b9050919050565b6000819050919050565b620005dc836200059f565b620005f4620005eb82620005c7565b84845462000535565b825550505050565b600090565b6200060b620005fc565b62000618818484620005d1565b505050565b5b8181101562000640576200063460008262000601565b6001810190506200061e565b5050565b601f8211156200068f57620006598162000503565b620006648462000518565b8101602085101562000674578190505b6200068c620006838562000518565b8301826200061d565b50505b505050565b600082821c905092915050565b6000620006b46000198460080262000694565b1980831691505092915050565b6000620006cf8383620006a1565b9150826002028217905092915050565b620006ea8262000465565b67ffffffffffffffff81111562000706576200070562000470565b5b620007128254620004ce565b6200071f82828562000644565b600060209050601f83116001811462000757576000841562000742578287015190505b6200074e8582620006c1565b865550620007be565b601f198416620007678662000503565b60005b8281101562000791578489015182556001820191506020850194506020810190506200076a565b86831015620007b15784890151620007ad601f891682620006a1565b8355505b6001600288020188555050505b505050505050565b600082825260208201905092915050565b7f4f776e61626c653a2063616c6c6572206973206e6f7420746865206f776e6572600082015250565b60006200080f602083620007c6565b91506200081c82620007d7565b602082019050919050565b60006020820190508181036000830152620008428162000800565b9050919050565b61435b80620008596000396000f3fe60806040526004361061020f5760003560e01c806362b99ad411610118578063a22cb465116100a0578063c87b56dd1161006f578063c87b56dd14610747578063d5abeb0114610784578063e0a80853146107af578063e985e9c5146107d8578063f2fde38b146108155761020f565b8063a22cb465146106a1578063a45ba8e7146106ca578063b071401b146106f5578063b88d4fde1461071e5761020f565b80637ec4a659116100e75780637ec4a659146105db5780638da5cb5b1461060457806394354fd01461062f57806395d89b411461065a578063a0712d68146106855761020f565b806362b99ad41461051f5780636352211e1461054a57806370a0823114610587578063715018a6146105c45761020f565b806325beba9d1161019b57806344a0d68a1161016a57806344a0d68a1461045b57806345a1b08b146104845780634fdd43cb146104a057806351830227146104c95780635503a0e8146104f45761020f565b806325beba9d146103b55780633ccfd60b146103de57806342842e0e146103f5578063438b63001461041e5761020f565b806313faede6116101e257806313faede6146102e257806316ba10e01461030d57806318160ddd146103365780631868611b1461036157806323b872dd1461038c5761020f565b806301ffc9a71461021457806306fdde0314610251578063081812fc1461027c578063095ea7b3146102b9575b600080fd5b34801561022057600080fd5b5061023b60048036038101906102369190612b6e565b61083e565b6040516102489190612bb6565b60405180910390f35b34801561025d57600080fd5b50610266610920565b6040516102739190612c61565b60405180910390f35b34801561028857600080fd5b506102a3600480360381019061029e9190612cb9565b6109b2565b6040516102b09190612d27565b60405180910390f35b3480156102c557600080fd5b506102e060048036038101906102db9190612d6e565b6109f8565b005b3480156102ee57600080fd5b506102f7610b0f565b6040516103049190612dbd565b60405180910390f35b34801561031957600080fd5b50610334600480360381019061032f9190612f0d565b610b15565b005b34801561034257600080fd5b5061034b610b30565b6040516103589190612dbd565b60405180910390f35b34801561036d57600080fd5b50610376610b41565b6040516103839190613062565b60405180910390f35b34801561039857600080fd5b506103b360048036038101906103ae9190613084565b611239565b005b3480156103c157600080fd5b506103dc60048036038101906103d791906130d7565b611299565b005b3480156103ea57600080fd5b506103f361135d565b005b34801561040157600080fd5b5061041c60048036038101906104179190613084565b6113e5565b005b34801561042a57600080fd5b506104456004803603810190610440919061312a565b611405565b6040516104529190613215565b60405180910390f35b34801561046757600080fd5b50610482600480360381019061047d9190612cb9565b61150f565b005b61049e60048036038101906104999190613237565b611521565b005b3480156104ac57600080fd5b506104c760048036038101906104c29190612f0d565b6115e7565b005b3480156104d557600080fd5b506104de611602565b6040516104eb9190612bb6565b60405180910390f35b34801561050057600080fd5b50610509611615565b6040516105169190612c61565b60405180910390f35b34801561052b57600080fd5b506105346116a3565b6040516105419190612c61565b60405180910390f35b34801561055657600080fd5b50610571600480360381019061056c9190612cb9565b611731565b60405161057e9190612d27565b60405180910390f35b34801561059357600080fd5b506105ae60048036038101906105a9919061312a565b6117e2565b6040516105bb9190612dbd565b60405180910390f35b3480156105d057600080fd5b506105d9611899565b005b3480156105e757600080fd5b5061060260048036038101906105fd9190612f0d565b6118ad565b005b34801561061057600080fd5b506106196118c8565b6040516106269190612d27565b60405180910390f35b34801561063b57600080fd5b506106446118f2565b6040516106519190612dbd565b60405180910390f35b34801561066657600080fd5b5061066f6118f8565b60405161067c9190612c61565b60405180910390f35b61069f600480360381019061069a9190612cb9565b61198a565b005b3480156106ad57600080fd5b506106c860048036038101906106c391906132bf565b611b70565b005b3480156106d657600080fd5b506106df611b86565b6040516106ec9190612c61565b60405180910390f35b34801561070157600080fd5b5061071c60048036038101906107179190612cb9565b611c14565b005b34801561072a57600080fd5b50610745600480360381019061074091906133a0565b611c26565b005b34801561075357600080fd5b5061076e60048036038101906107699190612cb9565b611c88565b60405161077b9190612c61565b60405180910390f35b34801561079057600080fd5b50610799611d75565b6040516107a69190612dbd565b60405180910390f35b3480156107bb57600080fd5b506107d660048036038101906107d19190613423565b611d7b565b005b3480156107e457600080fd5b506107ff60048036038101906107fa9190613450565b611da0565b60405161080c9190612bb6565b60405180910390f35b34801561082157600080fd5b5061083c6004803603810190610837919061312a565b611e34565b005b60007f80ac58cd000000000000000000000000000000000000000000000000000000007bffffffffffffffffffffffffffffffffffffffffffffffffffffffff1916827bffffffffffffffffffffffffffffffffffffffffffffffffffffffff1916148061090957507f5b5e139f000000000000000000000000000000000000000000000000000000007bffffffffffffffffffffffffffffffffffffffffffffffffffffffff1916827bffffffffffffffffffffffffffffffffffffffffffffffffffffffff1916145b80610919575061091882611eb7565b5b9050919050565b60606000805461092f906134bf565b80601f016020809104026020016040519081016040528092919081815260200182805461095b906134bf565b80156109a85780601f1061097d576101008083540402835291602001916109a8565b820191906000526020600020905b81548152906001019060200180831161098b57829003601f168201915b5050505050905090565b60006109bd82611f21565b6004600083815260200190815260200160002060009054906101000a900473ffffffffffffffffffffffffffffffffffffffff169050919050565b6000610a0382611731565b90508073ffffffffffffffffffffffffffffffffffffffff168373ffffffffffffffffffffffffffffffffffffffff1603610a73576040517f08c379a0000000000000000000000000000000000000000000000000000000008152600401610a6a90613562565b60405180910390fd5b8073ffffffffffffffffffffffffffffffffffffffff16610a92611f6c565b73ffffffffffffffffffffffffffffffffffffffff161480610ac15750610ac081610abb611f6c565b611da0565b5b610b00576040517f08c379a0000000000000000000000000000000000000000000000000000000008152600401610af7906135f4565b60405180910390fd5b610b0a8383611f74565b505050565b600b5481565b610b1d61202d565b8060099081610b2c91906137c0565b5050565b6000610b3c60076120ab565b905090565b60606000600967ffffffffffffffff811115610b6057610b5f612de2565b5b604051908082528060200260200182016040528015610b9357816020015b6060815260200190600190039081610b7e5790505b50905060106000600181526020019081526020016000208054610bb5906134bf565b80601f0160208091040260200160405190810160405280929190818152602001828054610be1906134bf565b8015610c2e5780601f10610c0357610100808354040283529160200191610c2e565b820191906000526020600020905b815481529060010190602001808311610c1157829003601f168201915b505050505081600081518110610c4757610c46613892565b5b602002602001018190525060106000600281526020019081526020016000208054610c71906134bf565b80601f0160208091040260200160405190810160405280929190818152602001828054610c9d906134bf565b8015610cea5780601f10610cbf57610100808354040283529160200191610cea565b820191906000526020600020905b815481529060010190602001808311610ccd57829003601f168201915b505050505081600181518110610d0357610d02613892565b5b602002602001018190525060106000600381526020019081526020016000208054610d2d906134bf565b80601f0160208091040260200160405190810160405280929190818152602001828054610d59906134bf565b8015610da65780601f10610d7b57610100808354040283529160200191610da6565b820191906000526020600020905b815481529060010190602001808311610d8957829003601f168201915b505050505081600281518110610dbf57610dbe613892565b5b602002602001018190525060106000600481526020019081526020016000208054610de9906134bf565b80601f0160208091040260200160405190810160405280929190818152602001828054610e15906134bf565b8015610e625780601f10610e3757610100808354040283529160200191610e62565b820191906000526020600020905b815481529060010190602001808311610e4557829003601f168201915b505050505081600381518110610e7b57610e7a613892565b5b602002602001018190525060106000600581526020019081526020016000208054610ea5906134bf565b80601f0160208091040260200160405190810160405280929190818152602001828054610ed1906134bf565b8015610f1e5780601f10610ef357610100808354040283529160200191610f1e565b820191906000526020600020905b815481529060010190602001808311610f0157829003601f168201915b505050505081600481518110610f3757610f36613892565b5b602002602001018190525060106000600681526020019081526020016000208054610f61906134bf565b80601f0160208091040260200160405190810160405280929190818152602001828054610f8d906134bf565b8015610fda5780601f10610faf57610100808354040283529160200191610fda565b820191906000526020600020905b815481529060010190602001808311610fbd57829003601f168201915b505050505081600581518110610ff357610ff2613892565b5b60200260200101819052506010600060078152602001908152602001600020805461101d906134bf565b80601f0160208091040260200160405190810160405280929190818152602001828054611049906134bf565b80156110965780601f1061106b57610100808354040283529160200191611096565b820191906000526020600020905b81548152906001019060200180831161107957829003601f168201915b5050505050816006815181106110af576110ae613892565b5b6020026020010181905250601060006008815260200190815260200160002080546110d9906134bf565b80601f0160208091040260200160405190810160405280929190818152602001828054611105906134bf565b80156111525780601f1061112757610100808354040283529160200191611152565b820191906000526020600020905b81548152906001019060200180831161113557829003601f168201915b50505050508160078151811061116b5761116a613892565b5b602002602001018190525060106000600981526020019081526020016000208054611195906134bf565b80601f01602080910402602001604051908101604052809291908181526020018280546111c1906134bf565b801561120e5780601f106111e35761010080835404028352916020019161120e565b820191906000526020600020905b8154815290600101906020018083116111f157829003601f168201915b50505050508160088151811061122757611226613892565b5b60200260200101819052508091505090565b61124a611244611f6c565b826120b9565b611289576040517f08c379a000000000000000000000000000000000000000000000000000000000815260040161128090613933565b60405180910390fd5b61129483838361214e565b505050565b826000811180156112ac5750600d548111155b6112eb576040517f08c379a00000000000000000000000000000000000000000000000000000000081526004016112e29061399f565b60405180910390fd5b600c54816112f960076120ab565b61130391906139ee565b1115611344576040517f08c379a000000000000000000000000000000000000000000000000000000000815260040161133b90613a6e565b60405180910390fd5b61134c61202d565b6113578385846123b4565b50505050565b61136561202d565b600061136f6118c8565b73ffffffffffffffffffffffffffffffffffffffff164760405161139290613abf565b60006040518083038185875af1925050503d80600081146113cf576040519150601f19603f3d011682016040523d82523d6000602084013e6113d4565b606091505b50509050806113e257600080fd5b50565b61140083838360405180602001604052806000815250611c26565b505050565b60606000611412836117e2565b905060008167ffffffffffffffff8111156114305761142f612de2565b5b60405190808252806020026020018201604052801561145e5781602001602082028036833780820191505090505b50905060006001905060005b838110801561147b5750600c548211155b1561150357600061148b83611731565b90508673ffffffffffffffffffffffffffffffffffffffff168173ffffffffffffffffffffffffffffffffffffffff16036114ef57828483815181106114d4576114d3613892565b5b60200260200101818152505081806114eb90613ad4565b9250505b82806114fa90613ad4565b9350505061146a565b82945050505050919050565b61151761202d565b80600b8190555050565b6011600083815260200190815260200160002060009054906101000a900473ffffffffffffffffffffffffffffffffffffffff1673ffffffffffffffffffffffffffffffffffffffff163373ffffffffffffffffffffffffffffffffffffffff16146115c2576040517f08c379a00000000000000000000000000000000000000000000000000000000081526004016115b990613b68565b60405180910390fd5b806010600084815260200190815260200160002090816115e291906137c0565b505050565b6115ef61202d565b80600a90816115fe91906137c0565b5050565b600e60009054906101000a900460ff1681565b60098054611622906134bf565b80601f016020809104026020016040519081016040528092919081815260200182805461164e906134bf565b801561169b5780601f106116705761010080835404028352916020019161169b565b820191906000526020600020905b81548152906001019060200180831161167e57829003601f168201915b505050505081565b600880546116b0906134bf565b80601f01602080910402602001604051908101604052809291908181526020018280546116dc906134bf565b80156117295780601f106116fe57610100808354040283529160200191611729565b820191906000526020600020905b81548152906001019060200180831161170c57829003601f168201915b505050505081565b6000806002600084815260200190815260200160002060009054906101000a900473ffffffffffffffffffffffffffffffffffffffff169050600073ffffffffffffffffffffffffffffffffffffffff168173ffffffffffffffffffffffffffffffffffffffff16036117d9576040517f08c379a00000000000000000000000000000000000000000000000000000000081526004016117d090613bd4565b60405180910390fd5b80915050919050565b60008073ffffffffffffffffffffffffffffffffffffffff168273ffffffffffffffffffffffffffffffffffffffff1603611852576040517f08c379a000000000000000000000000000000000000000000000000000000000815260040161184990613c66565b60405180910390fd5b600360008373ffffffffffffffffffffffffffffffffffffffff1673ffffffffffffffffffffffffffffffffffffffff168152602001908152602001600020549050919050565b6118a161202d565b6118ab60006123ec565b565b6118b561202d565b80600890816118c491906137c0565b5050565b6000600660009054906101000a900473ffffffffffffffffffffffffffffffffffffffff16905090565b600d5481565b606060018054611907906134bf565b80601f0160208091040260200160405190810160405280929190818152602001828054611933906134bf565b80156119805780601f1061195557610100808354040283529160200191611980565b820191906000526020600020905b81548152906001019060200180831161196357829003601f168201915b5050505050905090565b600160008111801561199e5750600d548111155b6119dd576040517f08c379a00000000000000000000000000000000000000000000000000000000081526004016119d49061399f565b60405180910390fd5b600c54816119eb60076120ab565b6119f591906139ee565b1115611a36576040517f08c379a0000000000000000000000000000000000000000000000000000000008152600401611a2d90613a6e565b60405180910390fd5b600b54341015611a7b576040517f08c379a0000000000000000000000000000000000000000000000000000000008152600401611a7290613cd2565b60405180910390fd5b60001515600f600084815260200190815260200160002060009054906101000a900460ff16151514611ae2576040517f08c379a0000000000000000000000000000000000000000000000000000000008152600401611ad990613d64565b60405180910390fd5b6001600f600084815260200190815260200160002060006101000a81548160ff021916908315150217905550336011600084815260200190815260200160002060006101000a81548173ffffffffffffffffffffffffffffffffffffffff021916908373ffffffffffffffffffffffffffffffffffffffff160217905550611b6c336001846123b4565b5050565b611b82611b7b611f6c565b83836124b2565b5050565b600a8054611b93906134bf565b80601f0160208091040260200160405190810160405280929190818152602001828054611bbf906134bf565b8015611c0c5780601f10611be157610100808354040283529160200191611c0c565b820191906000526020600020905b815481529060010190602001808311611bef57829003601f168201915b505050505081565b611c1c61202d565b80600d8190555050565b611c37611c31611f6c565b836120b9565b611c76576040517f08c379a0000000000000000000000000000000000000000000000000000000008152600401611c6d90613933565b60405180910390fd5b611c828484848461261e565b50505050565b6060611c938261267a565b611cd2576040517f08c379a0000000000000000000000000000000000000000000000000000000008152600401611cc990613df6565b60405180910390fd5b601060008381526020019081526020016000208054611cf0906134bf565b80601f0160208091040260200160405190810160405280929190818152602001828054611d1c906134bf565b8015611d695780601f10611d3e57610100808354040283529160200191611d69565b820191906000526020600020905b815481529060010190602001808311611d4c57829003601f168201915b50505050509050919050565b600c5481565b611d8361202d565b80600e60006101000a81548160ff02191690831515021790555050565b6000600560008473ffffffffffffffffffffffffffffffffffffffff1673ffffffffffffffffffffffffffffffffffffffff16815260200190815260200160002060008373ffffffffffffffffffffffffffffffffffffffff1673ffffffffffffffffffffffffffffffffffffffff16815260200190815260200160002060009054906101000a900460ff16905092915050565b611e3c61202d565b600073ffffffffffffffffffffffffffffffffffffffff168173ffffffffffffffffffffffffffffffffffffffff1603611eab576040517f08c379a0000000000000000000000000000000000000000000000000000000008152600401611ea290613e88565b60405180910390fd5b611eb4816123ec565b50565b60007f01ffc9a7000000000000000000000000000000000000000000000000000000007bffffffffffffffffffffffffffffffffffffffffffffffffffffffff1916827bffffffffffffffffffffffffffffffffffffffffffffffffffffffff1916149050919050565b611f2a8161267a565b611f69576040517f08c379a0000000000000000000000000000000000000000000000000000000008152600401611f6090613bd4565b60405180910390fd5b50565b600033905090565b816004600083815260200190815260200160002060006101000a81548173ffffffffffffffffffffffffffffffffffffffff021916908373ffffffffffffffffffffffffffffffffffffffff160217905550808273ffffffffffffffffffffffffffffffffffffffff16611fe783611731565b73ffffffffffffffffffffffffffffffffffffffff167f8c5be1e5ebec7d5bd14f71427d1e84f3dd0314c0f7b2291e5b200ac8c7c3b92560405160405180910390a45050565b612035611f6c565b73ffffffffffffffffffffffffffffffffffffffff166120536118c8565b73ffffffffffffffffffffffffffffffffffffffff16146120a9576040517f08c379a00000000000000000000000000000000000000000000000000000000081526004016120a090613ef4565b60405180910390fd5b565b600081600001549050919050565b6000806120c583611731565b90508073ffffffffffffffffffffffffffffffffffffffff168473ffffffffffffffffffffffffffffffffffffffff16148061210757506121068185611da0565b5b8061214557508373ffffffffffffffffffffffffffffffffffffffff1661212d846109b2565b73ffffffffffffffffffffffffffffffffffffffff16145b91505092915050565b8273ffffffffffffffffffffffffffffffffffffffff1661216e82611731565b73ffffffffffffffffffffffffffffffffffffffff16146121c4576040517f08c379a00000000000000000000000000000000000000000000000000000000081526004016121bb90613f86565b60405180910390fd5b600073ffffffffffffffffffffffffffffffffffffffff168273ffffffffffffffffffffffffffffffffffffffff1603612233576040517f08c379a000000000000000000000000000000000000000000000000000000000815260040161222a90614018565b60405180910390fd5b61223e8383836126e6565b612249600082611f74565b6001600360008573ffffffffffffffffffffffffffffffffffffffff1673ffffffffffffffffffffffffffffffffffffffff16815260200190815260200160002060008282546122999190614038565b925050819055506001600360008473ffffffffffffffffffffffffffffffffffffffff1673ffffffffffffffffffffffffffffffffffffffff16815260200190815260200160002060008282546122f091906139ee565b92505081905550816002600083815260200190815260200160002060006101000a81548173ffffffffffffffffffffffffffffffffffffffff021916908373ffffffffffffffffffffffffffffffffffffffff160217905550808273ffffffffffffffffffffffffffffffffffffffff168473ffffffffffffffffffffffffffffffffffffffff167fddf252ad1be2c89b69c2b068fc378daa952ba7f163c4a11628f55a4df523b3ef60405160405180910390a46123af8383836126eb565b505050565b60005b828110156123e6576123c960076126f0565b6123d38483612706565b80806123de90613ad4565b9150506123b7565b50505050565b6000600660009054906101000a900473ffffffffffffffffffffffffffffffffffffffff16905081600660006101000a81548173ffffffffffffffffffffffffffffffffffffffff021916908373ffffffffffffffffffffffffffffffffffffffff1602179055508173ffffffffffffffffffffffffffffffffffffffff168173ffffffffffffffffffffffffffffffffffffffff167f8be0079c531659141344cd1fd0a4f28419497f9722a3daafe3b4186f6b6457e060405160405180910390a35050565b8173ffffffffffffffffffffffffffffffffffffffff168373ffffffffffffffffffffffffffffffffffffffff1603612520576040517f08c379a0000000000000000000000000000000000000000000000000000000008152600401612517906140b8565b60405180910390fd5b80600560008573ffffffffffffffffffffffffffffffffffffffff1673ffffffffffffffffffffffffffffffffffffffff16815260200190815260200160002060008473ffffffffffffffffffffffffffffffffffffffff1673ffffffffffffffffffffffffffffffffffffffff16815260200190815260200160002060006101000a81548160ff0219169083151502179055508173ffffffffffffffffffffffffffffffffffffffff168373ffffffffffffffffffffffffffffffffffffffff167f17307eab39ab6107e8899845ad3d59bd9653f200f220920489ca2b5937696c31836040516126119190612bb6565b60405180910390a3505050565b61262984848461214e565b61263584848484612724565b612674576040517f08c379a000000000000000000000000000000000000000000000000000000000815260040161266b9061414a565b60405180910390fd5b50505050565b60008073ffffffffffffffffffffffffffffffffffffffff166002600084815260200190815260200160002060009054906101000a900473ffffffffffffffffffffffffffffffffffffffff1673ffffffffffffffffffffffffffffffffffffffff1614159050919050565b505050565b505050565b6001816000016000828254019250508190555050565b6127208282604051806020016040528060008152506128ab565b5050565b60006127458473ffffffffffffffffffffffffffffffffffffffff16612906565b1561289e578373ffffffffffffffffffffffffffffffffffffffff1663150b7a0261276e611f6c565b8786866040518563ffffffff1660e01b815260040161279094939291906141bf565b6020604051808303816000875af19250505080156127cc57506040513d601f19601f820116820180604052508101906127c99190614220565b60015b61284e573d80600081146127fc576040519150601f19603f3d011682016040523d82523d6000602084013e612801565b606091505b506000815103612846576040517f08c379a000000000000000000000000000000000000000000000000000000000815260040161283d9061414a565b60405180910390fd5b805181602001fd5b63150b7a0260e01b7bffffffffffffffffffffffffffffffffffffffffffffffffffffffff1916817bffffffffffffffffffffffffffffffffffffffffffffffffffffffff1916149150506128a3565b600190505b949350505050565b6128b58383612929565b6128c26000848484612724565b612901576040517f08c379a00000000000000000000000000000000000000000000000000000000081526004016128f89061414a565b60405180910390fd5b505050565b6000808273ffffffffffffffffffffffffffffffffffffffff163b119050919050565b600073ffffffffffffffffffffffffffffffffffffffff168273ffffffffffffffffffffffffffffffffffffffff1603612998576040517f08c379a000000000000000000000000000000000000000000000000000000000815260040161298f90614299565b60405180910390fd5b6129a18161267a565b156129e1576040517f08c379a00000000000000000000000000000000000000000000000000000000081526004016129d890614305565b60405180910390fd5b6129ed600083836126e6565b6001600360008473ffffffffffffffffffffffffffffffffffffffff1673ffffffffffffffffffffffffffffffffffffffff1681526020019081526020016000206000828254612a3d91906139ee565b92505081905550816002600083815260200190815260200160002060006101000a81548173ffffffffffffffffffffffffffffffffffffffff021916908373ffffffffffffffffffffffffffffffffffffffff160217905550808273ffffffffffffffffffffffffffffffffffffffff16600073ffffffffffffffffffffffffffffffffffffffff167fddf252ad1be2c89b69c2b068fc378daa952ba7f163c4a11628f55a4df523b3ef60405160405180910390a4612afe600083836126eb565b5050565b6000604051905090565b600080fd5b600080fd5b60007fffffffff0000000000000000000000000000000000000000000000000000000082169050919050565b612b4b81612b16565b8114612b5657600080fd5b50565b600081359050612b6881612b42565b92915050565b600060208284031215612b8457612b83612b0c565b5b6000612b9284828501612b59565b91505092915050565b60008115159050919050565b612bb081612b9b565b82525050565b6000602082019050612bcb6000830184612ba7565b92915050565b600081519050919050565b600082825260208201905092915050565b60005b83811015612c0b578082015181840152602081019050612bf0565b60008484015250505050565b6000601f19601f8301169050919050565b6000612c3382612bd1565b612c3d8185612bdc565b9350612c4d818560208601612bed565b612c5681612c17565b840191505092915050565b60006020820190508181036000830152612c7b8184612c28565b905092915050565b6000819050919050565b612c9681612c83565b8114612ca157600080fd5b50565b600081359050612cb381612c8d565b92915050565b600060208284031215612ccf57612cce612b0c565b5b6000612cdd84828501612ca4565b91505092915050565b600073ffffffffffffffffffffffffffffffffffffffff82169050919050565b6000612d1182612ce6565b9050919050565b612d2181612d06565b82525050565b6000602082019050612d3c6000830184612d18565b92915050565b612d4b81612d06565b8114612d5657600080fd5b50565b600081359050612d6881612d42565b92915050565b60008060408385031215612d8557612d84612b0c565b5b6000612d9385828601612d59565b9250506020612da485828601612ca4565b9150509250929050565b612db781612c83565b82525050565b6000602082019050612dd26000830184612dae565b92915050565b600080fd5b600080fd5b7f4e487b7100000000000000000000000000000000000000000000000000000000600052604160045260246000fd5b612e1a82612c17565b810181811067ffffffffffffffff82111715612e3957612e38612de2565b5b80604052505050565b6000612e4c612b02565b9050612e588282612e11565b919050565b600067ffffffffffffffff821115612e7857612e77612de2565b5b612e8182612c17565b9050602081019050919050565b82818337600083830152505050565b6000612eb0612eab84612e5d565b612e42565b905082815260208101848484011115612ecc57612ecb612ddd565b5b612ed7848285612e8e565b509392505050565b600082601f830112612ef457612ef3612dd8565b5b8135612f04848260208601612e9d565b91505092915050565b600060208284031215612f2357612f22612b0c565b5b600082013567ffffffffffffffff811115612f4157612f40612b11565b5b612f4d84828501612edf565b91505092915050565b600081519050919050565b600082825260208201905092915050565b6000819050602082019050919050565b600082825260208201905092915050565b6000612f9e82612bd1565b612fa88185612f82565b9350612fb8818560208601612bed565b612fc181612c17565b840191505092915050565b6000612fd88383612f93565b905092915050565b6000602082019050919050565b6000612ff882612f56565b6130028185612f61565b93508360208202850161301485612f72565b8060005b8581101561305057848403895281516130318582612fcc565b945061303c83612fe0565b925060208a01995050600181019050613018565b50829750879550505050505092915050565b6000602082019050818103600083015261307c8184612fed565b905092915050565b60008060006060848603121561309d5761309c612b0c565b5b60006130ab86828701612d59565b93505060206130bc86828701612d59565b92505060406130cd86828701612ca4565b9150509250925092565b6000806000606084860312156130f0576130ef612b0c565b5b60006130fe86828701612ca4565b935050602061310f86828701612d59565b925050604061312086828701612ca4565b9150509250925092565b6000602082840312156131405761313f612b0c565b5b600061314e84828501612d59565b91505092915050565b600081519050919050565b600082825260208201905092915050565b6000819050602082019050919050565b61318c81612c83565b82525050565b600061319e8383613183565b60208301905092915050565b6000602082019050919050565b60006131c282613157565b6131cc8185613162565b93506131d783613173565b8060005b838110156132085781516131ef8882613192565b97506131fa836131aa565b9250506001810190506131db565b5085935050505092915050565b6000602082019050818103600083015261322f81846131b7565b905092915050565b6000806040838503121561324e5761324d612b0c565b5b600061325c85828601612ca4565b925050602083013567ffffffffffffffff81111561327d5761327c612b11565b5b61328985828601612edf565b9150509250929050565b61329c81612b9b565b81146132a757600080fd5b50565b6000813590506132b981613293565b92915050565b600080604083850312156132d6576132d5612b0c565b5b60006132e485828601612d59565b92505060206132f5858286016132aa565b9150509250929050565b600067ffffffffffffffff82111561331a57613319612de2565b5b61332382612c17565b9050602081019050919050565b600061334361333e846132ff565b612e42565b90508281526020810184848401111561335f5761335e612ddd565b5b61336a848285612e8e565b509392505050565b600082601f83011261338757613386612dd8565b5b8135613397848260208601613330565b91505092915050565b600080600080608085870312156133ba576133b9612b0c565b5b60006133c887828801612d59565b94505060206133d987828801612d59565b93505060406133ea87828801612ca4565b925050606085013567ffffffffffffffff81111561340b5761340a612b11565b5b61341787828801613372565b91505092959194509250565b60006020828403121561343957613438612b0c565b5b6000613447848285016132aa565b91505092915050565b6000806040838503121561346757613466612b0c565b5b600061347585828601612d59565b925050602061348685828601612d59565b9150509250929050565b7f4e487b7100000000000000000000000000000000000000000000000000000000600052602260045260246000fd5b600060028204905060018216806134d757607f821691505b6020821081036134ea576134e9613490565b5b50919050565b7f4552433732313a20617070726f76616c20746f2063757272656e74206f776e6560008201527f7200000000000000000000000000000000000000000000000000000000000000602082015250565b600061354c602183612bdc565b9150613557826134f0565b604082019050919050565b6000602082019050818103600083015261357b8161353f565b9050919050565b7f4552433732313a20617070726f76652063616c6c6572206973206e6f7420746f60008201527f6b656e206f776e6572206e6f7220617070726f76656420666f7220616c6c0000602082015250565b60006135de603e83612bdc565b91506135e982613582565b604082019050919050565b6000602082019050818103600083015261360d816135d1565b9050919050565b60008190508160005260206000209050919050565b60006020601f8301049050919050565b600082821b905092915050565b6000600883026136767fffffffffffffffffffffffffffffffffffffffffffffffffffffffffffffffff82613639565b6136808683613639565b95508019841693508086168417925050509392505050565b6000819050919050565b60006136bd6136b86136b384612c83565b613698565b612c83565b9050919050565b6000819050919050565b6136d7836136a2565b6136eb6136e3826136c4565b848454613646565b825550505050565b600090565b6137006136f3565b61370b8184846136ce565b505050565b5b8181101561372f576137246000826136f8565b600181019050613711565b5050565b601f8211156137745761374581613614565b61374e84613629565b8101602085101561375d578190505b61377161376985613629565b830182613710565b50505b505050565b600082821c905092915050565b600061379760001984600802613779565b1980831691505092915050565b60006137b08383613786565b9150826002028217905092915050565b6137c982612bd1565b67ffffffffffffffff8111156137e2576137e1612de2565b5b6137ec82546134bf565b6137f7828285613733565b600060209050601f83116001811461382a5760008415613818578287015190505b61382285826137a4565b86555061388a565b601f19841661383886613614565b60005b828110156138605784890151825560018201915060208501945060208101905061383b565b8683101561387d5784890151613879601f891682613786565b8355505b6001600288020188555050505b505050505050565b7f4e487b7100000000000000000000000000000000000000000000000000000000600052603260045260246000fd5b7f4552433732313a2063616c6c6572206973206e6f7420746f6b656e206f776e6560008201527f72206e6f7220617070726f766564000000000000000000000000000000000000602082015250565b600061391d602e83612bdc565b9150613928826138c1565b604082019050919050565b6000602082019050818103600083015261394c81613910565b9050919050565b7f496e76616c6964206d696e7420616d6f756e7421000000000000000000000000600082015250565b6000613989601483612bdc565b915061399482613953565b602082019050919050565b600060208201905081810360008301526139b88161397c565b9050919050565b7f4e487b7100000000000000000000000000000000000000000000000000000000600052601160045260246000fd5b60006139f982612c83565b9150613a0483612c83565b9250828201905080821115613a1c57613a1b6139bf565b5b92915050565b7f4d617820737570706c7920657863656564656421000000000000000000000000600082015250565b6000613a58601483612bdc565b9150613a6382613a22565b602082019050919050565b60006020820190508181036000830152613a8781613a4b565b9050919050565b600081905092915050565b50565b6000613aa9600083613a8e565b9150613ab482613a99565b600082019050919050565b6000613aca82613a9c565b9150819050919050565b6000613adf82612c83565b91507fffffffffffffffffffffffffffffffffffffffffffffffffffffffffffffffff8203613b1157613b106139bf565b5b600182019050919050565b7f4e4f204e4f204e4f204e4f000000000000000000000000000000000000000000600082015250565b6000613b52600b83612bdc565b9150613b5d82613b1c565b602082019050919050565b60006020820190508181036000830152613b8181613b45565b9050919050565b7f4552433732313a20696e76616c696420746f6b656e2049440000000000000000600082015250565b6000613bbe601883612bdc565b9150613bc982613b88565b602082019050919050565b60006020820190508181036000830152613bed81613bb1565b9050919050565b7f4552433732313a2061646472657373207a65726f206973206e6f74206120766160008201527f6c6964206f776e65720000000000000000000000000000000000000000000000602082015250565b6000613c50602983612bdc565b9150613c5b82613bf4565b604082019050919050565b60006020820190508181036000830152613c7f81613c43565b9050919050565b7f496e73756666696369656e742066756e64732100000000000000000000000000600082015250565b6000613cbc601383612bdc565b9150613cc782613c86565b602082019050919050565b60006020820190508181036000830152613ceb81613caf565b9050919050565b7f5468697320746f6b656e2068617320616c7265616479206265656e206d696e7460008201527f6564000000000000000000000000000000000000000000000000000000000000602082015250565b6000613d4e602283612bdc565b9150613d5982613cf2565b604082019050919050565b60006020820190508181036000830152613d7d81613d41565b9050919050565b7f4552433732314d657461646174613a2055524920717565727920666f72206e6f60008201527f6e6578697374656e7420746f6b656e0000000000000000000000000000000000602082015250565b6000613de0602f83612bdc565b9150613deb82613d84565b604082019050919050565b60006020820190508181036000830152613e0f81613dd3565b9050919050565b7f4f776e61626c653a206e6577206f776e657220697320746865207a65726f206160008201527f6464726573730000000000000000000000000000000000000000000000000000602082015250565b6000613e72602683612bdc565b9150613e7d82613e16565b604082019050919050565b60006020820190508181036000830152613ea181613e65565b9050919050565b7f4f776e61626c653a2063616c6c6572206973206e6f7420746865206f776e6572600082015250565b6000613ede602083612bdc565b9150613ee982613ea8565b602082019050919050565b60006020820190508181036000830152613f0d81613ed1565b9050919050565b7f4552433732313a207472616e736665722066726f6d20696e636f72726563742060008201527f6f776e6572000000000000000000000000000000000000000000000000000000602082015250565b6000613f70602583612bdc565b9150613f7b82613f14565b604082019050919050565b60006020820190508181036000830152613f9f81613f63565b9050919050565b7f4552433732313a207472616e7366657220746f20746865207a65726f2061646460008201527f7265737300000000000000000000000000000000000000000000000000000000602082015250565b6000614002602483612bdc565b915061400d82613fa6565b604082019050919050565b6000602082019050818103600083015261403181613ff5565b9050919050565b600061404382612c83565b915061404e83612c83565b9250828203905081811115614066576140656139bf565b5b92915050565b7f4552433732313a20617070726f766520746f2063616c6c657200000000000000600082015250565b60006140a2601983612bdc565b91506140ad8261406c565b602082019050919050565b600060208201905081810360008301526140d181614095565b9050919050565b7f4552433732313a207472616e7366657220746f206e6f6e20455243373231526560008201527f63656976657220696d706c656d656e7465720000000000000000000000000000602082015250565b6000614134603283612bdc565b915061413f826140d8565b604082019050919050565b6000602082019050818103600083015261416381614127565b9050919050565b600081519050919050565b600082825260208201905092915050565b60006141918261416a565b61419b8185614175565b93506141ab818560208601612bed565b6141b481612c17565b840191505092915050565b60006080820190506141d46000830187612d18565b6141e16020830186612d18565b6141ee6040830185612dae565b81810360608301526142008184614186565b905095945050505050565b60008151905061421a81612b42565b92915050565b60006020828403121561423657614235612b0c565b5b60006142448482850161420b565b91505092915050565b7f4552433732313a206d696e7420746f20746865207a65726f2061646472657373600082015250565b6000614283602083612bdc565b915061428e8261424d565b602082019050919050565b600060208201905081810360008301526142b281614276565b9050919050565b7f4552433732313a20746f6b656e20616c7265616479206d696e74656400000000600082015250565b60006142ef601c83612bdc565b91506142fa826142b9565b602082019050919050565b6000602082019050818103600083015261431e816142e2565b905091905056fea26469706673582212200abcee40273ba764bff0956f1571f18206511cbb7f976b984818e35105b403c764736f6c6343000810003368747470733a2f2f6261666b726569626934627773726e35686a6376343277737436736f716a78776c726f756533376864626c676c7177766d6a6265616136706f62652e697066732e6e667473746f726167652e6c696e6b2f68747470733a2f2f6261666b726569686c6e6b766d626662777a6f7961373333766b76646f33696e6f6c6a34716a7a6b723470326d746c63786863777234757a7668692e697066732e6e667473746f726167652e6c696e6b2f68747470733a2f2f6261666b7265696337783269673636786b623269757161696f3576766c737768746c666a66337a33357a73346e6d756d337835793632797a64666d2e697066732e6e667473746f726167652e6c696e6b2f68747470733a2f2f6261666b7265696675656b346e72706c327636346f37687a6f7532636835786c676a74687a796761777236697835657277346c73757a74336a786d2e697066732e6e667473746f726167652e6c696e6b2f68747470733a2f2f676174657761792e70696e6174612e636c6f75642f697066732f516d64484d32537132337362727a696a6a796f776e514c5448436a7065353969747039524131447470625951346968747470733a2f2f6261666b726569686461746f6166647462666f707a66367a69683471777537366a6475666778686d796d6473786b3736706d78346b647a376936342e697066732e6e667473746f726167652e6c696e6b2f",
  "linkReferences": {},
  "deployedLinkReferences": {}
}