{
  "_format": "hh-sol-artifact-1",
  "contractName": "LAN",
  "sourceName": "contracts/mainliquidations.sol",
  "abi": [
    {
      "anonymous": false,
      "inputs": [
        {
          "indexed": false,
          "internalType": "uint256",
          "name": "Id",
          "type": "uint256"
        }
      ],
      "name": "loanCancelled",
      "type": "event"
    },
    {
      "anonymous": false,
      "inputs": [
        {
          "indexed": false,
          "internalType": "uint256",
          "name": "poolId",
          "type": "uint256"
        }
      ],
      "name": "loanEnded",
      "type": "event"
    },
    {
      "anonymous": false,
      "inputs": [
        {
          "indexed": true,
          "internalType": "uint256",
          "name": "poolId",
          "type": "uint256"
        },
        {
          "indexed": false,
          "internalType": "address",
          "name": "collectionAddress",
          "type": "address"
        },
        {
          "indexed": false,
          "internalType": "uint256",
          "name": "nftId",
          "type": "uint256"
        }
      ],
      "name": "newPool",
      "type": "event"
    },
    {
      "inputs": [
        {
          "internalType": "uint256",
          "name": "_poolId",
          "type": "uint256"
        },
        {
          "internalType": "uint256",
          "name": "_amount",
          "type": "uint256"
        },
        {
          "internalType": "uint256",
          "name": "_apr",
          "type": "uint256"
        },
        {
          "internalType": "uint16",
          "name": "_ltv",
          "type": "uint16"
        }
      ],
      "name": "bid",
      "outputs": [],
      "stateMutability": "nonpayable",
      "type": "function"
    },
    {
      "inputs": [
        {
          "internalType": "uint256",
          "name": "",
          "type": "uint256"
        },
        {
          "internalType": "uint256",
          "name": "",
          "type": "uint256"
        }
      ],
      "name": "bids",
      "outputs": [
        {
          "internalType": "uint256",
          "name": "bidTime",
          "type": "uint256"
        },
        {
          "internalType": "uint256",
          "name": "bidAmount",
          "type": "uint256"
        },
        {
          "internalType": "address",
          "name": "user",
          "type": "address"
        },
        {
          "internalType": "uint256",
          "name": "apr",
          "type": "uint256"
        },
        {
          "internalType": "uint16",
          "name": "ltv",
          "type": "uint16"
        }
      ],
      "stateMutability": "view",
      "type": "function"
    },
    {
      "inputs": [
        {
          "internalType": "uint256",
          "name": "_poolId",
          "type": "uint256"
        }
      ],
      "name": "cancel",
      "outputs": [],
      "stateMutability": "nonpayable",
      "type": "function"
    },
    {
      "inputs": [
        {
          "internalType": "uint256",
          "name": "_poolId",
          "type": "uint256"
        },
        {
          "internalType": "address",
          "name": "_newAddress",
          "type": "address"
        },
        {
          "internalType": "bool",
          "name": "_status",
          "type": "bool"
        }
      ],
      "name": "changeWhitelist",
      "outputs": [],
      "stateMutability": "nonpayable",
      "type": "function"
    },
    {
      "inputs": [],
      "name": "count",
      "outputs": [
        {
          "internalType": "uint256",
          "name": "",
          "type": "uint256"
        }
      ],
      "stateMutability": "view",
      "type": "function"
    },
    {
      "inputs": [
        {
          "internalType": "uint256",
          "name": "_poolId",
          "type": "uint256"
        }
      ],
      "name": "getLoan",
      "outputs": [
        {
          "internalType": "address",
          "name": "owner",
          "type": "address"
        },
        {
          "internalType": "address",
          "name": "token",
          "type": "address"
        },
        {
          "internalType": "address",
          "name": "oracleAddress",
          "type": "address"
        },
        {
          "internalType": "uint256",
          "name": "apr",
          "type": "uint256"
        },
        {
          "internalType": "uint256",
          "name": "startTime",
          "type": "uint256"
        },
        {
          "internalType": "uint256",
          "name": "numBids",
          "type": "uint256"
        },
        {
          "internalType": "bool",
          "name": "whitelisted",
          "type": "bool"
        }
      ],
      "stateMutability": "view",
      "type": "function"
    },
    {
      "inputs": [
        {
          "internalType": "address",
          "name": "_operator",
          "type": "address"
        },
        {
          "internalType": "address",
          "name": "_token",
          "type": "address"
        },
        {
          "internalType": "address",
          "name": "_oracleAddress",
          "type": "address"
        },
        {
          "internalType": "address",
          "name": "_collectionAddress",
          "type": "address"
        },
        {
          "internalType": "uint256",
          "name": "_nftId",
          "type": "uint256"
        },
        {
          "internalType": "uint256",
          "name": "_startTime",
          "type": "uint256"
        },
        {
          "internalType": "uint256",
          "name": "_endTime",
          "type": "uint256"
        },
        {
          "internalType": "bool",
          "name": "_liquidatable",
          "type": "bool"
        },
        {
          "internalType": "bool",
          "name": "_whitelisted",
          "type": "bool"
        }
      ],
      "name": "launch",
      "outputs": [],
      "stateMutability": "nonpayable",
      "type": "function"
    },
    {
      "inputs": [
        {
          "internalType": "uint256",
          "name": "_poolId",
          "type": "uint256"
        }
      ],
      "name": "liquidate",
      "outputs": [],
      "stateMutability": "nonpayable",
      "type": "function"
    },
    {
      "inputs": [
        {
          "internalType": "uint256",
          "name": "_poolId",
          "type": "uint256"
        }
      ],
      "name": "liquidateEarly",
      "outputs": [],
      "stateMutability": "nonpayable",
      "type": "function"
    },
    {
      "inputs": [
        {
          "internalType": "uint256",
          "name": "",
          "type": "uint256"
        }
      ],
      "name": "loans",
      "outputs": [
        {
          "internalType": "address",
          "name": "owner",
          "type": "address"
        },
        {
          "internalType": "address",
          "name": "token",
          "type": "address"
        },
        {
          "internalType": "address",
          "name": "operator",
          "type": "address"
        },
        {
          "internalType": "address",
          "name": "oracleAddress",
          "type": "address"
        },
        {
          "internalType": "address",
          "name": "collectionAddress",
          "type": "address"
        },
        {
          "internalType": "uint256",
          "name": "apr",
          "type": "uint256"
        },
        {
          "internalType": "uint256",
          "name": "nftId",
          "type": "uint256"
        },
        {
          "components": [
            {
              "internalType": "uint256",
              "name": "startTime",
              "type": "uint256"
            },
            {
              "internalType": "uint256",
              "name": "endTime",
              "type": "uint256"
            }
          ],
          "internalType": "struct LAN.Time",
          "name": "time",
          "type": "tuple"
        },
        {
          "internalType": "uint256",
          "name": "numBids",
          "type": "uint256"
        },
        {
          "internalType": "bool",
          "name": "liquidatable",
          "type": "bool"
        },
        {
          "internalType": "bool",
          "name": "whitelisted",
          "type": "bool"
        },
        {
          "internalType": "uint256",
          "name": "poolId",
          "type": "uint256"
        }
      ],
      "stateMutability": "view",
      "type": "function"
    },
    {
      "inputs": [
        {
          "internalType": "uint256",
          "name": "_poolId",
          "type": "uint256"
        },
        {
          "internalType": "uint256",
          "name": "_amount",
          "type": "uint256"
        }
      ],
      "name": "repay",
      "outputs": [],
      "stateMutability": "nonpayable",
      "type": "function"
    },
    {
      "inputs": [
        {
          "internalType": "uint256",
          "name": "_poolId",
          "type": "uint256"
        },
        {
          "internalType": "address",
          "name": "_newAddress",
          "type": "address"
        }
      ],
      "name": "setNewBidOwner",
      "outputs": [],
      "stateMutability": "nonpayable",
      "type": "function"
    },
    {
      "inputs": [
        {
          "internalType": "uint256",
          "name": "",
          "type": "uint256"
        }
      ],
      "name": "userPoolReserve",
      "outputs": [
        {
          "internalType": "uint256",
          "name": "",
          "type": "uint256"
        }
      ],
      "stateMutability": "view",
      "type": "function"
    },
    {
      "inputs": [
        {
          "internalType": "uint256",
          "name": "_poolId",
          "type": "uint256"
        },
        {
          "internalType": "bool",
          "name": "_whitelist",
          "type": "bool"
        }
      ],
      "name": "whitelistStatusUpdate",
      "outputs": [],
      "stateMutability": "nonpayable",
      "type": "function"
    },
    {
      "inputs": [
        {
          "internalType": "uint256",
          "name": "",
          "type": "uint256"
        },
        {
          "internalType": "address",
          "name": "",
          "type": "address"
        }
      ],
      "name": "whitelistedAddresses",
      "outputs": [
        {
          "internalType": "bool",
          "name": "",
          "type": "bool"
        }
      ],
      "stateMutability": "view",
      "type": "function"
    }
  ],
  "bytecode": "0x608060405234801561001057600080fd5b50613bce806100206000396000f3fe608060405234801561001057600080fd5b50600436106100f55760003560e01c80637a4656d611610097578063a23b02bd11610066578063a23b02bd14610276578063d8aed145146102a6578063e1ec3c68146102c2578063f724e48e146102fd576100f5565b80637a4656d6146101da5780637b3c4baa1461020a57806389e257a31461023e5780638f769f3a1461025a576100f5565b8063222fdf21116100d3578063222fdf211461015057806340e58ee51461016c578063415f124014610188578063504006ca146101a4576100f5565b806306661abd146100fa57806318de4f9d146101185780632168ed3014610134575b600080fd5b610102610319565b60405161010f9190612f02565b60405180910390f35b610132600480360381019061012d9190612f4e565b61031f565b005b61014e60048036038101906101499190612fb5565b61081b565b005b61016a60048036038101906101659190613054565b610c94565b005b61018660048036038101906101819190612f4e565b610dde565b005b6101a2600480360381019061019d9190612f4e565b6111d6565b005b6101be60048036038101906101b99190612f4e565b611663565b6040516101d197969594939291906130e4565b60405180910390f35b6101f460048036038101906101ef9190612f4e565b611798565b6040516102019190612f02565b60405180910390f35b610224600480360381019061021f9190613153565b6117b0565b6040516102359594939291906131a2565b60405180910390f35b61025860048036038101906102539190613221565b611821565b005b610274600480360381019061026f91906132eb565b611c87565b005b610290600480360381019061028b91906132eb565b612077565b60405161029d919061332b565b60405180910390f35b6102c060048036038101906102bb9190613153565b6120a6565b005b6102dc60048036038101906102d79190612f4e565b6126c4565b6040516102f49c9b9a99989796959493929190613384565b60405180910390f35b6103176004803603810190610312919061343e565b6127fc565b005b60005481565b803373ffffffffffffffffffffffffffffffffffffffff166001600083815260200190815260200160002060000160009054906101000a900473ffffffffffffffffffffffffffffffffffffffff1673ffffffffffffffffffffffffffffffffffffffff1614806103f157503373ffffffffffffffffffffffffffffffffffffffff166001600083815260200190815260200160002060020160009054906101000a900473ffffffffffffffffffffffffffffffffffffffff1673ffffffffffffffffffffffffffffffffffffffff16145b610430576040517f08c379a0000000000000000000000000000000000000000000000000000000008152600401610427906134ee565b60405180910390fd5b600060016000848152602001908152602001600020604051806101800160405290816000820160009054906101000a900473ffffffffffffffffffffffffffffffffffffffff1673ffffffffffffffffffffffffffffffffffffffff1673ffffffffffffffffffffffffffffffffffffffff1681526020016001820160009054906101000a900473ffffffffffffffffffffffffffffffffffffffff1673ffffffffffffffffffffffffffffffffffffffff1673ffffffffffffffffffffffffffffffffffffffff1681526020016002820160009054906101000a900473ffffffffffffffffffffffffffffffffffffffff1673ffffffffffffffffffffffffffffffffffffffff1673ffffffffffffffffffffffffffffffffffffffff1681526020016003820160009054906101000a900473ffffffffffffffffffffffffffffffffffffffff1673ffffffffffffffffffffffffffffffffffffffff1673ffffffffffffffffffffffffffffffffffffffff1681526020016004820160009054906101000a900473ffffffffffffffffffffffffffffffffffffffff1673ffffffffffffffffffffffffffffffffffffffff1673ffffffffffffffffffffffffffffffffffffffff16815260200160058201548152602001600682015481526020016007820160405180604001604052908160008201548152602001600182015481525050815260200160098201548152602001600a820160009054906101000a900460ff16151515158152602001600a820160019054906101000a900460ff16151515158152602001600b820154815250509050600060026000858152602001908152602001600020600083610100015181526020019081526020016000206040518060a001604052908160008201548152602001600182015481526020016002820160009054906101000a900473ffffffffffffffffffffffffffffffffffffffff1673ffffffffffffffffffffffffffffffffffffffff1673ffffffffffffffffffffffffffffffffffffffff168152602001600382015481526020016004820160009054906101000a900461ffff1661ffff1661ffff168152505090506000826080015190508073ffffffffffffffffffffffffffffffffffffffff166342842e0e3084604001518660c001516040518463ffffffff1660e01b81526004016107a19392919061350e565b600060405180830381600087803b1580156107bb57600080fd5b505af11580156107cf573d6000803e3d6000fd5b505050507fcf3eafc70e544bbb0b7b916314be01382e9819ef1dea730bd182222030ffe4a9856040516108029190612f02565b60405180910390a1610812612df6565b92505050505050565b61082484612869565b15610864576040517f08c379a000000000000000000000000000000000000000000000000000000000815260040161085b90613591565b60405180910390fd5b600060016000868152602001908152602001600020905080600a0160019054906101000a900460ff1680156108f357506003600086815260200190815260200160002060003373ffffffffffffffffffffffffffffffffffffffff1673ffffffffffffffffffffffffffffffffffffffff16815260200190815260200160002060009054906101000a900460ff165b8061091357506000151581600a0160019054906101000a900460ff161515145b610952576040517f08c379a0000000000000000000000000000000000000000000000000000000008152600401610949906135fd565b60405180910390fd5b600061095d8661288f565b90508085116109a1576040517f08c379a000000000000000000000000000000000000000000000000000000000815260040161099890613669565b60405180910390fd5b60006040518060a001604052804281526020018781526020013373ffffffffffffffffffffffffffffffffffffffff1681526020018681526020018561ffff1681525090508060026000898152602001908152602001600020600085600901548152602001908152602001600020600082015181600001556020820151816001015560408201518160020160006101000a81548173ffffffffffffffffffffffffffffffffffffffff021916908373ffffffffffffffffffffffffffffffffffffffff1602179055506060820151816003015560808201518160040160006101000a81548161ffff021916908361ffff16021790555090505084836005018190555060008360090154905060008114610ba1578360010160009054906101000a900473ffffffffffffffffffffffffffffffffffffffff1673ffffffffffffffffffffffffffffffffffffffff166323b872dd33600260008c8152602001908152602001600020600085815260200190815260200160002060020160009054906101000a900473ffffffffffffffffffffffffffffffffffffffff16866040518463ffffffff1660e01b8152600401610b5c9392919061350e565b6020604051808303816000875af1158015610b7b573d6000803e3d6000fd5b505050506040513d601f19601f82011682018060405250810190610b9f919061369e565b505b600181610bae91906136fa565b84600901819055508360010160009054906101000a900473ffffffffffffffffffffffffffffffffffffffff1673ffffffffffffffffffffffffffffffffffffffff166323b872dd338660000160009054906101000a900473ffffffffffffffffffffffffffffffffffffffff16868b610c28919061372e565b6040518463ffffffff1660e01b8152600401610c469392919061350e565b6020604051808303816000875af1158015610c65573d6000803e3d6000fd5b505050506040513d601f19601f82011682018060405250810190610c89919061369e565b505050505050505050565b813373ffffffffffffffffffffffffffffffffffffffff166001600083815260200190815260200160002060000160009054906101000a900473ffffffffffffffffffffffffffffffffffffffff1673ffffffffffffffffffffffffffffffffffffffff161480610d6657503373ffffffffffffffffffffffffffffffffffffffff166001600083815260200190815260200160002060020160009054906101000a900473ffffffffffffffffffffffffffffffffffffffff1673ffffffffffffffffffffffffffffffffffffffff16145b610da5576040517f08c379a0000000000000000000000000000000000000000000000000000000008152600401610d9c906134ee565b60405180910390fd5b60006001600085815260200190815260200160002090508281600a0160016101000a81548160ff02191690831515021790555050505050565b803373ffffffffffffffffffffffffffffffffffffffff166001600083815260200190815260200160002060000160009054906101000a900473ffffffffffffffffffffffffffffffffffffffff1673ffffffffffffffffffffffffffffffffffffffff161480610eb057503373ffffffffffffffffffffffffffffffffffffffff166001600083815260200190815260200160002060020160009054906101000a900473ffffffffffffffffffffffffffffffffffffffff1673ffffffffffffffffffffffffffffffffffffffff16145b610eef576040517f08c379a0000000000000000000000000000000000000000000000000000000008152600401610ee6906134ee565b60405180910390fd5b600060016000848152602001908152602001600020604051806101800160405290816000820160009054906101000a900473ffffffffffffffffffffffffffffffffffffffff1673ffffffffffffffffffffffffffffffffffffffff1673ffffffffffffffffffffffffffffffffffffffff1681526020016001820160009054906101000a900473ffffffffffffffffffffffffffffffffffffffff1673ffffffffffffffffffffffffffffffffffffffff1673ffffffffffffffffffffffffffffffffffffffff1681526020016002820160009054906101000a900473ffffffffffffffffffffffffffffffffffffffff1673ffffffffffffffffffffffffffffffffffffffff1673ffffffffffffffffffffffffffffffffffffffff1681526020016003820160009054906101000a900473ffffffffffffffffffffffffffffffffffffffff1673ffffffffffffffffffffffffffffffffffffffff1673ffffffffffffffffffffffffffffffffffffffff1681526020016004820160009054906101000a900473ffffffffffffffffffffffffffffffffffffffff1673ffffffffffffffffffffffffffffffffffffffff1673ffffffffffffffffffffffffffffffffffffffff16815260200160058201548152602001600682015481526020016007820160405180604001604052908160008201548152602001600182015481525050815260200160098201548152602001600a820160009054906101000a900460ff16151515158152602001600a820160019054906101000a900460ff16151515158152602001600b820154815250509050428160e001516000015111611190576040517f08c379a0000000000000000000000000000000000000000000000000000000008152600401611187906137ae565b60405180910390fd5b611198612df6565b90507ffe785ef891129b084b1c5a30e4d88eb97c97822c024cc25d5f9d806b897512e0836040516111c99190612f02565b60405180910390a1505050565b600060016000838152602001908152602001600020604051806101800160405290816000820160009054906101000a900473ffffffffffffffffffffffffffffffffffffffff1673ffffffffffffffffffffffffffffffffffffffff1673ffffffffffffffffffffffffffffffffffffffff1681526020016001820160009054906101000a900473ffffffffffffffffffffffffffffffffffffffff1673ffffffffffffffffffffffffffffffffffffffff1673ffffffffffffffffffffffffffffffffffffffff1681526020016002820160009054906101000a900473ffffffffffffffffffffffffffffffffffffffff1673ffffffffffffffffffffffffffffffffffffffff1673ffffffffffffffffffffffffffffffffffffffff1681526020016003820160009054906101000a900473ffffffffffffffffffffffffffffffffffffffff1673ffffffffffffffffffffffffffffffffffffffff1673ffffffffffffffffffffffffffffffffffffffff1681526020016004820160009054906101000a900473ffffffffffffffffffffffffffffffffffffffff1673ffffffffffffffffffffffffffffffffffffffff1673ffffffffffffffffffffffffffffffffffffffff16815260200160058201548152602001600682015481526020016007820160405180604001604052908160008201548152602001600182015481525050815260200160098201548152602001600a820160009054906101000a900460ff16151515158152602001600a820160019054906101000a900460ff16151515158152602001600b820154815250509050600060026000848152602001908152602001600020600083610100015181526020019081526020016000206040518060a001604052908160008201548152602001600182015481526020016002820160009054906101000a900473ffffffffffffffffffffffffffffffffffffffff1673ffffffffffffffffffffffffffffffffffffffff1673ffffffffffffffffffffffffffffffffffffffff168152602001600382015481526020016004820160009054906101000a900461ffff1661ffff1661ffff168152505090503373ffffffffffffffffffffffffffffffffffffffff16816040015173ffffffffffffffffffffffffffffffffffffffff1614801561153d575061153c83612869565b5b8061155d5750816101200151801561155c575061155b828285612c2b565b5b5b61159c576040517f08c379a000000000000000000000000000000000000000000000000000000000815260040161159390613840565b60405180910390fd5b6000826080015190508073ffffffffffffffffffffffffffffffffffffffff166342842e0e3084604001518660c001516040518463ffffffff1660e01b81526004016115ea9392919061350e565b600060405180830381600087803b15801561160457600080fd5b505af1158015611618573d6000803e3d6000fd5b505050507fcf3eafc70e544bbb0b7b916314be01382e9819ef1dea730bd182222030ffe4a98460405161164b9190612f02565b60405180910390a161165b612df6565b925050505050565b60008060008060008060006001600089815260200190815260200160002060000160009054906101000a900473ffffffffffffffffffffffffffffffffffffffff16600160008a815260200190815260200160002060010160009054906101000a900473ffffffffffffffffffffffffffffffffffffffff16600160008b815260200190815260200160002060030160009054906101000a900473ffffffffffffffffffffffffffffffffffffffff16600160008c815260200190815260200160002060050154600160008d815260200190815260200160002060070160000154600160008e815260200190815260200160002060090154600160008f8152602001908152602001600020600a0160019054906101000a900460ff169650965096509650965096509650919395979092949650565b60046020528060005260406000206000915090505481565b6002602052816000526040600020602052806000526040600020600091509150508060000154908060010154908060020160009054906101000a900473ffffffffffffffffffffffffffffffffffffffff16908060030154908060040160009054906101000a900461ffff16905085565b42841015611864576040517f08c379a000000000000000000000000000000000000000000000000000000000815260040161185b906138ac565b60405180910390fd5b8383116118a6576040517f08c379a000000000000000000000000000000000000000000000000000000000815260040161189d90613918565b60405180910390fd5b6040518061018001604052803373ffffffffffffffffffffffffffffffffffffffff1681526020018973ffffffffffffffffffffffffffffffffffffffff1681526020018a73ffffffffffffffffffffffffffffffffffffffff1681526020018873ffffffffffffffffffffffffffffffffffffffff1681526020018773ffffffffffffffffffffffffffffffffffffffff1681526020016000815260200186815260200160405180604001604052808781526020018681525081526020016000815260200183151581526020018215158152602001600054815250600160008054815260200190815260200160002060008201518160000160006101000a81548173ffffffffffffffffffffffffffffffffffffffff021916908373ffffffffffffffffffffffffffffffffffffffff16021790555060208201518160010160006101000a81548173ffffffffffffffffffffffffffffffffffffffff021916908373ffffffffffffffffffffffffffffffffffffffff16021790555060408201518160020160006101000a81548173ffffffffffffffffffffffffffffffffffffffff021916908373ffffffffffffffffffffffffffffffffffffffff16021790555060608201518160030160006101000a81548173ffffffffffffffffffffffffffffffffffffffff021916908373ffffffffffffffffffffffffffffffffffffffff16021790555060808201518160040160006101000a81548173ffffffffffffffffffffffffffffffffffffffff021916908373ffffffffffffffffffffffffffffffffffffffff16021790555060a0820151816005015560c0820151816006015560e08201518160070160008201518160000155602082015181600101555050610100820151816009015561012082015181600a0160006101000a81548160ff02191690831515021790555061014082015181600a0160016101000a81548160ff02191690831515021790555061016082015181600b015590505060008690508073ffffffffffffffffffffffffffffffffffffffff166323b872dd3330896040518463ffffffff1660e01b8152600401611bc99392919061350e565b600060405180830381600087803b158015611be357600080fd5b505af1158015611bf7573d6000803e3d6000fd5b50505050426002600080548152602001908152602001600020600080815260200190815260200160002060000181905550600080815480929190611c3a90613938565b91905055506000547fef8b2952c43462575e82711d0cc91169720a4589a9fa533d173e022437f5405e8888604051611c73929190613980565b60405180910390a250505050505050505050565b611c9082612da5565b611ccf576040517f08c379a0000000000000000000000000000000000000000000000000000000008152600401611cc6906139f5565b60405180910390fd5b611cd882612869565b15611d18576040517f08c379a0000000000000000000000000000000000000000000000000000000008152600401611d0f90613591565b60405180910390fd5b600060016000848152602001908152602001600020604051806101800160405290816000820160009054906101000a900473ffffffffffffffffffffffffffffffffffffffff1673ffffffffffffffffffffffffffffffffffffffff1673ffffffffffffffffffffffffffffffffffffffff1681526020016001820160009054906101000a900473ffffffffffffffffffffffffffffffffffffffff1673ffffffffffffffffffffffffffffffffffffffff1673ffffffffffffffffffffffffffffffffffffffff1681526020016002820160009054906101000a900473ffffffffffffffffffffffffffffffffffffffff1673ffffffffffffffffffffffffffffffffffffffff1673ffffffffffffffffffffffffffffffffffffffff1681526020016003820160009054906101000a900473ffffffffffffffffffffffffffffffffffffffff1673ffffffffffffffffffffffffffffffffffffffff1673ffffffffffffffffffffffffffffffffffffffff1681526020016004820160009054906101000a900473ffffffffffffffffffffffffffffffffffffffff1673ffffffffffffffffffffffffffffffffffffffff1673ffffffffffffffffffffffffffffffffffffffff16815260200160058201548152602001600682015481526020016007820160405180604001604052908160008201548152602001600182015481525050815260200160098201548152602001600a820160009054906101000a900460ff16151515158152602001600a820160019054906101000a900460ff16151515158152602001600b8201548152505090506000600260008581526020019081526020016000206000836101000151815260200190815260200160002090503373ffffffffffffffffffffffffffffffffffffffff168160020160009054906101000a900473ffffffffffffffffffffffffffffffffffffffff1673ffffffffffffffffffffffffffffffffffffffff161461202e576040517f08c379a000000000000000000000000000000000000000000000000000000000815260040161202590613a61565b60405180910390fd5b828160020160006101000a81548173ffffffffffffffffffffffffffffffffffffffff021916908373ffffffffffffffffffffffffffffffffffffffff16021790555050505050565b60036020528160005260406000206020528060005260406000206000915091509054906101000a900460ff1681565b813373ffffffffffffffffffffffffffffffffffffffff166001600083815260200190815260200160002060000160009054906101000a900473ffffffffffffffffffffffffffffffffffffffff1673ffffffffffffffffffffffffffffffffffffffff16148061217857503373ffffffffffffffffffffffffffffffffffffffff166001600083815260200190815260200160002060020160009054906101000a900473ffffffffffffffffffffffffffffffffffffffff1673ffffffffffffffffffffffffffffffffffffffff16145b6121b7576040517f08c379a00000000000000000000000000000000000000000000000000000000081526004016121ae906134ee565b60405180910390fd5b600060016000858152602001908152602001600020604051806101800160405290816000820160009054906101000a900473ffffffffffffffffffffffffffffffffffffffff1673ffffffffffffffffffffffffffffffffffffffff1673ffffffffffffffffffffffffffffffffffffffff1681526020016001820160009054906101000a900473ffffffffffffffffffffffffffffffffffffffff1673ffffffffffffffffffffffffffffffffffffffff1673ffffffffffffffffffffffffffffffffffffffff1681526020016002820160009054906101000a900473ffffffffffffffffffffffffffffffffffffffff1673ffffffffffffffffffffffffffffffffffffffff1673ffffffffffffffffffffffffffffffffffffffff1681526020016003820160009054906101000a900473ffffffffffffffffffffffffffffffffffffffff1673ffffffffffffffffffffffffffffffffffffffff1673ffffffffffffffffffffffffffffffffffffffff1681526020016004820160009054906101000a900473ffffffffffffffffffffffffffffffffffffffff1673ffffffffffffffffffffffffffffffffffffffff1673ffffffffffffffffffffffffffffffffffffffff16815260200160058201548152602001600682015481526020016007820160405180604001604052908160008201548152602001600182015481525050815260200160098201548152602001600a820160009054906101000a900460ff16151515158152602001600a820160019054906101000a900460ff16151515158152602001600b820154815250509050600060026000868152602001908152602001600020600083610100015181526020019081526020016000206040518060a001604052908160008201548152602001600182015481526020016002820160009054906101000a900473ffffffffffffffffffffffffffffffffffffffff1673ffffffffffffffffffffffffffffffffffffffff1673ffffffffffffffffffffffffffffffffffffffff168152602001600382015481526020016004820160009054906101000a900461ffff1661ffff1661ffff16815250509050816020015173ffffffffffffffffffffffffffffffffffffffff166323b872dd3330876040518463ffffffff1660e01b815260040161251b9392919061350e565b6020604051808303816000875af115801561253a573d6000803e3d6000fd5b505050506040513d601f19601f8201168201806040525081019061255e919061369e565b506125688561288f565b60046000878152602001908152602001600020548561258791906136fa565b10612693576000826080015190508073ffffffffffffffffffffffffffffffffffffffff166342842e0e30600160008a815260200190815260200160002060000160009054906101000a900473ffffffffffffffffffffffffffffffffffffffff16600160008b8152602001908152602001600020600601546040518463ffffffff1660e01b815260040161261e9392919061350e565b600060405180830381600087803b15801561263857600080fd5b505af115801561264c573d6000803e3d6000fd5b505050507fcf3eafc70e544bbb0b7b916314be01382e9819ef1dea730bd182222030ffe4a98660405161267f9190612f02565b60405180910390a161268f612df6565b9250505b836004600087815260200190815260200160002060008282546126b691906136fa565b925050819055505050505050565b60016020528060005260406000206000915090508060000160009054906101000a900473ffffffffffffffffffffffffffffffffffffffff16908060010160009054906101000a900473ffffffffffffffffffffffffffffffffffffffff16908060020160009054906101000a900473ffffffffffffffffffffffffffffffffffffffff16908060030160009054906101000a900473ffffffffffffffffffffffffffffffffffffffff16908060040160009054906101000a900473ffffffffffffffffffffffffffffffffffffffff169080600501549080600601549080600701604051806040016040529081600082015481526020016001820154815250509080600901549080600a0160009054906101000a900460ff169080600a0160019054906101000a900460ff169080600b015490508c565b806003600085815260200190815260200160002060008473ffffffffffffffffffffffffffffffffffffffff1673ffffffffffffffffffffffffffffffffffffffff16815260200190815260200160002060006101000a81548160ff021916908315150217905550505050565b600042600160008481526020019081526020016000206007016001015411159050919050565b60008060016000848152602001908152602001600020604051806101800160405290816000820160009054906101000a900473ffffffffffffffffffffffffffffffffffffffff1673ffffffffffffffffffffffffffffffffffffffff1673ffffffffffffffffffffffffffffffffffffffff1681526020016001820160009054906101000a900473ffffffffffffffffffffffffffffffffffffffff1673ffffffffffffffffffffffffffffffffffffffff1673ffffffffffffffffffffffffffffffffffffffff1681526020016002820160009054906101000a900473ffffffffffffffffffffffffffffffffffffffff1673ffffffffffffffffffffffffffffffffffffffff1673ffffffffffffffffffffffffffffffffffffffff1681526020016003820160009054906101000a900473ffffffffffffffffffffffffffffffffffffffff1673ffffffffffffffffffffffffffffffffffffffff1673ffffffffffffffffffffffffffffffffffffffff1681526020016004820160009054906101000a900473ffffffffffffffffffffffffffffffffffffffff1673ffffffffffffffffffffffffffffffffffffffff1673ffffffffffffffffffffffffffffffffffffffff16815260200160058201548152602001600682015481526020016007820160405180604001604052908160008201548152602001600182015481525050815260200160098201548152602001600a820160009054906101000a900460ff16151515158152602001600a820160019054906101000a900460ff16151515158152602001600b820154815250509050600060026000858152602001908152602001600020600083610100015181526020019081526020016000206040518060a001604052908160008201548152602001600182015481526020016002820160009054906101000a900473ffffffffffffffffffffffffffffffffffffffff1673ffffffffffffffffffffffffffffffffffffffff1673ffffffffffffffffffffffffffffffffffffffff168152602001600382015481526020016004820160009054906101000a900461ffff1661ffff1661ffff168152505090506000612c126301e13380612c0483612bf6670de0b6b3a7640000612be88960a001518960200151612dca90919063ffffffff16565b612de090919063ffffffff16565b612dca90919063ffffffff16565b612de090919063ffffffff16565b8260200151612c2191906136fa565b9350505050919050565b600080846060015173ffffffffffffffffffffffffffffffffffffffff1663fc57d4df86602001516040518263ffffffff1660e01b8152600401612c6f9190613a81565b602060405180830381865afa158015612c8c573d6000803e3d6000fd5b505050506040513d601f19601f82011682018060405250810190612cb09190613ab1565b856060015173ffffffffffffffffffffffffffffffffffffffff166306cd702c87608001518860c001516040518363ffffffff1660e01b8152600401612cf7929190613980565b6020604051808303816000875af1158015612d16573d6000803e3d6000fd5b505050506040513d601f19601f82011682018060405250810190612d3a9190613ab1565b612d449190613b0d565b9050600181856080015161ffff16612d5c9190613b3e565b60046000868152602001908152602001600020548660200151612d7f919061372e565b612d899190613b0d565b10612d98576000915050612d9e565b60019150505b9392505050565b6000426001600084815260200190815260200160002060070160000154109050919050565b60008183612dd89190613b3e565b905092915050565b60008183612dee9190613b0d565b905092915050565b604051806101800160405280600073ffffffffffffffffffffffffffffffffffffffff168152602001600073ffffffffffffffffffffffffffffffffffffffff168152602001600073ffffffffffffffffffffffffffffffffffffffff168152602001600073ffffffffffffffffffffffffffffffffffffffff168152602001600073ffffffffffffffffffffffffffffffffffffffff1681526020016000815260200160008152602001612ea9612ecf565b815260200160008152602001600015158152602001600015158152602001600081525090565b604051806040016040528060008152602001600081525090565b6000819050919050565b612efc81612ee9565b82525050565b6000602082019050612f176000830184612ef3565b92915050565b600080fd5b612f2b81612ee9565b8114612f3657600080fd5b50565b600081359050612f4881612f22565b92915050565b600060208284031215612f6457612f63612f1d565b5b6000612f7284828501612f39565b91505092915050565b600061ffff82169050919050565b612f9281612f7b565b8114612f9d57600080fd5b50565b600081359050612faf81612f89565b92915050565b60008060008060808587031215612fcf57612fce612f1d565b5b6000612fdd87828801612f39565b9450506020612fee87828801612f39565b9350506040612fff87828801612f39565b925050606061301087828801612fa0565b91505092959194509250565b60008115159050919050565b6130318161301c565b811461303c57600080fd5b50565b60008135905061304e81613028565b92915050565b6000806040838503121561306b5761306a612f1d565b5b600061307985828601612f39565b925050602061308a8582860161303f565b9150509250929050565b600073ffffffffffffffffffffffffffffffffffffffff82169050919050565b60006130bf82613094565b9050919050565b6130cf816130b4565b82525050565b6130de8161301c565b82525050565b600060e0820190506130f9600083018a6130c6565b61310660208301896130c6565b61311360408301886130c6565b6131206060830187612ef3565b61312d6080830186612ef3565b61313a60a0830185612ef3565b61314760c08301846130d5565b98975050505050505050565b6000806040838503121561316a57613169612f1d565b5b600061317885828601612f39565b925050602061318985828601612f39565b9150509250929050565b61319c81612f7b565b82525050565b600060a0820190506131b76000830188612ef3565b6131c46020830187612ef3565b6131d160408301866130c6565b6131de6060830185612ef3565b6131eb6080830184613193565b9695505050505050565b6131fe816130b4565b811461320957600080fd5b50565b60008135905061321b816131f5565b92915050565b60008060008060008060008060006101208a8c03121561324457613243612f1d565b5b60006132528c828d0161320c565b99505060206132638c828d0161320c565b98505060406132748c828d0161320c565b97505060606132858c828d0161320c565b96505060806132968c828d01612f39565b95505060a06132a78c828d01612f39565b94505060c06132b88c828d01612f39565b93505060e06132c98c828d0161303f565b9250506101006132db8c828d0161303f565b9150509295985092959850929598565b6000806040838503121561330257613301612f1d565b5b600061331085828601612f39565b92505060206133218582860161320c565b9150509250929050565b600060208201905061334060008301846130d5565b92915050565b61334f81612ee9565b82525050565b60408201600082015161336b6000850182613346565b50602082015161337e6020850182613346565b50505050565b60006101a08201905061339a600083018f6130c6565b6133a7602083018e6130c6565b6133b4604083018d6130c6565b6133c1606083018c6130c6565b6133ce608083018b6130c6565b6133db60a083018a612ef3565b6133e860c0830189612ef3565b6133f560e0830188613355565b613403610120830187612ef3565b6134116101408301866130d5565b61341f6101608301856130d5565b61342d610180830184612ef3565b9d9c50505050505050505050505050565b60008060006060848603121561345757613456612f1d565b5b600061346586828701612f39565b93505060206134768682870161320c565b92505060406134878682870161303f565b9150509250925092565b600082825260208201905092915050565b7f4c414e3a206e6f74206f776e6572000000000000000000000000000000000000600082015250565b60006134d8600e83613491565b91506134e3826134a2565b602082019050919050565b60006020820190508181036000830152613507816134cb565b9050919050565b600060608201905061352360008301866130c6565b61353060208301856130c6565b61353d6040830184612ef3565b949350505050565b7f4c414e3a20616c726561647920656e6465640000000000000000000000000000600082015250565b600061357b601283613491565b915061358682613545565b602082019050919050565b600060208201905081810360008301526135aa8161356e565b9050919050565b7f4c414e3a204e6f742057686974656c6973746564000000000000000000000000600082015250565b60006135e7601483613491565b91506135f2826135b1565b602082019050919050565b60006020820190508181036000830152613616816135da565b9050919050565b7f4c414e3a20626964206e6f742068696768657200000000000000000000000000600082015250565b6000613653601383613491565b915061365e8261361d565b602082019050919050565b6000602082019050818103600083015261368281613646565b9050919050565b60008151905061369881613028565b92915050565b6000602082840312156136b4576136b3612f1d565b5b60006136c284828501613689565b91505092915050565b7f4e487b7100000000000000000000000000000000000000000000000000000000600052601160045260246000fd5b600061370582612ee9565b915061371083612ee9565b9250828201905080821115613728576137276136cb565b5b92915050565b600061373982612ee9565b915061374483612ee9565b925082820390508181111561375c5761375b6136cb565b5b92915050565b7f4c414e3a20616c72656164792073746172746564000000000000000000000000600082015250565b6000613798601483613491565b91506137a382613762565b602082019050919050565b600060208201905081810360008301526137c78161378b565b9050919050565b7f4c414e3a206e6f74206c6174657374206269646465722f6e6f746f7665722c2060008201527f6f72206e6f74206c6971756964617461626c6500000000000000000000000000602082015250565b600061382a603383613491565b9150613835826137ce565b604082019050919050565b600060208201905081810360008301526138598161381d565b9050919050565b7f4c414e3a2073746172742074696d6520696e2070617374000000000000000000600082015250565b6000613896601783613491565b91506138a182613860565b602082019050919050565b600060208201905081810360008301526138c581613889565b9050919050565b7f4c414e3a20737461727420616674657220656e64000000000000000000000000600082015250565b6000613902601483613491565b915061390d826138cc565b602082019050919050565b60006020820190508181036000830152613931816138f5565b9050919050565b600061394382612ee9565b91507fffffffffffffffffffffffffffffffffffffffffffffffffffffffffffffffff8203613975576139746136cb565b5b600182019050919050565b600060408201905061399560008301856130c6565b6139a26020830184612ef3565b9392505050565b7f4c414e3a206e6f74207374617274656400000000000000000000000000000000600082015250565b60006139df601083613491565b91506139ea826139a9565b602082019050919050565b60006020820190508181036000830152613a0e816139d2565b9050919050565b7f4c414e3a204e6f7420746865206c617465737420626964646572000000000000600082015250565b6000613a4b601a83613491565b9150613a5682613a15565b602082019050919050565b60006020820190508181036000830152613a7a81613a3e565b9050919050565b6000602082019050613a9660008301846130c6565b92915050565b600081519050613aab81612f22565b92915050565b600060208284031215613ac757613ac6612f1d565b5b6000613ad584828501613a9c565b91505092915050565b7f4e487b7100000000000000000000000000000000000000000000000000000000600052601260045260246000fd5b6000613b1882612ee9565b9150613b2383612ee9565b925082613b3357613b32613ade565b5b828204905092915050565b6000613b4982612ee9565b9150613b5483612ee9565b9250817fffffffffffffffffffffffffffffffffffffffffffffffffffffffffffffffff0483118215151615613b8d57613b8c6136cb565b5b82820290509291505056fea264697066735822122077e644b0ef02d8a6b51965d2b0ad68475376d7ec27df87c0c5ff9a9ef2a284db64736f6c63430008100033",
  "linkReferences": {},
  "deployedLinkReferences": {}
}